{
  "_format": "hh3-artifact-1",
  "contractName": "MintingGateway",
  "sourceName": "contracts/MintingGateway.sol",
  "abi": [
    {
      "inputs": [
        {
          "internalType": "address",
          "name": "argonTokenAddress",
          "type": "address"
        },
        {
          "internalType": "address",
          "name": "argonotTokenAddress",
          "type": "address"
        }
      ],
      "stateMutability": "nonpayable",
      "type": "constructor"
    },
    {
      "inputs": [],
      "name": "ArrayLengthMismatch",
      "type": "error"
    },
    {
      "inputs": [],
      "name": "ECDSAInvalidSignature",
      "type": "error"
    },
    {
      "inputs": [
        {
          "internalType": "uint256",
          "name": "length",
          "type": "uint256"
        }
      ],
      "name": "ECDSAInvalidSignatureLength",
      "type": "error"
    },
    {
      "inputs": [
        {
          "internalType": "bytes32",
          "name": "s",
          "type": "bytes32"
        }
      ],
      "name": "ECDSAInvalidSignatureS",
      "type": "error"
    },
    {
      "inputs": [],
      "name": "EnforcedPause",
      "type": "error"
    },
    {
      "inputs": [],
      "name": "ExpectedPause",
      "type": "error"
    },
    {
      "inputs": [],
      "name": "GlobalIssuanceCouncilNotBootstrapped",
      "type": "error"
    },
    {
      "inputs": [],
      "name": "GlobalIssuanceCouncilQuorumNotMet",
      "type": "error"
    },
    {
      "inputs": [
        {
          "internalType": "uint256",
          "name": "authorized",
          "type": "uint256"
        },
        {
          "internalType": "uint256",
          "name": "required",
          "type": "uint256"
        }
      ],
      "name": "InsufficientAuthorizedCollateral",
      "type": "error"
    },
    {
      "inputs": [
        {
          "internalType": "uint64",
          "name": "expected",
          "type": "uint64"
        },
        {
          "internalType": "uint64",
          "name": "provided",
          "type": "uint64"
        }
      ],
      "name": "InvalidChainId",
      "type": "error"
    },
    {
      "inputs": [
        {
          "internalType": "bytes32",
          "name": "expected",
          "type": "bytes32"
        },
        {
          "internalType": "bytes32",
          "name": "provided",
          "type": "bytes32"
        }
      ],
      "name": "InvalidCurrentCouncilSnapshot",
      "type": "error"
    },
    {
      "inputs": [
        {
          "internalType": "uint256",
          "name": "index",
          "type": "uint256"
        }
      ],
      "name": "InvalidGlobalIssuanceCouncilMember",
      "type": "error"
    },
    {
      "inputs": [],
      "name": "InvalidInitialization",
      "type": "error"
    },
    {
      "inputs": [],
      "name": "InvalidMicrogonCollateralForArgonotPayout",
      "type": "error"
    },
    {
      "inputs": [
        {
          "internalType": "address",
          "name": "signingKey",
          "type": "address"
        }
      ],
      "name": "InvalidMintingAuthority",
      "type": "error"
    },
    {
      "inputs": [
        {
          "internalType": "address",
          "name": "expectedSigner",
          "type": "address"
        },
        {
          "internalType": "address",
          "name": "recoveredSigner",
          "type": "address"
        }
      ],
      "name": "InvalidMintingAuthorityDeactivationSigner",
      "type": "error"
    },
    {
      "inputs": [
        {
          "internalType": "uint64",
          "name": "expected",
          "type": "uint64"
        },
        {
          "internalType": "uint64",
          "name": "provided",
          "type": "uint64"
        }
      ],
      "name": "InvalidQueueNonce",
      "type": "error"
    },
    {
      "inputs": [
        {
          "internalType": "uint256",
          "name": "expected",
          "type": "uint256"
        },
        {
          "internalType": "uint256",
          "name": "provided",
          "type": "uint256"
        }
      ],
      "name": "InvalidSignatureCount",
      "type": "error"
    },
    {
      "inputs": [],
      "name": "InvalidSignatureOrder",
      "type": "error"
    },
    {
      "inputs": [
        {
          "internalType": "uint128",
          "name": "maxRate",
          "type": "uint128"
        },
        {
          "internalType": "uint128",
          "name": "providedRate",
          "type": "uint128"
        }
      ],
      "name": "InvalidTransferOutRate",
      "type": "error"
    },
    {
      "inputs": [
        {
          "internalType": "uint8",
          "name": "kind",
          "type": "uint8"
        }
      ],
      "name": "InvalidUpdateKind",
      "type": "error"
    },
    {
      "inputs": [],
      "name": "LatestGatewayUpdateCannotDeactivate",
      "type": "error"
    },
    {
      "inputs": [],
      "name": "MigrationAlreadyCompleted",
      "type": "error"
    },
    {
      "inputs": [
        {
          "internalType": "address",
          "name": "signingKey",
          "type": "address"
        }
      ],
      "name": "MintingAuthorityAlreadyActive",
      "type": "error"
    },
    {
      "inputs": [
        {
          "internalType": "address",
          "name": "signingKey",
          "type": "address"
        }
      ],
      "name": "MintingAuthorityTransferCapacityExceeded",
      "type": "error"
    },
    {
      "inputs": [
        {
          "internalType": "address",
          "name": "caller",
          "type": "address"
        }
      ],
      "name": "NotGuardianOrOwner",
      "type": "error"
    },
    {
      "inputs": [],
      "name": "NotInitializing",
      "type": "error"
    },
    {
      "inputs": [
        {
          "internalType": "address",
          "name": "owner",
          "type": "address"
        }
      ],
      "name": "OwnableInvalidOwner",
      "type": "error"
    },
    {
      "inputs": [
        {
          "internalType": "address",
          "name": "account",
          "type": "address"
        }
      ],
      "name": "OwnableUnauthorizedAccount",
      "type": "error"
    },
    {
      "inputs": [
        {
          "internalType": "uint256",
          "name": "amount",
          "type": "uint256"
        }
      ],
      "name": "RuntimeAmountOverflow",
      "type": "error"
    },
    {
      "inputs": [
        {
          "internalType": "bytes32",
          "name": "transferId",
          "type": "bytes32"
        }
      ],
      "name": "TransferOutOfArgonAlreadyFinalized",
      "type": "error"
    },
    {
      "inputs": [
        {
          "internalType": "uint256",
          "name": "currentBlock",
          "type": "uint256"
        },
        {
          "internalType": "uint256",
          "name": "validUntilBlock",
          "type": "uint256"
        }
      ],
      "name": "TransferOutOfArgonExpired",
      "type": "error"
    },
    {
      "inputs": [
        {
          "internalType": "uint256",
          "name": "currentBlock",
          "type": "uint256"
        },
        {
          "internalType": "uint256",
          "name": "validUntilBlock",
          "type": "uint256"
        }
      ],
      "name": "TransferOutOfArgonNotExpired",
      "type": "error"
    },
    {
      "inputs": [
        {
          "internalType": "address",
          "name": "token",
          "type": "address"
        }
      ],
      "name": "UnsupportedToken",
      "type": "error"
    },
    {
      "inputs": [],
      "name": "ZeroAdminSafe",
      "type": "error"
    },
    {
      "inputs": [],
      "name": "ZeroAmount",
      "type": "error"
    },
    {
      "inputs": [],
      "name": "ZeroGuardian",
      "type": "error"
    },
    {
      "inputs": [],
      "name": "ZeroMicrogonsPerArgonot",
      "type": "error"
    },
    {
      "inputs": [
        {
          "internalType": "uint256",
          "name": "index",
          "type": "uint256"
        }
      ],
      "name": "ZeroRecipient",
      "type": "error"
    },
    {
      "inputs": [],
      "name": "ZeroSigningKey",
      "type": "error"
    },
    {
      "anonymous": false,
      "inputs": [
        {
          "indexed": true,
          "internalType": "bytes32",
          "name": "councilHash",
          "type": "bytes32"
        }
      ],
      "name": "GlobalIssuanceCouncilBootstrapped",
      "type": "event"
    },
    {
      "anonymous": false,
      "inputs": [
        {
          "indexed": true,
          "internalType": "bytes32",
          "name": "previousCouncilHash",
          "type": "bytes32"
        },
        {
          "indexed": true,
          "internalType": "bytes32",
          "name": "councilHash",
          "type": "bytes32"
        }
      ],
      "name": "GlobalIssuanceCouncilForceUpdated",
      "type": "event"
    },
    {
      "anonymous": false,
      "inputs": [
        {
          "indexed": false,
          "internalType": "bytes32",
          "name": "councilHash",
          "type": "bytes32"
        },
        {
          "indexed": false,
          "internalType": "bytes32",
          "name": "relayerArgonAccountId",
          "type": "bytes32"
        },
        {
          "components": [
            {
              "internalType": "uint64",
              "name": "gatewayActivityNonce",
              "type": "uint64"
            },
            {
              "internalType": "uint64",
              "name": "argonApprovalsNonce",
              "type": "uint64"
            },
            {
              "internalType": "uint128",
              "name": "argonCirculation",
              "type": "uint128"
            },
            {
              "internalType": "uint128",
              "name": "argonotCirculation",
              "type": "uint128"
            }
          ],
          "indexed": false,
          "internalType": "struct MintingGateway.GatewayActivityState",
          "name": "gatewayState",
          "type": "tuple"
        }
      ],
      "name": "GlobalIssuanceCouncilRotated",
      "type": "event"
    },
    {
      "anonymous": false,
      "inputs": [
        {
          "indexed": true,
          "internalType": "address",
          "name": "previousGuardian",
          "type": "address"
        },
        {
          "indexed": true,
          "internalType": "address",
          "name": "newGuardian",
          "type": "address"
        }
      ],
      "name": "GuardianUpdated",
      "type": "event"
    },
    {
      "anonymous": false,
      "inputs": [
        {
          "indexed": false,
          "internalType": "uint64",
          "name": "version",
          "type": "uint64"
        }
      ],
      "name": "Initialized",
      "type": "event"
    },
    {
      "anonymous": false,
      "inputs": [
        {
          "indexed": false,
          "internalType": "uint256",
          "name": "argonRecipientCount",
          "type": "uint256"
        },
        {
          "indexed": false,
          "internalType": "uint256",
          "name": "argonTotalAmount",
          "type": "uint256"
        },
        {
          "indexed": false,
          "internalType": "uint256",
          "name": "argonotRecipientCount",
          "type": "uint256"
        },
        {
          "indexed": false,
          "internalType": "uint256",
          "name": "argonotTotalAmount",
          "type": "uint256"
        }
      ],
      "name": "MigrationCompleted",
      "type": "event"
    },
    {
      "anonymous": false,
      "inputs": [
        {
          "indexed": true,
          "internalType": "address",
          "name": "signingKey",
          "type": "address"
        },
        {
          "indexed": false,
          "internalType": "uint128",
          "name": "microgonCollateral",
          "type": "uint128"
        },
        {
          "indexed": false,
          "internalType": "uint128",
          "name": "micronotCollateral",
          "type": "uint128"
        },
        {
          "indexed": false,
          "internalType": "uint32",
          "name": "coactivationCount",
          "type": "uint32"
        },
        {
          "indexed": false,
          "internalType": "uint32",
          "name": "sharedSignatureCount",
          "type": "uint32"
        },
        {
          "indexed": false,
          "internalType": "bytes32",
          "name": "relayerArgonAccountId",
          "type": "bytes32"
        },
        {
          "components": [
            {
              "internalType": "uint64",
              "name": "gatewayActivityNonce",
              "type": "uint64"
            },
            {
              "internalType": "uint64",
              "name": "argonApprovalsNonce",
              "type": "uint64"
            },
            {
              "internalType": "uint128",
              "name": "argonCirculation",
              "type": "uint128"
            },
            {
              "internalType": "uint128",
              "name": "argonotCirculation",
              "type": "uint128"
            }
          ],
          "indexed": false,
          "internalType": "struct MintingGateway.GatewayActivityState",
          "name": "gatewayState",
          "type": "tuple"
        }
      ],
      "name": "MintingAuthorityActivated",
      "type": "event"
    },
    {
      "anonymous": false,
      "inputs": [
        {
          "indexed": true,
          "internalType": "address",
          "name": "signingKey",
          "type": "address"
        },
        {
          "indexed": false,
          "internalType": "uint128",
          "name": "microgonCollateral",
          "type": "uint128"
        },
        {
          "indexed": false,
          "internalType": "uint128",
          "name": "micronotCollateral",
          "type": "uint128"
        },
        {
          "indexed": false,
          "internalType": "bytes32",
          "name": "relayerArgonAccountId",
          "type": "bytes32"
        },
        {
          "components": [
            {
              "internalType": "uint64",
              "name": "gatewayActivityNonce",
              "type": "uint64"
            },
            {
              "internalType": "uint64",
              "name": "argonApprovalsNonce",
              "type": "uint64"
            },
            {
              "internalType": "uint128",
              "name": "argonCirculation",
              "type": "uint128"
            },
            {
              "internalType": "uint128",
              "name": "argonotCirculation",
              "type": "uint128"
            }
          ],
          "indexed": false,
          "internalType": "struct MintingGateway.GatewayActivityState",
          "name": "gatewayState",
          "type": "tuple"
        }
      ],
      "name": "MintingAuthorityDeactivated",
      "type": "event"
    },
    {
      "anonymous": false,
      "inputs": [
        {
          "indexed": true,
          "internalType": "address",
          "name": "previousOwner",
          "type": "address"
        },
        {
          "indexed": true,
          "internalType": "address",
          "name": "newOwner",
          "type": "address"
        }
      ],
      "name": "OwnershipTransferred",
      "type": "event"
    },
    {
      "anonymous": false,
      "inputs": [
        {
          "indexed": false,
          "internalType": "address",
          "name": "account",
          "type": "address"
        }
      ],
      "name": "Paused",
      "type": "event"
    },
    {
      "anonymous": false,
      "inputs": [
        {
          "indexed": false,
          "internalType": "bytes32",
          "name": "transferId",
          "type": "bytes32"
        },
        {
          "components": [
            {
              "internalType": "uint64",
              "name": "gatewayActivityNonce",
              "type": "uint64"
            },
            {
              "internalType": "uint64",
              "name": "argonApprovalsNonce",
              "type": "uint64"
            },
            {
              "internalType": "uint128",
              "name": "argonCirculation",
              "type": "uint128"
            },
            {
              "internalType": "uint128",
              "name": "argonotCirculation",
              "type": "uint128"
            }
          ],
          "indexed": false,
          "internalType": "struct MintingGateway.GatewayActivityState",
          "name": "gatewayState",
          "type": "tuple"
        }
      ],
      "name": "TransferOutOfArgonCanceled",
      "type": "event"
    },
    {
      "anonymous": false,
      "inputs": [
        {
          "indexed": false,
          "internalType": "bytes32",
          "name": "transferId",
          "type": "bytes32"
        },
        {
          "indexed": false,
          "internalType": "address",
          "name": "token",
          "type": "address"
        },
        {
          "indexed": false,
          "internalType": "uint128",
          "name": "amount",
          "type": "uint128"
        },
        {
          "components": [
            {
              "internalType": "address",
              "name": "signingKey",
              "type": "address"
            },
            {
              "internalType": "uint128",
              "name": "microgonCollateral",
              "type": "uint128"
            },
            {
              "internalType": "uint128",
              "name": "micronotCollateral",
              "type": "uint128"
            }
          ],
          "indexed": false,
          "internalType": "struct MintingGateway.MintingAuthorityCollateral[]",
          "name": "mintingCollateral",
          "type": "tuple[]"
        },
        {
          "components": [
            {
              "internalType": "uint64",
              "name": "gatewayActivityNonce",
              "type": "uint64"
            },
            {
              "internalType": "uint64",
              "name": "argonApprovalsNonce",
              "type": "uint64"
            },
            {
              "internalType": "uint128",
              "name": "argonCirculation",
              "type": "uint128"
            },
            {
              "internalType": "uint128",
              "name": "argonotCirculation",
              "type": "uint128"
            }
          ],
          "indexed": false,
          "internalType": "struct MintingGateway.GatewayActivityState",
          "name": "gatewayState",
          "type": "tuple"
        }
      ],
      "name": "TransferOutOfArgonFinalized",
      "type": "event"
    },
    {
      "anonymous": false,
      "inputs": [
        {
          "indexed": true,
          "internalType": "address",
          "name": "from",
          "type": "address"
        },
        {
          "indexed": true,
          "internalType": "address",
          "name": "token",
          "type": "address"
        },
        {
          "indexed": false,
          "internalType": "uint128",
          "name": "amount",
          "type": "uint128"
        },
        {
          "indexed": false,
          "internalType": "bytes32",
          "name": "argonAccountId",
          "type": "bytes32"
        },
        {
          "components": [
            {
              "internalType": "uint64",
              "name": "gatewayActivityNonce",
              "type": "uint64"
            },
            {
              "internalType": "uint64",
              "name": "argonApprovalsNonce",
              "type": "uint64"
            },
            {
              "internalType": "uint128",
              "name": "argonCirculation",
              "type": "uint128"
            },
            {
              "internalType": "uint128",
              "name": "argonotCirculation",
              "type": "uint128"
            }
          ],
          "indexed": false,
          "internalType": "struct MintingGateway.GatewayActivityState",
          "name": "gatewayState",
          "type": "tuple"
        }
      ],
      "name": "TransferToArgonStarted",
      "type": "event"
    },
    {
      "anonymous": false,
      "inputs": [
        {
          "indexed": false,
          "internalType": "address",
          "name": "account",
          "type": "address"
        }
      ],
      "name": "Unpaused",
      "type": "event"
    },
    {
      "inputs": [],
      "name": "RUNTIME_DECIMALS",
      "outputs": [
        {
          "internalType": "uint8",
          "name": "",
          "type": "uint8"
        }
      ],
      "stateMutability": "view",
      "type": "function"
    },
    {
      "inputs": [],
      "name": "RUNTIME_TO_ERC20_SCALE",
      "outputs": [
        {
          "internalType": "uint256",
          "name": "",
          "type": "uint256"
        }
      ],
      "stateMutability": "view",
      "type": "function"
    },
    {
      "inputs": [],
      "name": "TOKEN_DECIMALS",
      "outputs": [
        {
          "internalType": "uint8",
          "name": "",
          "type": "uint8"
        }
      ],
      "stateMutability": "view",
      "type": "function"
    },
    {
      "inputs": [
        {
          "internalType": "uint64",
          "name": "locatorIndex",
          "type": "uint64"
        }
      ],
      "name": "activityBlockLocators",
      "outputs": [
        {
          "internalType": "uint64",
          "name": "blockNumber",
          "type": "uint64"
        },
        {
          "internalType": "uint64",
          "name": "startGatewayActivityNonce",
          "type": "uint64"
        },
        {
          "internalType": "uint64",
          "name": "endGatewayActivityNonce",
          "type": "uint64"
        }
      ],
      "stateMutability": "view",
      "type": "function"
    },
    {
      "inputs": [
        {
          "components": [
            {
              "internalType": "address[]",
              "name": "signers",
              "type": "address[]"
            },
            {
              "internalType": "uint256[]",
              "name": "weights",
              "type": "uint256[]"
            }
          ],
          "internalType": "struct MintingGateway.CouncilSnapshot",
          "name": "currentCouncil",
          "type": "tuple"
        },
        {
          "components": [
            {
              "internalType": "uint64",
              "name": "queueNonce",
              "type": "uint64"
            },
            {
              "internalType": "enum MintingGateway.GatewayUpdateKind",
              "name": "kind",
              "type": "uint8"
            },
            {
              "internalType": "bytes",
              "name": "payload",
              "type": "bytes"
            },
            {
              "internalType": "bytes[]",
              "name": "signatures",
              "type": "bytes[]"
            }
          ],
          "internalType": "struct MintingGateway.GatewayUpdate[]",
          "name": "updates",
          "type": "tuple[]"
        },
        {
          "internalType": "bytes32",
          "name": "relayerArgonAccountId",
          "type": "bytes32"
        }
      ],
      "name": "applyGatewayUpdates",
      "outputs": [],
      "stateMutability": "nonpayable",
      "type": "function"
    },
    {
      "inputs": [],
      "name": "argonApprovalsHash",
      "outputs": [
        {
          "internalType": "bytes32",
          "name": "",
          "type": "bytes32"
        }
      ],
      "stateMutability": "view",
      "type": "function"
    },
    {
      "inputs": [],
      "name": "argonApprovalsNonce",
      "outputs": [
        {
          "internalType": "uint64",
          "name": "",
          "type": "uint64"
        }
      ],
      "stateMutability": "view",
      "type": "function"
    },
    {
      "inputs": [],
      "name": "argonCirculation",
      "outputs": [
        {
          "internalType": "uint128",
          "name": "",
          "type": "uint128"
        }
      ],
      "stateMutability": "view",
      "type": "function"
    },
    {
      "inputs": [],
      "name": "argonToken",
      "outputs": [
        {
          "internalType": "address",
          "name": "",
          "type": "address"
        }
      ],
      "stateMutability": "view",
      "type": "function"
    },
    {
      "inputs": [],
      "name": "argonotCirculation",
      "outputs": [
        {
          "internalType": "uint128",
          "name": "",
          "type": "uint128"
        }
      ],
      "stateMutability": "view",
      "type": "function"
    },
    {
      "inputs": [],
      "name": "argonotToken",
      "outputs": [
        {
          "internalType": "address",
          "name": "",
          "type": "address"
        }
      ],
      "stateMutability": "view",
      "type": "function"
    },
    {
      "inputs": [
        {
          "components": [
            {
              "internalType": "bytes32",
              "name": "argonAccountId",
              "type": "bytes32"
            },
            {
              "internalType": "uint64",
              "name": "argonTransferNonce",
              "type": "uint64"
            },
            {
              "internalType": "uint64",
              "name": "chainId",
              "type": "uint64"
            },
            {
              "internalType": "uint128",
              "name": "microgonsPerArgonot",
              "type": "uint128"
            },
            {
              "internalType": "address",
              "name": "recipient",
              "type": "address"
            },
            {
              "internalType": "uint64",
              "name": "validUntilBlock",
              "type": "uint64"
            },
            {
              "internalType": "address",
              "name": "token",
              "type": "address"
            },
            {
              "internalType": "uint128",
              "name": "amount",
              "type": "uint128"
            },
            {
              "internalType": "uint128",
              "name": "mintingAuthorityTip",
              "type": "uint128"
            }
          ],
          "internalType": "struct MintingGateway.TransferOutOfArgonRequest",
          "name": "request",
          "type": "tuple"
        }
      ],
      "name": "cancelTransferOutOfArgon",
      "outputs": [],
      "stateMutability": "nonpayable",
      "type": "function"
    },
    {
      "inputs": [
        {
          "components": [
            {
              "internalType": "bytes32",
              "name": "argonAccountId",
              "type": "bytes32"
            },
            {
              "internalType": "uint64",
              "name": "argonTransferNonce",
              "type": "uint64"
            },
            {
              "internalType": "uint64",
              "name": "chainId",
              "type": "uint64"
            },
            {
              "internalType": "uint128",
              "name": "microgonsPerArgonot",
              "type": "uint128"
            },
            {
              "internalType": "address",
              "name": "recipient",
              "type": "address"
            },
            {
              "internalType": "uint64",
              "name": "validUntilBlock",
              "type": "uint64"
            },
            {
              "internalType": "address",
              "name": "token",
              "type": "address"
            },
            {
              "internalType": "uint128",
              "name": "amount",
              "type": "uint128"
            },
            {
              "internalType": "uint128",
              "name": "mintingAuthorityTip",
              "type": "uint128"
            }
          ],
          "internalType": "struct MintingGateway.TransferOutOfArgonRequest",
          "name": "request",
          "type": "tuple"
        },
        {
          "components": [
            {
              "components": [
                {
                  "internalType": "uint128",
                  "name": "microgonCollateral",
                  "type": "uint128"
                },
                {
                  "internalType": "uint128",
                  "name": "micronotCollateral",
                  "type": "uint128"
                },
                {
                  "internalType": "bytes",
                  "name": "signature",
                  "type": "bytes"
                }
              ],
              "internalType": "struct MintingGateway.MintingAuthorization[]",
              "name": "authorizations",
              "type": "tuple[]"
            }
          ],
          "internalType": "struct MintingGateway.TransferOutOfArgonProof",
          "name": "proof",
          "type": "tuple"
        }
      ],
      "name": "finalizeTransferOutOfArgon",
      "outputs": [],
      "stateMutability": "nonpayable",
      "type": "function"
    },
    {
      "inputs": [
        {
          "internalType": "bytes32",
          "name": "transferId",
          "type": "bytes32"
        }
      ],
      "name": "finalizedTransferOutOfArgonIds",
      "outputs": [
        {
          "internalType": "bool",
          "name": "isFinalized",
          "type": "bool"
        }
      ],
      "stateMutability": "view",
      "type": "function"
    },
    {
      "inputs": [
        {
          "components": [
            {
              "internalType": "address[]",
              "name": "signers",
              "type": "address[]"
            },
            {
              "internalType": "uint256[]",
              "name": "weights",
              "type": "uint256[]"
            }
          ],
          "internalType": "struct MintingGateway.CouncilSnapshot",
          "name": "nextCouncil",
          "type": "tuple"
        },
        {
          "internalType": "uint128",
          "name": "nextMicrogonsPerArgonot",
          "type": "uint128"
        }
      ],
      "name": "forceUpdateActiveCouncil",
      "outputs": [],
      "stateMutability": "nonpayable",
      "type": "function"
    },
    {
      "inputs": [],
      "name": "gatewayActivityNonce",
      "outputs": [
        {
          "internalType": "uint64",
          "name": "",
          "type": "uint64"
        }
      ],
      "stateMutability": "view",
      "type": "function"
    },
    {
      "inputs": [],
      "name": "globalIssuanceCouncil",
      "outputs": [
        {
          "internalType": "uint256",
          "name": "totalWeight",
          "type": "uint256"
        },
        {
          "internalType": "uint256",
          "name": "memberCount",
          "type": "uint256"
        },
        {
          "internalType": "bytes32",
          "name": "councilHash",
          "type": "bytes32"
        },
        {
          "internalType": "uint128",
          "name": "epochMicrogonsPerArgonot",
          "type": "uint128"
        }
      ],
      "stateMutability": "view",
      "type": "function"
    },
    {
      "inputs": [],
      "name": "guardian",
      "outputs": [
        {
          "internalType": "address",
          "name": "",
          "type": "address"
        }
      ],
      "stateMutability": "view",
      "type": "function"
    },
    {
      "inputs": [
        {
          "internalType": "address",
          "name": "adminSafe",
          "type": "address"
        },
        {
          "internalType": "address",
          "name": "guardianAddress",
          "type": "address"
        },
        {
          "internalType": "bytes32",
          "name": "councilHash",
          "type": "bytes32"
        },
        {
          "internalType": "uint256",
          "name": "councilMemberCount",
          "type": "uint256"
        },
        {
          "internalType": "uint256",
          "name": "councilTotalWeight",
          "type": "uint256"
        },
        {
          "internalType": "uint128",
          "name": "initialMicrogonsPerArgonot",
          "type": "uint128"
        }
      ],
      "name": "initialize",
      "outputs": [],
      "stateMutability": "nonpayable",
      "type": "function"
    },
    {
      "inputs": [],
      "name": "latestActivityBlockLocatorIndex",
      "outputs": [
        {
          "internalType": "uint64",
          "name": "",
          "type": "uint64"
        }
      ],
      "stateMutability": "view",
      "type": "function"
    },
    {
      "inputs": [],
      "name": "maxTransferOutMicrogonsPerArgonot",
      "outputs": [
        {
          "internalType": "uint128",
          "name": "",
          "type": "uint128"
        }
      ],
      "stateMutability": "view",
      "type": "function"
    },
    {
      "inputs": [
        {
          "components": [
            {
              "internalType": "address[]",
              "name": "recipients",
              "type": "address[]"
            },
            {
              "internalType": "uint256[]",
              "name": "amounts",
              "type": "uint256[]"
            }
          ],
          "internalType": "struct MintingGateway.MigrationAssetDistribution",
          "name": "argonMigration",
          "type": "tuple"
        },
        {
          "components": [
            {
              "internalType": "address[]",
              "name": "recipients",
              "type": "address[]"
            },
            {
              "internalType": "uint256[]",
              "name": "amounts",
              "type": "uint256[]"
            }
          ],
          "internalType": "struct MintingGateway.MigrationAssetDistribution",
          "name": "argonotMigration",
          "type": "tuple"
        }
      ],
      "name": "migrate",
      "outputs": [],
      "stateMutability": "nonpayable",
      "type": "function"
    },
    {
      "inputs": [],
      "name": "migrationCompleted",
      "outputs": [
        {
          "internalType": "bool",
          "name": "",
          "type": "bool"
        }
      ],
      "stateMutability": "view",
      "type": "function"
    },
    {
      "inputs": [
        {
          "internalType": "address",
          "name": "signingKey",
          "type": "address"
        }
      ],
      "name": "mintingAuthorityCollateralRemaining",
      "outputs": [
        {
          "internalType": "uint128",
          "name": "microgonCollateral",
          "type": "uint128"
        },
        {
          "internalType": "uint128",
          "name": "micronotCollateral",
          "type": "uint128"
        }
      ],
      "stateMutability": "view",
      "type": "function"
    },
    {
      "inputs": [],
      "name": "owner",
      "outputs": [
        {
          "internalType": "address",
          "name": "",
          "type": "address"
        }
      ],
      "stateMutability": "view",
      "type": "function"
    },
    {
      "inputs": [],
      "name": "pause",
      "outputs": [],
      "stateMutability": "nonpayable",
      "type": "function"
    },
    {
      "inputs": [],
      "name": "paused",
      "outputs": [
        {
          "internalType": "bool",
          "name": "",
          "type": "bool"
        }
      ],
      "stateMutability": "view",
      "type": "function"
    },
    {
      "inputs": [],
      "name": "renounceOwnership",
      "outputs": [],
      "stateMutability": "nonpayable",
      "type": "function"
    },
    {
      "inputs": [
        {
          "internalType": "address",
          "name": "guardianAddress",
          "type": "address"
        }
      ],
      "name": "setGuardian",
      "outputs": [],
      "stateMutability": "nonpayable",
      "type": "function"
    },
    {
      "inputs": [
        {
          "internalType": "address",
          "name": "token",
          "type": "address"
        },
        {
          "internalType": "uint128",
          "name": "amount",
          "type": "uint128"
        },
        {
          "internalType": "bytes32",
          "name": "argonAccountId",
          "type": "bytes32"
        },
        {
          "internalType": "uint256",
          "name": "deadline",
          "type": "uint256"
        },
        {
          "internalType": "uint8",
          "name": "v",
          "type": "uint8"
        },
        {
          "internalType": "bytes32",
          "name": "r",
          "type": "bytes32"
        },
        {
          "internalType": "bytes32",
          "name": "s",
          "type": "bytes32"
        }
      ],
      "name": "startTransferToArgon",
      "outputs": [],
      "stateMutability": "nonpayable",
      "type": "function"
    },
    {
      "inputs": [
        {
          "internalType": "uint128",
          "name": "amount",
          "type": "uint128"
        }
      ],
      "name": "toTokenAmount",
      "outputs": [
        {
          "internalType": "uint256",
          "name": "",
          "type": "uint256"
        }
      ],
      "stateMutability": "pure",
      "type": "function"
    },
    {
      "inputs": [
        {
          "internalType": "address",
          "name": "newOwner",
          "type": "address"
        }
      ],
      "name": "transferOwnership",
      "outputs": [],
      "stateMutability": "nonpayable",
      "type": "function"
    },
    {
      "inputs": [],
      "name": "unpause",
      "outputs": [],
      "stateMutability": "nonpayable",
      "type": "function"
    }
  ],
  "bytecode": "0x60c060405234801562000010575f80fd5b506040516200458638038062004586833981016040819052620000339162000128565b6001600160a01b03808316608052811660a0526200005062000058565b50506200015e565b7ff0c57e16840df040f15088dc2f81fe391c3923bec73e23a9662efc9c229c6a00805468010000000000000000900460ff1615620000a95760405163f92ee8a960e01b815260040160405180910390fd5b80546001600160401b0390811614620001095780546001600160401b0319166001600160401b0390811782556040519081527fc7f505b2f371ae2175ee4913f4499e1f2633a7b5936321eed1cdaeb6115181d29060200160405180910390a15b50565b80516001600160a01b038116811462000123575f80fd5b919050565b5f80604083850312156200013a575f80fd5b62000145836200010c565b915062000155602084016200010c565b90509250929050565b60805160a0516143c7620001bf5f395f81816102df015281816112520152818161131401528181611c9f0152611d3101525f818161042901528181610b6001528181610fad0152818161120f01528181611c6e0152611cf401526143c75ff3fe608060405234801561000f575f80fd5b50600436106101f2575f3560e01c80636e2c7769116101145780638da5cb5b116100a9578063c017c90211610079578063c017c902146104d2578063d68d6311146104e5578063e52580a6146104f8578063ecec10a414610560578063f2fde38b14610573575f80fd5b80638da5cb5b14610466578063905d031f1461046e578063a3eb8961146104c1578063beabb591146104ca575f80fd5b80637c9afa67116100e45780637c9afa671461040257806383a4d591146104245780638456cb591461044b5780638a0dac4a14610453575f80fd5b80636e2c7769146103cc5780636e888c46146103df578063715018a6146103f257806378d350e0146103fa575f80fd5b80632ef29f3b1161018a578063452a93201161015a578063452a93201461038157806359b23872146103935780635b7f415c1461039b5780635c975abb146103b5575f80fd5b80632ef29f3b1461032157806331677980146103425780633f4ba83a14610366578063422ad8f61461036e575f80fd5b80631a5d93fd116101c55780631a5d93fd146102615780631c1eeae1146102a95780631e07f89e146102da5780632ceeddf514610319575f80fd5b8063014c72f6146101f657806309af0e3c1461020b578063138f87811461023b57806318a8f1f01461024e575b5f80fd5b610209610204366004613745565b610586565b005b60085461021e906001600160801b031681565b6040516001600160801b0390911681526020015b60405180910390f35b6102096102493660046137a0565b6106bd565b61020961025c366004613809565b610e22565b600454600554600654600754610280939291906001600160801b031684565b604080519485526020850193909352918301526001600160801b03166060820152608001610232565b5f546102c290600160a01b90046001600160401b031681565b6040516001600160401b039091168152602001610232565b6103017f000000000000000000000000000000000000000000000000000000000000000081565b6040516001600160a01b039091168152602001610232565b61021e610fa7565b61033461032f366004613876565b611035565b604051908152602001610232565b60035461035690600160401b900460ff1681565b6040519015158152602001610232565b610209611066565b61020961037c36600461388f565b611078565b5f54610301906001600160a01b031681565b6103346111b4565b6103a3601281565b60405160ff9091168152602001610232565b5f805160206143728339815191525460ff16610356565b6001546102c2906001600160401b031681565b6102096103ed3660046138aa565b6111ce565b6102096112fd565b61021e61130e565b610356610410366004613909565b600a6020525f908152604090205460ff1681565b6103017f000000000000000000000000000000000000000000000000000000000000000081565b61020961136e565b610209610461366004613920565b6113c9565b610301611447565b6104a161047c366004613920565b60096020525f90815260409020546001600160801b0380821691600160801b90041682565b604080516001600160801b03938416815292909116602083015201610232565b61033460025481565b6103a3600681565b6102096104e0366004613939565b611475565b6003546102c2906001600160401b031681565b610536610506366004613994565b600b6020525f90815260409020546001600160401b0380821691600160401b8104821691600160801b9091041683565b604080516001600160401b0394851681529284166020840152921691810191909152606001610232565b61020961056e3660046139ba565b61168f565b610209610581366004613920565b6119c2565b61058e6119ff565b806001600160801b03165f036105b757604051632440a7dd60e01b815260040160405180910390fd5b5f808061063d6105c78680613a51565b808060200260200160405190810160405280939291908181526020018383602002808284375f92019190915250610605925050506020880188613a51565b808060200260200160405190810160405280939291908181526020018383602002808284375f92019190915250899250611a31915050565b6040805160808101825260045481526005546020820152600654918101919091526007546001600160801b03166060820152929550909350915061068384848488611b4f565b8381604001517f33e53e90d61fdc868629a6234670f92c4445196f3f98ebd71935bbc76c7d915360405160405180910390a3505050505050565b6106c5611ba0565b6106ce82611bd0565b6106e66106e160e0840160c08501613920565b611c3a565b6106f7610100830160e08401613876565b6001600160801b03165f0361071f57604051631f2a200560e01b815260040160405180910390fd5b61072f60c0830160a08401613994565b6001600160401b0316431115610780574361075060c0840160a08501613994565b604051635728c7dd60e11b815260048101929092526001600160401b031660248201526044015b60405180910390fd5b5f61078a83611d8f565b905061079581611e98565b6107a56080840160608501613876565b6001600160801b03165f036107cd57604051632440a7dd60e01b815260040160405180910390fd5b6008546001600160801b0316806107ea6080860160608701613876565b6001600160801b03161115610836578061080a6080860160608701613876565b6040516343082d3360e01b81526001600160801b03928316600482015291166024820152604401610777565b5f8080806108448780613a51565b90506001600160401b0381111561085d5761085d613a9d565b6040519080825280602002602001820160405280156108a657816020015b604080516060810182525f80825260208083018290529282015282525f1990920191018161087b5790505b5090505f5b6108b58880613a51565b9050811015610b5557366108c98980613a51565b838181106108d9576108d9613ab1565b90506020028101906108eb9190613ac5565b90505f61093161091f61091a8d6109056020870187613876565b6109156040880160208901613876565b611eca565b611f57565b61092c6040850185613ae3565b611f89565b9050846001600160a01b0316816001600160a01b031611610965576040516309cf9e4960e11b815260040160405180910390fd5b6001600160a01b0381165f9081526009602090815260409091209061098c90840184613876565b81546001600160801b03918216911610806109cc57506109b26040840160208501613876565b81546001600160801b03918216600160801b909104909116105b156109f5576040516364fc3cd160e11b81526001600160a01b0383166004820152602401610777565b610a026020840184613876565b815482905f90610a1c9084906001600160801b0316613b39565b92506101000a8154816001600160801b0302191690836001600160801b03160217905550826020016020810190610a539190613876565b81548290601090610a75908490600160801b90046001600160801b0316613b39565b92506101000a8154816001600160801b0302191690836001600160801b03160217905550825f016020810190610aab9190613876565b610ab59089613b60565b9750610ac76040840160208501613876565b610ad19088613b60565b96506040518060600160405280836001600160a01b03168152602001845f016020810190610aff9190613876565b6001600160801b03168152602001846020016020810190610b209190613876565b6001600160801b0316815250858581518110610b3e57610b3e613ab1565b6020908102919091010152509350506001016108ab565b506001600160a01b037f000000000000000000000000000000000000000000000000000000000000000016610b9060e08a0160c08b01613920565b6001600160a01b031603610c5e575f610bab6006600a613c60565b610bbb60808b0160608c01613876565b6001600160801b0316856001600160801b0316610bd89190613c6e565b610be29190613c85565b90505f610bf8826001600160801b038816613ca4565b9050610c0b6101008b0160e08c01613876565b6001600160801b0316811015610c575780610c2d6101008c0160e08d01613876565b60405162f9825560e61b815260048101929092526001600160801b03166024820152604401610777565b5050610ced565b6001600160801b03841615610c8657604051630994a0f360e11b815260040160405180910390fd5b610c97610100890160e08a01613876565b6001600160801b0316836001600160801b03161015610ced5782610cc26101008a0160e08b01613876565b60405162f9825560e61b81526001600160801b03928316600482015291166024820152604401610777565b610d0b865f908152600a60205260409020805460ff19166001179055565b610d1b60e0890160c08a01613920565b6001600160a01b03166340c10f19610d3960a08b0160808c01613920565b610d4d61032f6101008d0160e08e01613876565b6040516001600160e01b031960e085901b1681526001600160a01b03909216600483015260248201526044015f604051808303815f87803b158015610d90575f80fd5b505af1158015610da2573d5f803e3d5ffd5b505050505f610daf611fb3565b90507f64d79900ed82270f744ae62db527f4e328e336d8b51e77bc72601391fe779d0687610de360e08c0160c08d01613920565b610df46101008d0160e08e01613876565b85610dfe86612003565b604051610e0f959493929190613cf9565b60405180910390a1505050505050505050565b610e2a611ba0565b610e3387611c3a565b856001600160801b03165f03610e5c57604051631f2a200560e01b815260040160405180910390fd5b5f610e6687611035565b60405163d505accf60e01b8152336004820152306024820152604481018290526064810187905260ff8616608482015260a4810185905260c481018490529091506001600160a01b0389169063d505accf9060e4015f604051808303815f87803b158015610ed2575f80fd5b505af1158015610ee4573d5f803e3d5ffd5b505060405163079cc67960e41b8152336004820152602481018490526001600160a01b038b1692506379cc679091506044015f604051808303815f87803b158015610f2d575f80fd5b505af1158015610f3f573d5f803e3d5ffd5b505050505f610f4c611fb3565b90506001600160a01b038916337f3ab970a848f33363427e47cfbd7a627af0c6e72757f150137e38cef3cee24d938a8a610f8586612003565b604051610f9493929190613d91565b60405180910390a3505050505050505050565b5f6110307f00000000000000000000000000000000000000000000000000000000000000006001600160a01b03166318160ddd6040518163ffffffff1660e01b8152600401602060405180830381865afa158015611007573d5f803e3d5ffd5b505050506040513d601f19601f8201168201806040525081019061102b9190613db5565b612078565b905090565b5f61104260066012613dcc565b61104d90600a613c60565b611060906001600160801b038416613c6e565b92915050565b61106e6119ff565b6110766120c8565b565b611080611ba0565b61108981611bd0565b61109c6106e160e0830160c08401613920565b6110ad610100820160e08301613876565b6001600160801b03165f036110d557604051631f2a200560e01b815260040160405180910390fd5b6110e560c0820160a08301613994565b6001600160401b03164311611130574361110560c0830160a08401613994565b6040516374276dcf60e11b815260048101929092526001600160401b03166024820152604401610777565b5f61113a82611d8f565b905061114581611e98565b611163815f908152600a60205260409020805460ff19166001179055565b5f61116c611fb3565b90507f3cb8789e9bf6f532eec2bc8ffee9b622fc0d6e6daefb7fb6bb2e2f7b2d62e4528261119983612003565b6040516111a7929190613de5565b60405180910390a1505050565b6111c060066012613dcc565b6111cb90600a613c60565b81565b6111d66119ff565b6111de611ba0565b600354600160401b900460ff161561120957604051633dbff3b560e01b815260040160405180910390fd5b5f61124a7f00000000000000000000000000000000000000000000000000000000000000006112388580613a51565b6112456020880188613a51565b612127565b90505f61127b7f00000000000000000000000000000000000000000000000000000000000000006112388580613a51565b6003805460ff60401b1916600160401b17905590507fc255ddc45163282f24909556f7475ab4ec8eb1d51763b25a4560cee9f43d06456112bb8580613a51565b9050836112c88680613a51565b6040516112ef94939250869093845260208401929092526040830152606082015260800190565b60405180910390a150505050565b6113056119ff565b6110765f612266565b5f6110307f00000000000000000000000000000000000000000000000000000000000000006001600160a01b03166318160ddd6040518163ffffffff1660e01b8152600401602060405180830381865afa158015611007573d5f803e3d5ffd5b5f546001600160a01b031633148015906113a1575061138b611447565b6001600160a01b0316336001600160a01b031614155b156113c15760405163354de03160e21b8152336004820152602401610777565b6110766122d6565b6113d16119ff565b6001600160a01b0381166113f85760405163a91f6a8960e01b815260040160405180910390fd5b5f80546001600160a01b038381166001600160a01b0319831681178455604051919092169283917f064d28d3d3071c5cbc271a261c10c2f0f0d9e319390397101aa0eb23c6bad9099190a35050565b7f9016d09d72d40fdae2fd8ceac6b6234c7706214fd39c1cd1e609a0528c199300546001600160a01b031690565b5f61147e61231e565b805490915060ff600160401b82041615906001600160401b03165f811580156114a45750825b90505f826001600160401b031660011480156114bf5750303b155b9050811580156114cd575080155b156114eb5760405163f92ee8a960e01b815260040160405180910390fd5b845467ffffffffffffffff19166001178555831561151557845460ff60401b1916600160401b1785555b6001600160a01b038b1661153c576040516314030c0360e11b815260040160405180910390fd5b6001600160a01b038a166115635760405163a91f6a8960e01b815260040160405180910390fd5b88158061156e575087155b80611577575086155b156115975760405163665c282b60e01b81525f6004820152602401610777565b856001600160801b03165f036115c057604051632440a7dd60e01b815260040160405180910390fd5b6115c98b612346565b6115d1612357565b5f80546001600160a01b0319166001600160a01b038c161790556115f789888a89611b4f565b600880546001600160801b0319166001600160801b03881617905560405189907fac3566d46c25f65b48d269870da4b9349704c79de13ad49b115532834d7e7ed1905f90a2831561168257845460ff60401b19168555604051600181527fc7f505b2f371ae2175ee4913f4499e1f2633a7b5936321eed1cdaeb6115181d29060200160405180910390a15b5050505050505050505050565b611697611ba0565b81158015906116f55750600283836116b0600182613e0d565b8181106116bf576116bf613ab1565b90506020028101906116d19190613e20565b6116e2906040810190602001613e34565b60028111156116f3576116f3613df9565b145b156117135760405163bf3d210b60e01b815260040160405180910390fd5b60065461173357604051632c1dfd4f60e11b815260040160405180910390fd5b5f61173d8561235f565b6002549091505f846001600160401b0381111561175c5761175c613a9d565b604051908082528060200260200182016040528015611785578160200160208202803683370190505b5090505f856001600160401b038111156117a1576117a1613a9d565b6040519080825280602002602001820160405280156117ca578160200160208202803683370190505b5090505f6117da88888585612524565b90505f5b878110156119b657368989838181106117f9576117f9613ab1565b905060200281019061180b9190613e20565b600180549192505f91611829916001600160401b0390911690613e52565b90506001600160401b0381166118426020840184613994565b6001600160401b03161461188a578061185e6020840184613994565b604051635efa452960e11b81526001600160401b03928316600482015291166024820152604401610777565b600261189c6040840160208501613e34565b60028111156118ad576118ad613df9565b036118c4576118bd82888b61278b565b96506119ac565b5f6118d56040840160208501613e34565b60028111156118e6576118e6613df9565b03611901576118f78289898c612974565b90985096506119ac565b60016119136040840160208501613e34565b600281111561192457611924613df9565b0361196c576118bd8289898787148a888151811061194457611944613ab1565b60200260200101518a898151811061195e5761195e613ab1565b60200260200101518f612b61565b61197c6040830160208401613e34565b600281111561198d5761198d613df9565b60405163b99607f960e01b815260ff9091166004820152602401610777565b50506001016117de565b50505050505050505050565b6119ca6119ff565b6001600160a01b0381166119f357604051631e4fbdf760e01b81525f6004820152602401610777565b6119fc81612266565b50565b33611a08611447565b6001600160a01b0316146110765760405163118cdaa760e01b8152336004820152602401610777565b5f805f85515f03611a575760405163665c282b60e01b81525f6004820152602401610777565b8451865114611a795760405163512509d360e11b815260040160405180910390fd5b5f805b8751811015611b33575f888281518110611a9857611a98613ab1565b602002602001015190505f888381518110611ab557611ab5613ab1565b602002602001015190505f6001600160a01b0316826001600160a01b03161480611add575080155b80611afa5750836001600160a01b0316826001600160a01b031611155b15611b1b5760405163665c282b60e01b815260048101849052602401610777565b611b258187613ca4565b955090925050600101611a7c565b5086519150611b43878787612df3565b93505093509350939050565b60408051608081018252848152602081018490529081018590526001600160801b039091166060909101819052600492909255600555600691909155600780546001600160801b0319169091179055565b5f805160206143728339815191525460ff16156110765760405163d93c066560e01b815260040160405180910390fd5b466001600160401b038116611beb6060840160408501613994565b6001600160401b031614611c365780611c0a6060840160408501613994565b6040516332e3634d60e21b81526001600160401b03928316600482015291166024820152604401610777565b5050565b6001600160a01b038116611c6c57604051635f8b555b60e11b81526001600160a01b0382166004820152602401610777565b7f00000000000000000000000000000000000000000000000000000000000000006001600160a01b03161580611cc957507f00000000000000000000000000000000000000000000000000000000000000006001600160a01b0316155b15611cf257604051635f8b555b60e11b81526001600160a01b0382166004820152602401610777565b7f00000000000000000000000000000000000000000000000000000000000000006001600160a01b0316816001600160a01b031614158015611d6657507f00000000000000000000000000000000000000000000000000000000000000006001600160a01b0316816001600160a01b031614155b156119fc57604051635f8b555b60e11b81526001600160a01b0382166004820152602401610777565b5f8135611da26040840160208501613994565b611db26060850160408601613994565b611dc26080860160608701613876565b611dd260a0870160808801613920565b611de260c0880160a08901613994565b611df260e0890160c08a01613920565b611e036101008a0160e08b01613876565b611e156101208b016101008c01613876565b60408051602081019a909a526001600160401b03988916908a015295871660608901526001600160801b0394851660808901526001600160a01b0393841660a08901529590911660c08701521660e08501529182166101008401521661012082015261014001604051602081830303815290604052805190602001209050919050565b5f818152600a602052604090205460ff16156119fc57604051632910aca360e01b815260048101829052602401610777565b5f7f28bf99522b0d2f26a76cdeda71578156383bbae91175ca503165cfdbbd1ff34a4630611ef787611d8f565b6040805160208101959095528401929092526001600160a01b0316606083015260808201526001600160801b0380851660a0830152831660c082015260e0015b6040516020818303038152906040528051906020012090505b9392505050565b7f19457468657265756d205369676e6564204d6573736167653a0a3332000000005f908152601c91909152603c902090565b5f805f80611f98878787612e09565b925092509250611fa88282612e50565b509095945050505050565b5f8054611fd190600160a01b90046001600160401b03166001613e52565b5f805467ffffffffffffffff60a01b1916600160a01b6001600160401b03841602179055905061200081612f08565b90565b604080516080810182525f808252602082018190529181018290526060810191909152604080516080810182526001600160401b038085168252600154166020820152908101612051610fa7565b6001600160801b0316815260200161206761130e565b6001600160801b0316905292915050565b5f8061208660066012613dcc565b61209190600a613c60565b61209b9084613c85565b90506001600160801b0381111561106057604051639940a77560e01b815260048101829052602401610777565b6120d06130d1565b5f80516020614372833981519152805460ff191681557f5db9ee0a495bf2e6ff9c91a7834c1ba4fdd244a5e8aa4e537bd38aeae4b073aa335b6040516001600160a01b03909116815260200160405180910390a150565b5f8382146121485760405163512509d360e11b815260040160405180910390fd5b5f5b8481101561225c575f86868381811061216557612165613ab1565b905060200201602081019061217a9190613920565b90505f85858481811061218f5761218f613ab1565b60200291909101359150506001600160a01b0382166121c457604051633bca2f5160e21b815260048101849052602401610777565b805f036121e457604051631f2a200560e01b815260040160405180910390fd5b6040516340c10f1960e01b81526001600160a01b038381166004830152602482018390528a16906340c10f19906044015f604051808303815f87803b15801561222b575f80fd5b505af115801561223d573d5f803e3d5ffd5b50505050808461224d9190613ca4565b9350505080600101905061214a565b5095945050505050565b7f9016d09d72d40fdae2fd8ceac6b6234c7706214fd39c1cd1e609a0528c19930080546001600160a01b031981166001600160a01b03848116918217845560405192169182907f8be0079c531659141344cd1fd0a4f28419497f9722a3daafe3b4186f6b6457e0905f90a3505050565b6122de611ba0565b5f80516020614372833981519152805460ff191660011781557f62e78cea01bee320cd4e420270b5ea74000d11b0c9f74754ebdbfc544b05a25833612109565b5f807ff0c57e16840df040f15088dc2f81fe391c3923bec73e23a9662efc9c229c6a00611060565b61234e613100565b6119fc81613125565b611076613100565b6123916040518060a0016040528060608152602001606081526020015f80191681526020015f81526020015f81525090565b5f80806124226123a18680613a51565b808060200260200160405190810160405280939291908181526020018383602002808284375f920191909152506123df925050506020880188613a51565b808060200260200160405190810160405280939291908181526020018383602002808284375f92019190915250506007546001600160801b03169150611a319050565b9250925092506004600201548314158061243e57506004548214155b8061244b57506005548114155b1561247757600654604051633b21437560e21b8152600481019190915260248101849052604401610777565b6040805160a081019091528061248d8780613a51565b808060200260200160405190810160405280939291908181526020018383602002808284375f920191909152505050908252506020908101906124d290880188613a51565b808060200260200160405190810160405280939291908181526020018383602002808284375f920191909152505050908252506020810194909452604084019290925260609092019190915292915050565b825f816001600160401b0381111561253e5761253e613a9d565b604051908082528060200260200182016040528015612567578160200160208202803683370190505b5090505f80865b80156125d95761257d81613e72565b9050600289898381811061259357612593613ab1565b90506020028101906125a59190613e20565b6125b6906040810190602001613e34565b60028111156125c7576125c7613df9565b146125d4578094506125d9565b61256e565b505f5b8781101561277f575f8989838181106125f7576125f7613ab1565b90506020028101906126099190613e20565b61261a906040810190602001613e34565b9050600181600281111561263057612630613df9565b0361266f5781858563ffffffff168151811061264e5761264e613ab1565b63ffffffff9092166020928302919091019091015261266c84613e87565b93505b5f81600281111561268257612682613df9565b148061268d57508582145b15612776578989838181106126a4576126a4613ab1565b90506020028101906126b69190613e20565b6126c4906060810190613a51565b6126cf915084613ea9565b925063ffffffff841615612776575f5b8463ffffffff1681101561276e575f86828151811061270057612700613ab1565b602002602001015163ffffffff169050858a828151811061272357612723613ab1565b602002602001019063ffffffff16908163ffffffff16815250508489828151811061275057612750613ab1565b63ffffffff90921660209283029190910190910152506001016126df565b505f93505f92505b506001016125dc565b50505050949350505050565b5f8061279a6040860186613ae3565b8101906127a79190613f1e565b90506127b66060860186613a51565b90506001146127f15760016127ce6060870187613a51565b604051636b01174760e11b81526004810193909352602483015250604401610777565b6128096128016020870187613994565b82518661312d565b91505f61284761281884611f57565b6128256060890189613a51565b5f81811061283557612835613ab1565b905060200281019061092c9190613ae3565b9050815f01516001600160a01b0316816001600160a01b031614612894578151604051630be4b0e160e01b81526001600160a01b0391821660048201529082166024820152604401610777565b81516001600160a01b039081165f9081526009602090815260408083208054875190951684529083209290925590916001600160801b0380821692600160801b90920416906128e5908a018a613994565b6001805467ffffffffffffffff19166001600160401b039290921691909117905560028690555f612914611fb3565b86519091506001600160a01b03167ff92f117a698345a1b681cf04280fb5da65a05a9ac88aaacad3e9ee273ce570fd84848b61294f86612003565b60405161295f9493929190613f65565b60405180910390a25050505050509392505050565b6129a66040518060a0016040528060608152602001606081526020015f80191681526020015f81526020015f81525090565b5f806129b56040880188613ae3565b8101906129c29190614028565b905080602001516001600160801b03165f036129f157604051632440a7dd60e01b815260040160405180910390fd5b5f805f612a10845f01515f0151855f0151602001518660200151611a31565b91945092509050612a43612a2760208c018c613994565b60408b015186518051602091820151918901519091908d613194565b9450612a7585612a5660608d018d613a51565b612a5f91614145565b8b5160208d015160608e015160808f01516131c9565b612a858383838760200151611b4f565b602084810151600880546001600160801b0319166001600160801b03909216919091179055612ab6908b018b613994565b6001805467ffffffffffffffff19166001600160401b039290921691909117905560028590555f612ae5611fb3565b90507fb3dbfeab9c5013403dc2f2300318b92643b1cb9323077d549b4f93bbddded9638489612b1384612003565b604051612b2293929190614204565b60405180910390a1506040805160a081018252855151815294516020908101519086015284019290925260608301526080820152915094509492505050565b5f80612b7060408a018a613ae3565b810190612b7d919061421f565b60408101519091506001600160a01b0316612bab5760405163611b32ab60e01b815260040160405180910390fd5b80516001600160801b0316158015612bce575060208101516001600160801b0316155b15612bfd576040808201519051632edcd91760e21b81526001600160a01b039091166004820152602401610777565b63ffffffff85161580612c14575063ffffffff8416155b15612c43576040808201519051632edcd91760e21b81526001600160a01b039091166004820152602401610777565b6040808201516001600160a01b03165f90815260096020522080546001600160801b0316151580612c8457508054600160801b90046001600160801b031615155b15612cb357604080830151905163cb96603760e01b81526001600160a01b039091166004820152602401610777565b612cdc612cc360208c018c613994565b8a60400151845f0151856020015186604001518d61320e565b92508615612cf557612cf583612a5660608d018d613a51565b60408051808201825283516001600160801b0390811682526020808601518216818401908152868501516001600160a01b03165f9081526009835294909420925193518216600160801b0293909116929092179055612d56908b018b613994565b6001805467ffffffffffffffff19166001600160401b039290921691909117905560028390555f612d85611fb3565b905082604001516001600160a01b03167fc0f81072946eba75f62302dad0fe56dd420d0b9d311e15b61bbe6e056c29908d845f015185602001518a8a8a612dcb88612003565b604051612ddd96959493929190614288565b60405180910390a2505050979650505050505050565b5f838383604051602001611f37939291906142c9565b5f80806041849003612e3d578435602086013560408701355f1a612e2f8982858561323c565b955095509550505050612e47565b505f915060029050825b93509350939050565b5f826003811115612e6357612e63613df9565b03612e6c575050565b6001826003811115612e8057612e80613df9565b03612e9e5760405163f645eedf60e01b815260040160405180910390fd5b6002826003811115612eb257612eb2613df9565b03612ed35760405163fce698f760e01b815260048101829052602401610777565b6003826003811115612ee757612ee7613df9565b03611c36576040516335e2f38360e21b815260048101829052602401610777565b60035443906001600160401b03165f03612fca576003805467ffffffffffffffff19166001908117909155604080516060810182526001600160401b03938416815293831660208086018281529286019182525f93909352600b90925292517f72c6bfb7988af3a1efa6568f02a999bc52252641c659d85961ca3d372b57d5cf8054945192518416600160801b0267ffffffffffffffff60801b19938516600160401b026001600160801b031990961692909416919091179390931716179055565b6003546001600160401b039081165f908152600b60205260409020805490918381169116036130205780546001600160401b03909316600160801b0267ffffffffffffffff60801b199093169290921790915550565b6003545f90613039906001600160401b03166001613e52565b600380546001600160401b0392831667ffffffffffffffff19909116811790915560408051606081018252958316865295821660208087018281528789019283525f938452600b9091529690912094518554965191518316600160801b0267ffffffffffffffff60801b19928416600160401b026001600160801b031990981691909316179590951794909416939093179091555050565b5f805160206143728339815191525460ff1661107657604051638dfc202b60e01b815260040160405180910390fd5b613108613304565b61107657604051631afcd79f60e31b815260040160405180910390fd5b6119ca613100565b604080517fad7e1df8fff16b907a93b4116c7590060dfa3b9c396a8b815e8290b0dff45cba602082015246918101919091523060608201526001600160401b03841660808201526001600160a01b03831660a082015260c081018290525f9060e001611f37565b5f806131a1868686612df3565b90506131bb88885f846131b58b8b8b61331d565b88613388565b9150505b9695505050505050565b5f806131d78888888861343a565b915091506131e7828286866135ad565b6132045760405163079842ab60e41b815260040160405180910390fd5b5050505050505050565b5f613231878760016001600160a01b03871661322b8a8a8a613611565b87613388565b979650505050505050565b5f80807f7fffffffffffffffffffffffffffffff5d576e7357a4501ddfe92f46681b20a084111561327557505f915060039050826132fa565b604080515f808252602082018084528a905260ff891692820192909252606081018790526080810186905260019060a0016020604051602081039080840390855afa1580156132c6573d5f803e3d5ffd5b5050604051601f1901519150506001600160a01b0381166132f157505f9250600191508290506132fa565b92505f91508190505b9450945094915050565b5f61330d61231e565b54600160401b900460ff16919050565b5f7f82ce6440aa5dde11f3613892819b630b62342bacf93e16a292d5c8783aafa4c3463061334c878787612df3565b6040805160208101959095528401929092526001600160a01b0316606083015260808201526001600160801b03831660a082015260c001611f37565b5f7f41936771719a172aa959076ca6aafb826eaf332dd0c9e7860901c398ef42da05463089898960028111156133c0576133c0613df9565b6040805160208101979097528601949094526001600160a01b0390921660608501526001600160401b0316608084015260a083015260ff1660c082015260e0810185905261010081018490526101208101839052610140016040516020818303038152906040528051906020012090509695505050505050565b5f805f8061344788611f57565b90505f805b88518110156135a0575f613479848b848151811061346c5761346c613ab1565b602002602001015161366d565b9050846001600160a01b0316816001600160a01b0316116134ad576040516309cf9e4960e11b815260040160405180910390fd5b8851831080156134e75750806001600160a01b03168984815181106134d4576134d4613ab1565b60200260200101516001600160a01b0316105b156134fc576134f583614359565b92506134ad565b88518314806135365750806001600160a01b031689848151811061352257613522613ab1565b60200260200101516001600160a01b031614155b156135575760405163665c282b60e01b815260048101839052602401610777565b61356087614359565b965087838151811061357457613574613ab1565b6020026020010151866135879190613ca4565b955093508361359583614359565b92505060010161344c565b5050505094509492505050565b5f806135b98684613e0d565b90506135c684605a613c6e565b6135d1866064613c6e565b106135e0576001915050613609565b6002811115801561360557506135f7846050613c6e565b613602866064613c6e565b10155b9150505b949350505050565b5f7f1cd7f89e34f6154d6f8387a08ffafc689e347b8d5809913b07c58a42995dff664630613640878787613695565b6040805160208101959095528401929092526001600160a01b03166060830152608082015260a001611f37565b5f805f8061367b86866136cb565b92509250925061368b8282612e50565b5090949350505050565b604080516001600160801b0380861660208301528416918101919091526001600160a01b03821660608201525f90608001611f37565b5f805f8351604103613702576020840151604085015160608601515f1a6136f48882858561323c565b95509550955050505061370d565b505081515f91506002905b9250925092565b5f60408284031215613724575f80fd5b50919050565b80356001600160801b0381168114613740575f80fd5b919050565b5f8060408385031215613756575f80fd5b82356001600160401b0381111561376b575f80fd5b61377785828601613714565b9250506137866020840161372a565b90509250929050565b5f6101208284031215613724575f80fd5b5f8061014083850312156137b2575f80fd5b6137bc848461378f565b91506101208301356001600160401b038111156137d7575f80fd5b8301602081860312156137e8575f80fd5b809150509250929050565b80356001600160a01b0381168114613740575f80fd5b5f805f805f805f60e0888a03121561381f575f80fd5b613828886137f3565b96506138366020890161372a565b95506040880135945060608801359350608088013560ff81168114613859575f80fd5b9699959850939692959460a0840135945060c09093013592915050565b5f60208284031215613886575f80fd5b611f508261372a565b5f61012082840312156138a0575f80fd5b611f50838361378f565b5f80604083850312156138bb575f80fd5b82356001600160401b03808211156138d1575f80fd5b6138dd86838701613714565b935060208501359150808211156138f2575f80fd5b506138ff85828601613714565b9150509250929050565b5f60208284031215613919575f80fd5b5035919050565b5f60208284031215613930575f80fd5b611f50826137f3565b5f805f805f8060c0878903121561394e575f80fd5b613957876137f3565b9550613965602088016137f3565b945060408701359350606087013592506080870135915061398860a0880161372a565b90509295509295509295565b5f602082840312156139a4575f80fd5b81356001600160401b0381168114611f50575f80fd5b5f805f80606085870312156139cd575f80fd5b84356001600160401b03808211156139e3575f80fd5b6139ef88838901613714565b95506020870135915080821115613a04575f80fd5b818701915087601f830112613a17575f80fd5b813581811115613a25575f80fd5b8860208260051b8501011115613a39575f80fd5b95986020929092019750949560400135945092505050565b5f808335601e19843603018112613a66575f80fd5b8301803591506001600160401b03821115613a7f575f80fd5b6020019150600581901b3603821315613a96575f80fd5b9250929050565b634e487b7160e01b5f52604160045260245ffd5b634e487b7160e01b5f52603260045260245ffd5b5f8235605e19833603018112613ad9575f80fd5b9190910192915050565b5f808335601e19843603018112613af8575f80fd5b8301803591506001600160401b03821115613b11575f80fd5b602001915036819003821315613a96575f80fd5b634e487b7160e01b5f52601160045260245ffd5b6001600160801b03828116828216039080821115613b5957613b59613b25565b5092915050565b6001600160801b03818116838216019080821115613b5957613b59613b25565b600181815b80851115613bba57815f1904821115613ba057613ba0613b25565b80851615613bad57918102915b93841c9390800290613b85565b509250929050565b5f82613bd057506001611060565b81613bdc57505f611060565b8160018114613bf25760028114613bfc57613c18565b6001915050611060565b60ff841115613c0d57613c0d613b25565b50506001821b611060565b5060208310610133831016604e8410600b8410161715613c3b575081810a611060565b613c458383613b80565b805f1904821115613c5857613c58613b25565b029392505050565b5f611f5060ff841683613bc2565b808202811582820484141761106057611060613b25565b5f82613c9f57634e487b7160e01b5f52601260045260245ffd5b500490565b8082018082111561106057611060613b25565b6001600160401b038082511683528060208301511660208401525060408101516001600160801b03808216604085015280606084015116606085015250505050565b5f610100808301888452602060018060a01b03808a16602087015260406001600160801b03808b16604089015260608660608a01528596508a518087526101208a01975060208c0196505f5b81811015613d78578751805187168a52878101518516888b01528501518416858a01529782019796860196600101613d45565b5050505050505050809150506131bf6080830184613cb7565b6001600160801b03841681526020810183905260c081016136096040830184613cb7565b5f60208284031215613dc5575f80fd5b5051919050565b60ff828116828216039081111561106057611060613b25565b82815260a08101611f506020830184613cb7565b634e487b7160e01b5f52602160045260245ffd5b8181038181111561106057611060613b25565b5f8235607e19833603018112613ad9575f80fd5b5f60208284031215613e44575f80fd5b813560038110611f50575f80fd5b6001600160401b03818116838216019080821115613b5957613b59613b25565b5f81613e8057613e80613b25565b505f190190565b5f63ffffffff808316818103613e9f57613e9f613b25565b6001019392505050565b63ffffffff818116838216019080821115613b5957613b59613b25565b604080519081016001600160401b0381118282101715613ee857613ee8613a9d565b60405290565b604051601f8201601f191681016001600160401b0381118282101715613f1657613f16613a9d565b604052919050565b5f60208284031215613f2e575f80fd5b604051602081018181106001600160401b0382111715613f5057613f50613a9d565b604052613f5c836137f3565b81529392505050565b6001600160801b038581168252841660208201526040810183905260e08101613f916060830184613cb7565b95945050505050565b5f6001600160401b03821115613fb257613fb2613a9d565b5060051b60200190565b5f82601f830112613fcb575f80fd5b81356020613fe0613fdb83613f9a565b613eee565b8083825260208201915060208460051b870101935086841115614001575f80fd5b602086015b8481101561401d5780358352918301918301614006565b509695505050505050565b5f6020808385031215614039575f80fd5b82356001600160401b038082111561404f575f80fd5b9084019060408287031215614062575f80fd5b61406a613ec6565b823582811115614078575f80fd5b830160408189031215614089575f80fd5b614091613ec6565b81358481111561409f575f80fd5b8201601f81018a136140af575f80fd5b80356140bd613fdb82613f9a565b81815260059190911b8201880190888101908c8311156140db575f80fd5b928901925b82841015614100576140f1846137f3565b825292890192908901906140e0565b84525050508186013584811115614115575f80fd5b6141218a828501613fbc565b828801525082525061413483850161372a565b848201528094505050505092915050565b5f614152613fdb84613f9a565b80848252602080830192508560051b85013681111561416f575f80fd5b855b818110156141f85780356001600160401b038082111561418f575f80fd5b90880190601f36818401126141a2575f80fd5b8235828111156141b4576141b4613a9d565b6141c5818301601f19168801613eee565b925080835236878286010111156141da575f80fd5b80878501888501375f90830187015250865250938201938201614171565b50919695505050505050565b8381526020810183905260c081016136096040830184613cb7565b5f6060828403121561422f575f80fd5b604051606081018181106001600160401b038211171561425157614251613a9d565b60405261425d8361372a565b815261426b6020840161372a565b602082015261427c604084016137f3565b60408201529392505050565b6001600160801b0387811682528616602082015263ffffffff85811660408301528416606082015260808101839052610120810161323160a0830184613cb7565b606080825284519082018190525f906020906080840190828801845b8281101561430a5781516001600160a01b0316845292840192908401906001016142e5565b505050838103828501528551808252868301918301905f5b8181101561433e57835183529284019291840191600101614322565b50506001600160801b03861660408601529250613609915050565b5f6001820161436a5761436a613b25565b506001019056fecd5ed15c6e187e77e9aee88184c21f4f2182ab5827cb3b7e07fbedcd63f03300a26469706673582212203a214c965eb3956ff07c645a3f97f11e09a50d6ac5d1cd5276785c6492dc75a964736f6c63430008180033",
  "linkReferences": {},
  "deployedLinkReferences": {},
  "immutableReferences": {
    "7414": [
      {
        "length": 32,
        "start": 1065
      },
      {
        "length": 32,
        "start": 2912
      },
      {
        "length": 32,
        "start": 4013
      },
      {
        "length": 32,
        "start": 4623
      },
      {
        "length": 32,
        "start": 7278
      },
      {
        "length": 32,
        "start": 7412
      }
    ],
    "7417": [
      {
        "length": 32,
        "start": 735
      },
      {
        "length": 32,
        "start": 4690
      },
      {
        "length": 32,
        "start": 4884
      },
      {
        "length": 32,
        "start": 7327
      },
      {
        "length": 32,
        "start": 7473
      }
    ]
  },
  "inputSourceName": "project/contracts/MintingGateway.sol",
  "buildInfoId": "solc-0_8_24-99a644eb68baa9f4a7d2f893d75a5ed27a4b1833"
}