{
  "_format": "hh3-artifact-1",
  "contractName": "MintingGateway",
  "sourceName": "contracts/MintingGateway.sol",
  "abi": [
    {
      "inputs": [
        {
          "internalType": "address",
          "name": "argonTokenAddress",
          "type": "address"
        },
        {
          "internalType": "address",
          "name": "argonotTokenAddress",
          "type": "address"
        }
      ],
      "stateMutability": "nonpayable",
      "type": "constructor"
    },
    {
      "inputs": [],
      "name": "ArrayLengthMismatch",
      "type": "error"
    },
    {
      "inputs": [],
      "name": "ECDSAInvalidSignature",
      "type": "error"
    },
    {
      "inputs": [
        {
          "internalType": "uint256",
          "name": "length",
          "type": "uint256"
        }
      ],
      "name": "ECDSAInvalidSignatureLength",
      "type": "error"
    },
    {
      "inputs": [
        {
          "internalType": "bytes32",
          "name": "s",
          "type": "bytes32"
        }
      ],
      "name": "ECDSAInvalidSignatureS",
      "type": "error"
    },
    {
      "inputs": [],
      "name": "EnforcedPause",
      "type": "error"
    },
    {
      "inputs": [],
      "name": "ExpectedPause",
      "type": "error"
    },
    {
      "inputs": [],
      "name": "GlobalIssuanceCouncilNotBootstrapped",
      "type": "error"
    },
    {
      "inputs": [],
      "name": "GlobalIssuanceCouncilQuorumNotMet",
      "type": "error"
    },
    {
      "inputs": [
        {
          "internalType": "uint256",
          "name": "authorized",
          "type": "uint256"
        },
        {
          "internalType": "uint256",
          "name": "required",
          "type": "uint256"
        }
      ],
      "name": "InsufficientAuthorizedCollateral",
      "type": "error"
    },
    {
      "inputs": [
        {
          "internalType": "uint64",
          "name": "expected",
          "type": "uint64"
        },
        {
          "internalType": "uint64",
          "name": "provided",
          "type": "uint64"
        }
      ],
      "name": "InvalidChainId",
      "type": "error"
    },
    {
      "inputs": [
        {
          "internalType": "bytes32",
          "name": "expected",
          "type": "bytes32"
        },
        {
          "internalType": "bytes32",
          "name": "provided",
          "type": "bytes32"
        }
      ],
      "name": "InvalidCurrentCouncilSnapshot",
      "type": "error"
    },
    {
      "inputs": [
        {
          "internalType": "uint256",
          "name": "index",
          "type": "uint256"
        }
      ],
      "name": "InvalidGlobalIssuanceCouncilMember",
      "type": "error"
    },
    {
      "inputs": [],
      "name": "InvalidInitialization",
      "type": "error"
    },
    {
      "inputs": [],
      "name": "InvalidMicrogonCollateralForArgonotPayout",
      "type": "error"
    },
    {
      "inputs": [
        {
          "internalType": "address",
          "name": "signingKey",
          "type": "address"
        }
      ],
      "name": "InvalidMintingAuthority",
      "type": "error"
    },
    {
      "inputs": [
        {
          "internalType": "address",
          "name": "expectedSigner",
          "type": "address"
        },
        {
          "internalType": "address",
          "name": "recoveredSigner",
          "type": "address"
        }
      ],
      "name": "InvalidMintingAuthorityDeactivationSigner",
      "type": "error"
    },
    {
      "inputs": [
        {
          "internalType": "uint64",
          "name": "expected",
          "type": "uint64"
        },
        {
          "internalType": "uint64",
          "name": "provided",
          "type": "uint64"
        }
      ],
      "name": "InvalidQueueNonce",
      "type": "error"
    },
    {
      "inputs": [
        {
          "internalType": "uint256",
          "name": "expected",
          "type": "uint256"
        },
        {
          "internalType": "uint256",
          "name": "provided",
          "type": "uint256"
        }
      ],
      "name": "InvalidSignatureCount",
      "type": "error"
    },
    {
      "inputs": [],
      "name": "InvalidSignatureOrder",
      "type": "error"
    },
    {
      "inputs": [
        {
          "internalType": "uint8",
          "name": "kind",
          "type": "uint8"
        }
      ],
      "name": "InvalidUpdateKind",
      "type": "error"
    },
    {
      "inputs": [],
      "name": "LatestGatewayUpdateCannotDeactivate",
      "type": "error"
    },
    {
      "inputs": [],
      "name": "MigrationAlreadyCompleted",
      "type": "error"
    },
    {
      "inputs": [
        {
          "internalType": "address",
          "name": "signingKey",
          "type": "address"
        }
      ],
      "name": "MintingAuthorityAlreadyActive",
      "type": "error"
    },
    {
      "inputs": [
        {
          "internalType": "address",
          "name": "signingKey",
          "type": "address"
        }
      ],
      "name": "MintingAuthorityTransferCapacityExceeded",
      "type": "error"
    },
    {
      "inputs": [
        {
          "internalType": "address",
          "name": "caller",
          "type": "address"
        }
      ],
      "name": "NotGuardianOrOwner",
      "type": "error"
    },
    {
      "inputs": [],
      "name": "NotInitializing",
      "type": "error"
    },
    {
      "inputs": [
        {
          "internalType": "address",
          "name": "owner",
          "type": "address"
        }
      ],
      "name": "OwnableInvalidOwner",
      "type": "error"
    },
    {
      "inputs": [
        {
          "internalType": "address",
          "name": "account",
          "type": "address"
        }
      ],
      "name": "OwnableUnauthorizedAccount",
      "type": "error"
    },
    {
      "inputs": [
        {
          "internalType": "uint256",
          "name": "amount",
          "type": "uint256"
        }
      ],
      "name": "RuntimeAmountOverflow",
      "type": "error"
    },
    {
      "inputs": [
        {
          "internalType": "bytes32",
          "name": "transferId",
          "type": "bytes32"
        }
      ],
      "name": "TransferOutOfArgonAlreadyFinalized",
      "type": "error"
    },
    {
      "inputs": [
        {
          "internalType": "uint256",
          "name": "currentBlock",
          "type": "uint256"
        },
        {
          "internalType": "uint256",
          "name": "validUntilBlock",
          "type": "uint256"
        }
      ],
      "name": "TransferOutOfArgonExpired",
      "type": "error"
    },
    {
      "inputs": [
        {
          "internalType": "uint256",
          "name": "currentBlock",
          "type": "uint256"
        },
        {
          "internalType": "uint256",
          "name": "validUntilBlock",
          "type": "uint256"
        }
      ],
      "name": "TransferOutOfArgonNotExpired",
      "type": "error"
    },
    {
      "inputs": [
        {
          "internalType": "bytes32",
          "name": "councilHash",
          "type": "bytes32"
        }
      ],
      "name": "UnknownCouncilHash",
      "type": "error"
    },
    {
      "inputs": [
        {
          "internalType": "address",
          "name": "token",
          "type": "address"
        }
      ],
      "name": "UnsupportedToken",
      "type": "error"
    },
    {
      "inputs": [],
      "name": "ZeroAdminSafe",
      "type": "error"
    },
    {
      "inputs": [],
      "name": "ZeroAmount",
      "type": "error"
    },
    {
      "inputs": [],
      "name": "ZeroGuardian",
      "type": "error"
    },
    {
      "inputs": [],
      "name": "ZeroMicrogonsPerArgonot",
      "type": "error"
    },
    {
      "inputs": [
        {
          "internalType": "uint256",
          "name": "index",
          "type": "uint256"
        }
      ],
      "name": "ZeroRecipient",
      "type": "error"
    },
    {
      "inputs": [],
      "name": "ZeroSigningKey",
      "type": "error"
    },
    {
      "anonymous": false,
      "inputs": [
        {
          "indexed": true,
          "internalType": "bytes32",
          "name": "councilHash",
          "type": "bytes32"
        }
      ],
      "name": "GlobalIssuanceCouncilBootstrapped",
      "type": "event"
    },
    {
      "anonymous": false,
      "inputs": [
        {
          "indexed": true,
          "internalType": "bytes32",
          "name": "previousCouncilHash",
          "type": "bytes32"
        },
        {
          "indexed": true,
          "internalType": "bytes32",
          "name": "councilHash",
          "type": "bytes32"
        }
      ],
      "name": "GlobalIssuanceCouncilForceUpdated",
      "type": "event"
    },
    {
      "anonymous": false,
      "inputs": [
        {
          "indexed": false,
          "internalType": "bytes32",
          "name": "councilHash",
          "type": "bytes32"
        },
        {
          "indexed": false,
          "internalType": "bytes32",
          "name": "relayerArgonAccountId",
          "type": "bytes32"
        },
        {
          "components": [
            {
              "internalType": "uint64",
              "name": "gatewayActivityNonce",
              "type": "uint64"
            },
            {
              "internalType": "uint64",
              "name": "argonApprovalsNonce",
              "type": "uint64"
            },
            {
              "internalType": "uint128",
              "name": "argonCirculation",
              "type": "uint128"
            },
            {
              "internalType": "uint128",
              "name": "argonotCirculation",
              "type": "uint128"
            }
          ],
          "indexed": false,
          "internalType": "struct MintingGateway.GatewayActivityState",
          "name": "gatewayState",
          "type": "tuple"
        }
      ],
      "name": "GlobalIssuanceCouncilRotated",
      "type": "event"
    },
    {
      "anonymous": false,
      "inputs": [
        {
          "indexed": true,
          "internalType": "address",
          "name": "previousGuardian",
          "type": "address"
        },
        {
          "indexed": true,
          "internalType": "address",
          "name": "newGuardian",
          "type": "address"
        }
      ],
      "name": "GuardianUpdated",
      "type": "event"
    },
    {
      "anonymous": false,
      "inputs": [
        {
          "indexed": false,
          "internalType": "uint64",
          "name": "version",
          "type": "uint64"
        }
      ],
      "name": "Initialized",
      "type": "event"
    },
    {
      "anonymous": false,
      "inputs": [
        {
          "indexed": false,
          "internalType": "uint256",
          "name": "argonRecipientCount",
          "type": "uint256"
        },
        {
          "indexed": false,
          "internalType": "uint256",
          "name": "argonTotalAmount",
          "type": "uint256"
        },
        {
          "indexed": false,
          "internalType": "uint256",
          "name": "argonotRecipientCount",
          "type": "uint256"
        },
        {
          "indexed": false,
          "internalType": "uint256",
          "name": "argonotTotalAmount",
          "type": "uint256"
        }
      ],
      "name": "MigrationCompleted",
      "type": "event"
    },
    {
      "anonymous": false,
      "inputs": [
        {
          "indexed": true,
          "internalType": "address",
          "name": "signingKey",
          "type": "address"
        },
        {
          "indexed": false,
          "internalType": "uint128",
          "name": "microgonCollateral",
          "type": "uint128"
        },
        {
          "indexed": false,
          "internalType": "uint128",
          "name": "micronotCollateral",
          "type": "uint128"
        },
        {
          "indexed": false,
          "internalType": "uint32",
          "name": "coactivationCount",
          "type": "uint32"
        },
        {
          "indexed": false,
          "internalType": "uint32",
          "name": "sharedSignatureCount",
          "type": "uint32"
        },
        {
          "indexed": false,
          "internalType": "bytes32",
          "name": "relayerArgonAccountId",
          "type": "bytes32"
        },
        {
          "components": [
            {
              "internalType": "uint64",
              "name": "gatewayActivityNonce",
              "type": "uint64"
            },
            {
              "internalType": "uint64",
              "name": "argonApprovalsNonce",
              "type": "uint64"
            },
            {
              "internalType": "uint128",
              "name": "argonCirculation",
              "type": "uint128"
            },
            {
              "internalType": "uint128",
              "name": "argonotCirculation",
              "type": "uint128"
            }
          ],
          "indexed": false,
          "internalType": "struct MintingGateway.GatewayActivityState",
          "name": "gatewayState",
          "type": "tuple"
        }
      ],
      "name": "MintingAuthorityActivated",
      "type": "event"
    },
    {
      "anonymous": false,
      "inputs": [
        {
          "indexed": true,
          "internalType": "address",
          "name": "signingKey",
          "type": "address"
        },
        {
          "indexed": false,
          "internalType": "uint128",
          "name": "microgonCollateral",
          "type": "uint128"
        },
        {
          "indexed": false,
          "internalType": "uint128",
          "name": "micronotCollateral",
          "type": "uint128"
        },
        {
          "indexed": false,
          "internalType": "bytes32",
          "name": "relayerArgonAccountId",
          "type": "bytes32"
        },
        {
          "components": [
            {
              "internalType": "uint64",
              "name": "gatewayActivityNonce",
              "type": "uint64"
            },
            {
              "internalType": "uint64",
              "name": "argonApprovalsNonce",
              "type": "uint64"
            },
            {
              "internalType": "uint128",
              "name": "argonCirculation",
              "type": "uint128"
            },
            {
              "internalType": "uint128",
              "name": "argonotCirculation",
              "type": "uint128"
            }
          ],
          "indexed": false,
          "internalType": "struct MintingGateway.GatewayActivityState",
          "name": "gatewayState",
          "type": "tuple"
        }
      ],
      "name": "MintingAuthorityDeactivated",
      "type": "event"
    },
    {
      "anonymous": false,
      "inputs": [
        {
          "indexed": true,
          "internalType": "address",
          "name": "previousOwner",
          "type": "address"
        },
        {
          "indexed": true,
          "internalType": "address",
          "name": "newOwner",
          "type": "address"
        }
      ],
      "name": "OwnershipTransferred",
      "type": "event"
    },
    {
      "anonymous": false,
      "inputs": [
        {
          "indexed": false,
          "internalType": "address",
          "name": "account",
          "type": "address"
        }
      ],
      "name": "Paused",
      "type": "event"
    },
    {
      "anonymous": false,
      "inputs": [
        {
          "indexed": false,
          "internalType": "bytes32",
          "name": "transferId",
          "type": "bytes32"
        },
        {
          "components": [
            {
              "internalType": "uint64",
              "name": "gatewayActivityNonce",
              "type": "uint64"
            },
            {
              "internalType": "uint64",
              "name": "argonApprovalsNonce",
              "type": "uint64"
            },
            {
              "internalType": "uint128",
              "name": "argonCirculation",
              "type": "uint128"
            },
            {
              "internalType": "uint128",
              "name": "argonotCirculation",
              "type": "uint128"
            }
          ],
          "indexed": false,
          "internalType": "struct MintingGateway.GatewayActivityState",
          "name": "gatewayState",
          "type": "tuple"
        }
      ],
      "name": "TransferOutOfArgonCanceled",
      "type": "event"
    },
    {
      "anonymous": false,
      "inputs": [
        {
          "indexed": false,
          "internalType": "bytes32",
          "name": "transferId",
          "type": "bytes32"
        },
        {
          "indexed": false,
          "internalType": "address",
          "name": "token",
          "type": "address"
        },
        {
          "indexed": false,
          "internalType": "uint128",
          "name": "amount",
          "type": "uint128"
        },
        {
          "components": [
            {
              "internalType": "address",
              "name": "signingKey",
              "type": "address"
            },
            {
              "internalType": "uint128",
              "name": "microgonCollateral",
              "type": "uint128"
            },
            {
              "internalType": "uint128",
              "name": "micronotCollateral",
              "type": "uint128"
            }
          ],
          "indexed": false,
          "internalType": "struct MintingGateway.MintingAuthorityCollateral[]",
          "name": "mintingCollateral",
          "type": "tuple[]"
        },
        {
          "components": [
            {
              "internalType": "uint64",
              "name": "gatewayActivityNonce",
              "type": "uint64"
            },
            {
              "internalType": "uint64",
              "name": "argonApprovalsNonce",
              "type": "uint64"
            },
            {
              "internalType": "uint128",
              "name": "argonCirculation",
              "type": "uint128"
            },
            {
              "internalType": "uint128",
              "name": "argonotCirculation",
              "type": "uint128"
            }
          ],
          "indexed": false,
          "internalType": "struct MintingGateway.GatewayActivityState",
          "name": "gatewayState",
          "type": "tuple"
        }
      ],
      "name": "TransferOutOfArgonFinalized",
      "type": "event"
    },
    {
      "anonymous": false,
      "inputs": [
        {
          "indexed": true,
          "internalType": "address",
          "name": "from",
          "type": "address"
        },
        {
          "indexed": true,
          "internalType": "address",
          "name": "token",
          "type": "address"
        },
        {
          "indexed": false,
          "internalType": "uint128",
          "name": "amount",
          "type": "uint128"
        },
        {
          "indexed": false,
          "internalType": "bytes32",
          "name": "argonAccountId",
          "type": "bytes32"
        },
        {
          "components": [
            {
              "internalType": "uint64",
              "name": "gatewayActivityNonce",
              "type": "uint64"
            },
            {
              "internalType": "uint64",
              "name": "argonApprovalsNonce",
              "type": "uint64"
            },
            {
              "internalType": "uint128",
              "name": "argonCirculation",
              "type": "uint128"
            },
            {
              "internalType": "uint128",
              "name": "argonotCirculation",
              "type": "uint128"
            }
          ],
          "indexed": false,
          "internalType": "struct MintingGateway.GatewayActivityState",
          "name": "gatewayState",
          "type": "tuple"
        }
      ],
      "name": "TransferToArgonStarted",
      "type": "event"
    },
    {
      "anonymous": false,
      "inputs": [
        {
          "indexed": false,
          "internalType": "address",
          "name": "account",
          "type": "address"
        }
      ],
      "name": "Unpaused",
      "type": "event"
    },
    {
      "inputs": [],
      "name": "RUNTIME_DECIMALS",
      "outputs": [
        {
          "internalType": "uint8",
          "name": "",
          "type": "uint8"
        }
      ],
      "stateMutability": "view",
      "type": "function"
    },
    {
      "inputs": [],
      "name": "RUNTIME_TO_ERC20_SCALE",
      "outputs": [
        {
          "internalType": "uint256",
          "name": "",
          "type": "uint256"
        }
      ],
      "stateMutability": "view",
      "type": "function"
    },
    {
      "inputs": [],
      "name": "TOKEN_DECIMALS",
      "outputs": [
        {
          "internalType": "uint8",
          "name": "",
          "type": "uint8"
        }
      ],
      "stateMutability": "view",
      "type": "function"
    },
    {
      "inputs": [
        {
          "internalType": "uint64",
          "name": "locatorIndex",
          "type": "uint64"
        }
      ],
      "name": "activityBlockLocators",
      "outputs": [
        {
          "internalType": "uint64",
          "name": "blockNumber",
          "type": "uint64"
        },
        {
          "internalType": "uint64",
          "name": "startGatewayActivityNonce",
          "type": "uint64"
        },
        {
          "internalType": "uint64",
          "name": "endGatewayActivityNonce",
          "type": "uint64"
        }
      ],
      "stateMutability": "view",
      "type": "function"
    },
    {
      "inputs": [
        {
          "components": [
            {
              "internalType": "address[]",
              "name": "signers",
              "type": "address[]"
            },
            {
              "internalType": "uint256[]",
              "name": "weights",
              "type": "uint256[]"
            }
          ],
          "internalType": "struct MintingGateway.CouncilSnapshot",
          "name": "currentCouncil",
          "type": "tuple"
        },
        {
          "components": [
            {
              "internalType": "uint64",
              "name": "queueNonce",
              "type": "uint64"
            },
            {
              "internalType": "enum MintingGateway.GatewayUpdateKind",
              "name": "kind",
              "type": "uint8"
            },
            {
              "internalType": "bytes",
              "name": "payload",
              "type": "bytes"
            },
            {
              "internalType": "bytes[]",
              "name": "signatures",
              "type": "bytes[]"
            }
          ],
          "internalType": "struct MintingGateway.GatewayUpdate[]",
          "name": "updates",
          "type": "tuple[]"
        },
        {
          "internalType": "bytes32",
          "name": "relayerArgonAccountId",
          "type": "bytes32"
        }
      ],
      "name": "applyGatewayUpdates",
      "outputs": [],
      "stateMutability": "nonpayable",
      "type": "function"
    },
    {
      "inputs": [],
      "name": "argonApprovalsHash",
      "outputs": [
        {
          "internalType": "bytes32",
          "name": "",
          "type": "bytes32"
        }
      ],
      "stateMutability": "view",
      "type": "function"
    },
    {
      "inputs": [],
      "name": "argonApprovalsNonce",
      "outputs": [
        {
          "internalType": "uint64",
          "name": "",
          "type": "uint64"
        }
      ],
      "stateMutability": "view",
      "type": "function"
    },
    {
      "inputs": [],
      "name": "argonCirculation",
      "outputs": [
        {
          "internalType": "uint128",
          "name": "",
          "type": "uint128"
        }
      ],
      "stateMutability": "view",
      "type": "function"
    },
    {
      "inputs": [],
      "name": "argonToken",
      "outputs": [
        {
          "internalType": "address",
          "name": "",
          "type": "address"
        }
      ],
      "stateMutability": "view",
      "type": "function"
    },
    {
      "inputs": [],
      "name": "argonotCirculation",
      "outputs": [
        {
          "internalType": "uint128",
          "name": "",
          "type": "uint128"
        }
      ],
      "stateMutability": "view",
      "type": "function"
    },
    {
      "inputs": [],
      "name": "argonotToken",
      "outputs": [
        {
          "internalType": "address",
          "name": "",
          "type": "address"
        }
      ],
      "stateMutability": "view",
      "type": "function"
    },
    {
      "inputs": [
        {
          "components": [
            {
              "internalType": "bytes32",
              "name": "argonAccountId",
              "type": "bytes32"
            },
            {
              "internalType": "uint64",
              "name": "argonTransferNonce",
              "type": "uint64"
            },
            {
              "internalType": "uint64",
              "name": "chainId",
              "type": "uint64"
            },
            {
              "internalType": "bytes32",
              "name": "councilHash",
              "type": "bytes32"
            },
            {
              "internalType": "address",
              "name": "recipient",
              "type": "address"
            },
            {
              "internalType": "uint64",
              "name": "validUntilBlock",
              "type": "uint64"
            },
            {
              "internalType": "address",
              "name": "token",
              "type": "address"
            },
            {
              "internalType": "uint128",
              "name": "amount",
              "type": "uint128"
            },
            {
              "internalType": "uint128",
              "name": "finalizationTip",
              "type": "uint128"
            }
          ],
          "internalType": "struct MintingGateway.TransferOutOfArgonRequest",
          "name": "request",
          "type": "tuple"
        }
      ],
      "name": "cancelTransferOutOfArgon",
      "outputs": [],
      "stateMutability": "nonpayable",
      "type": "function"
    },
    {
      "inputs": [
        {
          "components": [
            {
              "internalType": "bytes32",
              "name": "argonAccountId",
              "type": "bytes32"
            },
            {
              "internalType": "uint64",
              "name": "argonTransferNonce",
              "type": "uint64"
            },
            {
              "internalType": "uint64",
              "name": "chainId",
              "type": "uint64"
            },
            {
              "internalType": "bytes32",
              "name": "councilHash",
              "type": "bytes32"
            },
            {
              "internalType": "address",
              "name": "recipient",
              "type": "address"
            },
            {
              "internalType": "uint64",
              "name": "validUntilBlock",
              "type": "uint64"
            },
            {
              "internalType": "address",
              "name": "token",
              "type": "address"
            },
            {
              "internalType": "uint128",
              "name": "amount",
              "type": "uint128"
            },
            {
              "internalType": "uint128",
              "name": "finalizationTip",
              "type": "uint128"
            }
          ],
          "internalType": "struct MintingGateway.TransferOutOfArgonRequest",
          "name": "request",
          "type": "tuple"
        },
        {
          "components": [
            {
              "components": [
                {
                  "internalType": "uint128",
                  "name": "microgonCollateral",
                  "type": "uint128"
                },
                {
                  "internalType": "uint128",
                  "name": "micronotCollateral",
                  "type": "uint128"
                },
                {
                  "internalType": "bytes",
                  "name": "signature",
                  "type": "bytes"
                }
              ],
              "internalType": "struct MintingGateway.MintingAuthorization[]",
              "name": "authorizations",
              "type": "tuple[]"
            }
          ],
          "internalType": "struct MintingGateway.TransferOutOfArgonProof",
          "name": "proof",
          "type": "tuple"
        }
      ],
      "name": "finalizeTransferOutOfArgon",
      "outputs": [],
      "stateMutability": "nonpayable",
      "type": "function"
    },
    {
      "inputs": [
        {
          "internalType": "bytes32",
          "name": "transferId",
          "type": "bytes32"
        }
      ],
      "name": "finalizedTransferOutOfArgonIds",
      "outputs": [
        {
          "internalType": "bool",
          "name": "isFinalized",
          "type": "bool"
        }
      ],
      "stateMutability": "view",
      "type": "function"
    },
    {
      "inputs": [
        {
          "components": [
            {
              "internalType": "address[]",
              "name": "signers",
              "type": "address[]"
            },
            {
              "internalType": "uint256[]",
              "name": "weights",
              "type": "uint256[]"
            }
          ],
          "internalType": "struct MintingGateway.CouncilSnapshot",
          "name": "nextCouncil",
          "type": "tuple"
        }
      ],
      "name": "forceUpdateActiveCouncil",
      "outputs": [],
      "stateMutability": "nonpayable",
      "type": "function"
    },
    {
      "inputs": [],
      "name": "gatewayActivityNonce",
      "outputs": [
        {
          "internalType": "uint64",
          "name": "",
          "type": "uint64"
        }
      ],
      "stateMutability": "view",
      "type": "function"
    },
    {
      "inputs": [],
      "name": "globalIssuanceCouncil",
      "outputs": [
        {
          "internalType": "uint256",
          "name": "totalWeight",
          "type": "uint256"
        },
        {
          "internalType": "uint256",
          "name": "memberCount",
          "type": "uint256"
        },
        {
          "internalType": "bytes32",
          "name": "councilHash",
          "type": "bytes32"
        },
        {
          "internalType": "uint128",
          "name": "epochMicrogonsPerArgonot",
          "type": "uint128"
        }
      ],
      "stateMutability": "view",
      "type": "function"
    },
    {
      "inputs": [],
      "name": "guardian",
      "outputs": [
        {
          "internalType": "address",
          "name": "",
          "type": "address"
        }
      ],
      "stateMutability": "view",
      "type": "function"
    },
    {
      "inputs": [
        {
          "internalType": "address",
          "name": "adminSafe",
          "type": "address"
        },
        {
          "internalType": "address",
          "name": "guardianAddress",
          "type": "address"
        },
        {
          "internalType": "bytes32",
          "name": "councilHash",
          "type": "bytes32"
        },
        {
          "internalType": "uint256",
          "name": "councilMemberCount",
          "type": "uint256"
        },
        {
          "internalType": "uint256",
          "name": "councilTotalWeight",
          "type": "uint256"
        },
        {
          "internalType": "uint128",
          "name": "initialMicrogonsPerArgonot",
          "type": "uint128"
        }
      ],
      "name": "initialize",
      "outputs": [],
      "stateMutability": "nonpayable",
      "type": "function"
    },
    {
      "inputs": [],
      "name": "latestActivityBlockLocatorIndex",
      "outputs": [
        {
          "internalType": "uint64",
          "name": "",
          "type": "uint64"
        }
      ],
      "stateMutability": "view",
      "type": "function"
    },
    {
      "inputs": [
        {
          "components": [
            {
              "internalType": "address[]",
              "name": "recipients",
              "type": "address[]"
            },
            {
              "internalType": "uint256[]",
              "name": "amounts",
              "type": "uint256[]"
            }
          ],
          "internalType": "struct MintingGateway.MigrationAssetDistribution",
          "name": "argonMigration",
          "type": "tuple"
        },
        {
          "components": [
            {
              "internalType": "address[]",
              "name": "recipients",
              "type": "address[]"
            },
            {
              "internalType": "uint256[]",
              "name": "amounts",
              "type": "uint256[]"
            }
          ],
          "internalType": "struct MintingGateway.MigrationAssetDistribution",
          "name": "argonotMigration",
          "type": "tuple"
        }
      ],
      "name": "migrate",
      "outputs": [],
      "stateMutability": "nonpayable",
      "type": "function"
    },
    {
      "inputs": [],
      "name": "migrationCompleted",
      "outputs": [
        {
          "internalType": "bool",
          "name": "",
          "type": "bool"
        }
      ],
      "stateMutability": "view",
      "type": "function"
    },
    {
      "inputs": [
        {
          "internalType": "address",
          "name": "signingKey",
          "type": "address"
        }
      ],
      "name": "mintingAuthorityCollateralRemaining",
      "outputs": [
        {
          "internalType": "uint128",
          "name": "microgonCollateral",
          "type": "uint128"
        },
        {
          "internalType": "uint128",
          "name": "micronotCollateral",
          "type": "uint128"
        }
      ],
      "stateMutability": "view",
      "type": "function"
    },
    {
      "inputs": [],
      "name": "owner",
      "outputs": [
        {
          "internalType": "address",
          "name": "",
          "type": "address"
        }
      ],
      "stateMutability": "view",
      "type": "function"
    },
    {
      "inputs": [],
      "name": "pause",
      "outputs": [],
      "stateMutability": "nonpayable",
      "type": "function"
    },
    {
      "inputs": [],
      "name": "paused",
      "outputs": [
        {
          "internalType": "bool",
          "name": "",
          "type": "bool"
        }
      ],
      "stateMutability": "view",
      "type": "function"
    },
    {
      "inputs": [],
      "name": "previousGlobalIssuanceCouncilHash",
      "outputs": [
        {
          "internalType": "bytes32",
          "name": "",
          "type": "bytes32"
        }
      ],
      "stateMutability": "view",
      "type": "function"
    },
    {
      "inputs": [],
      "name": "previousMicrogonsPerArgonot",
      "outputs": [
        {
          "internalType": "uint128",
          "name": "",
          "type": "uint128"
        }
      ],
      "stateMutability": "view",
      "type": "function"
    },
    {
      "inputs": [],
      "name": "renounceOwnership",
      "outputs": [],
      "stateMutability": "nonpayable",
      "type": "function"
    },
    {
      "inputs": [
        {
          "internalType": "address",
          "name": "guardianAddress",
          "type": "address"
        }
      ],
      "name": "setGuardian",
      "outputs": [],
      "stateMutability": "nonpayable",
      "type": "function"
    },
    {
      "inputs": [
        {
          "internalType": "address",
          "name": "token",
          "type": "address"
        },
        {
          "internalType": "uint128",
          "name": "amount",
          "type": "uint128"
        },
        {
          "internalType": "bytes32",
          "name": "argonAccountId",
          "type": "bytes32"
        },
        {
          "internalType": "uint256",
          "name": "deadline",
          "type": "uint256"
        },
        {
          "internalType": "uint8",
          "name": "v",
          "type": "uint8"
        },
        {
          "internalType": "bytes32",
          "name": "r",
          "type": "bytes32"
        },
        {
          "internalType": "bytes32",
          "name": "s",
          "type": "bytes32"
        }
      ],
      "name": "startTransferToArgon",
      "outputs": [],
      "stateMutability": "nonpayable",
      "type": "function"
    },
    {
      "inputs": [
        {
          "internalType": "uint128",
          "name": "amount",
          "type": "uint128"
        }
      ],
      "name": "toTokenAmount",
      "outputs": [
        {
          "internalType": "uint256",
          "name": "",
          "type": "uint256"
        }
      ],
      "stateMutability": "pure",
      "type": "function"
    },
    {
      "inputs": [
        {
          "internalType": "address",
          "name": "newOwner",
          "type": "address"
        }
      ],
      "name": "transferOwnership",
      "outputs": [],
      "stateMutability": "nonpayable",
      "type": "function"
    },
    {
      "inputs": [],
      "name": "unpause",
      "outputs": [],
      "stateMutability": "nonpayable",
      "type": "function"
    }
  ],
  "bytecode": "0x60c060405234801562000010575f80fd5b50604051620044e7380380620044e7833981016040819052620000339162000128565b6001600160a01b03808316608052811660a0526200005062000058565b50506200015e565b7ff0c57e16840df040f15088dc2f81fe391c3923bec73e23a9662efc9c229c6a00805468010000000000000000900460ff1615620000a95760405163f92ee8a960e01b815260040160405180910390fd5b80546001600160401b0390811614620001095780546001600160401b0319166001600160401b0390811782556040519081527fc7f505b2f371ae2175ee4913f4499e1f2633a7b5936321eed1cdaeb6115181d29060200160405180910390a15b50565b80516001600160a01b038116811462000123575f80fd5b919050565b5f80604083850312156200013a575f80fd5b62000145836200010c565b915062000155602084016200010c565b90509250929050565b60805160a051614328620001bf5f395f81816102ac0152818161106f01528181611131015281816119ed0152611a7f01525f81816104170152818161084901528181610d400152818161102c015281816119bc0152611a4201526143285ff3fe608060405234801561000f575f80fd5b50600436106101fd575f3560e01c806378d350e011610114578063905d031f116100a9578063d68d631111610079578063d68d6311146104e6578063e52580a6146104f9578063ecec10a414610561578063f2fde38b14610574578063fd3d912314610587575f80fd5b8063905d031f1461046f578063a3eb8961146104c2578063beabb591146104cb578063c017c902146104d3575f80fd5b80638456cb59116100e45780638456cb591461043957806389d6b82a146104415780638a0dac4a146104545780638da5cb5b14610467575f80fd5b806378d350e0146103df5780637c9afa67146103e75780637e6f72b71461040957806383a4d59114610412575f80fd5b80633f4ba83a116101955780635c975abb116101655780635c975abb146103875780636c8f3e2c1461039e5780636e2c7769146103b15780636e888c46146103c4578063715018a6146103d7575f80fd5b80633f4ba83a1461034b578063452a93201461035357806359b23872146103655780635b7f415c1461036d575f80fd5b80631e07f89e116101d05780631e07f89e146102a75780632ceeddf5146102e65780632ef29f3b146103065780633167798014610327575f80fd5b806318a8f1f01461020157806318cabf39146102165780631a5d93fd146102295780631c1eeae114610276575b5f80fd5b61021461020f3660046136bf565b61059a565b005b610214610224366004613742565b61071f565b600454600554600654600754610248939291906001600160801b031684565b604080519485526020850193909352918301526001600160801b031660608201526080015b60405180910390f35b5f5461028f90600160a01b90046001600160401b031681565b6040516001600160401b03909116815260200161026d565b6102ce7f000000000000000000000000000000000000000000000000000000000000000081565b6040516001600160a01b03909116815260200161026d565b6102ee610843565b6040516001600160801b03909116815260200161026d565b610319610314366004613773565b6108d1565b60405190815260200161026d565b60035461033b90600160401b900460ff1681565b604051901515815260200161026d565b610214610902565b5f546102ce906001600160a01b031681565b610319610914565b610375601281565b60405160ff909116815260200161026d565b5f805160206142d38339815191525460ff1661033b565b6102146103ac36600461379d565b61092e565b60015461028f906001600160401b031681565b6102146103d23660046137f0565b610feb565b61021461111a565b6102ee61112b565b61033b6103f536600461384f565b600b6020525f908152604090205460ff1681565b61031960085481565b6102ce7f000000000000000000000000000000000000000000000000000000000000000081565b61021461118b565b61021461044f366004613866565b6111e6565b610214610462366004613881565b611322565b6102ce6113a0565b6104a261047d366004613881565b600a6020525f90815260409020546001600160801b0380821691600160801b90041682565b604080516001600160801b0393841681529290911660208301520161026d565b61031960025481565b610375600681565b6102146104e136600461389a565b6113ce565b60035461028f906001600160401b031681565b6105376105073660046138f5565b600c6020525f90815260409020546001600160401b0380821691600160401b8104821691600160801b9091041683565b604080516001600160401b039485168152928416602084015292169181019190915260600161026d565b61021461056f36600461391b565b6115e8565b610214610582366004613881565b61191b565b6009546102ee906001600160801b031681565b6105a2611958565b6105ab87611988565b856001600160801b03165f036105d457604051631f2a200560e01b815260040160405180910390fd5b5f6105de876108d1565b60405163d505accf60e01b8152336004820152306024820152604481018290526064810187905260ff8616608482015260a4810185905260c481018490529091506001600160a01b0389169063d505accf9060e4015f604051808303815f87803b15801561064a575f80fd5b505af115801561065c573d5f803e3d5ffd5b505060405163079cc67960e41b8152336004820152602481018490526001600160a01b038b1692506379cc679091506044015f604051808303815f87803b1580156106a5575f80fd5b505af11580156106b7573d5f803e3d5ffd5b505050505f6106c4611add565b90506001600160a01b038916337f3ab970a848f33363427e47cfbd7a627af0c6e72757f150137e38cef3cee24d938a8a6106fd86611b2d565b60405161070c939291906139f4565b60405180910390a3505050505050505050565b610727611ba2565b5f80806107b86107378580613a18565b808060200260200160405190810160405280939291908181526020018383602002808284375f92019190915250610775925050506020870187613a18565b808060200260200160405190810160405280939291908181526020018383602002808284375f92019190915250506007546001600160801b03169150611bd49050565b6040805160808101825260045481526005546020820152600654918101919091526007546001600160801b0316606082015292955090935091506107fa611cf2565b61080a8484848460600151611d16565b8381604001517f33e53e90d61fdc868629a6234670f92c4445196f3f98ebd71935bbc76c7d915360405160405180910390a35050505050565b5f6108cc7f00000000000000000000000000000000000000000000000000000000000000006001600160a01b03166318160ddd6040518163ffffffff1660e01b8152600401602060405180830381865afa1580156108a3573d5f803e3d5ffd5b505050506040513d601f19601f820116820180604052508101906108c79190613a64565b611d7c565b905090565b5f6108de60066012613a8f565b6108e990600a613b88565b6108fc906001600160801b038416613b96565b92915050565b61090a611ba2565b610912611dcc565b565b61092060066012613a8f565b61092b90600a613b88565b81565b610936611958565b61093f82611e2b565b61095761095260e0840160c08501613881565b611988565b610968610100830160e08401613773565b6001600160801b03165f0361099057604051631f2a200560e01b815260040160405180910390fd5b6109a060c0830160a084016138f5565b6001600160401b03164311156109f157436109c160c0840160a085016138f5565b604051635728c7dd60e11b815260048101929092526001600160401b031660248201526044015b60405180910390fd5b5f6109fb83611e95565b9050610a0681611f93565b5f610a148460600135611fc5565b90505f808080610a248780613a18565b90506001600160401b03811115610a3d57610a3d613bad565b604051908082528060200260200182016040528015610a8657816020015b604080516060810182525f80825260208083018290529282015282525f19909201910181610a5b5790505b5090505f5b610a958880613a18565b9050811015610d355736610aa98980613a18565b83818110610ab957610ab9613bc1565b9050602002810190610acb9190613bd5565b90505f610b11610aff610afa8d610ae56020870187613773565b610af56040880160208901613773565b612017565b6120a4565b610b0c6040850185613bf3565b6120d6565b9050846001600160a01b0316816001600160a01b031611610b45576040516309cf9e4960e11b815260040160405180910390fd5b6001600160a01b0381165f908152600a6020908152604090912090610b6c90840184613773565b81546001600160801b0391821691161080610bac5750610b926040840160208501613773565b81546001600160801b03918216600160801b909104909116105b15610bd5576040516364fc3cd160e11b81526001600160a01b03831660048201526024016109e8565b610be26020840184613773565b815482905f90610bfc9084906001600160801b0316613c35565b92506101000a8154816001600160801b0302191690836001600160801b03160217905550826020016020810190610c339190613773565b81548290601090610c55908490600160801b90046001600160801b0316613c35565b92506101000a8154816001600160801b0302191690836001600160801b03160217905550825f016020810190610c8b9190613773565b610c959089613c5c565b9750610ca76040840160208501613773565b610cb19088613c5c565b96506040518060600160405280836001600160a01b03168152602001845f016020810190610cdf9190613773565b6001600160801b03168152602001846020016020810190610d009190613773565b6001600160801b0316815250858581518110610d1e57610d1e613bc1565b602090810291909101015250935050600101610a8b565b506001600160a01b037f000000000000000000000000000000000000000000000000000000000000000016610d7060e08a0160c08b01613881565b6001600160a01b031603610e27575f610d8b6006600a613b88565b610da16001600160801b03808916908716613b96565b610dab9190613c7c565b90505f610dc1826001600160801b038816613c9b565b9050610dd46101008b0160e08c01613773565b6001600160801b0316811015610e205780610df66101008c0160e08d01613773565b60405162f9825560e61b815260048101929092526001600160801b031660248201526044016109e8565b5050610eb6565b6001600160801b03841615610e4f57604051630994a0f360e11b815260040160405180910390fd5b610e60610100890160e08a01613773565b6001600160801b0316836001600160801b03161015610eb65782610e8b6101008a0160e08b01613773565b60405162f9825560e61b81526001600160801b039283166004820152911660248201526044016109e8565b610ed4865f908152600b60205260409020805460ff19166001179055565b610ee460e0890160c08a01613881565b6001600160a01b03166340c10f19610f0260a08b0160808c01613881565b610f166103146101008d0160e08e01613773565b6040516001600160e01b031960e085901b1681526001600160a01b03909216600483015260248201526044015f604051808303815f87803b158015610f59575f80fd5b505af1158015610f6b573d5f803e3d5ffd5b505050505f610f78611add565b90507f64d79900ed82270f744ae62db527f4e328e336d8b51e77bc72601391fe779d0687610fac60e08c0160c08d01613881565b610fbd6101008d0160e08e01613773565b85610fc786611b2d565b604051610fd8959493929190613cae565b60405180910390a1505050505050505050565b610ff3611ba2565b610ffb611958565b600354600160401b900460ff161561102657604051633dbff3b560e01b815260040160405180910390fd5b5f6110677f00000000000000000000000000000000000000000000000000000000000000006110558580613a18565b6110626020880188613a18565b612100565b90505f6110987f00000000000000000000000000000000000000000000000000000000000000006110558580613a18565b6003805460ff60401b1916600160401b17905590507fc255ddc45163282f24909556f7475ab4ec8eb1d51763b25a4560cee9f43d06456110d88580613a18565b9050836110e58680613a18565b60405161110c94939250869093845260208401929092526040830152606082015260800190565b60405180910390a150505050565b611122611ba2565b6109125f61223f565b5f6108cc7f00000000000000000000000000000000000000000000000000000000000000006001600160a01b03166318160ddd6040518163ffffffff1660e01b8152600401602060405180830381865afa1580156108a3573d5f803e3d5ffd5b5f546001600160a01b031633148015906111be57506111a86113a0565b6001600160a01b0316336001600160a01b031614155b156111de5760405163354de03160e21b81523360048201526024016109e8565b6109126122af565b6111ee611958565b6111f781611e2b565b61120a61095260e0830160c08401613881565b61121b610100820160e08301613773565b6001600160801b03165f0361124357604051631f2a200560e01b815260040160405180910390fd5b61125360c0820160a083016138f5565b6001600160401b0316431161129e574361127360c0830160a084016138f5565b6040516374276dcf60e11b815260048101929092526001600160401b031660248201526044016109e8565b5f6112a882611e95565b90506112b381611f93565b6112d1815f908152600b60205260409020805460ff19166001179055565b5f6112da611add565b90507f3cb8789e9bf6f532eec2bc8ffee9b622fc0d6e6daefb7fb6bb2e2f7b2d62e4528261130783611b2d565b604051611315929190613d46565b60405180910390a1505050565b61132a611ba2565b6001600160a01b0381166113515760405163a91f6a8960e01b815260040160405180910390fd5b5f80546001600160a01b038381166001600160a01b0319831681178455604051919092169283917f064d28d3d3071c5cbc271a261c10c2f0f0d9e319390397101aa0eb23c6bad9099190a35050565b7f9016d09d72d40fdae2fd8ceac6b6234c7706214fd39c1cd1e609a0528c199300546001600160a01b031690565b5f6113d76122f7565b805490915060ff600160401b82041615906001600160401b03165f811580156113fd5750825b90505f826001600160401b031660011480156114185750303b155b905081158015611426575080155b156114445760405163f92ee8a960e01b815260040160405180910390fd5b845467ffffffffffffffff19166001178555831561146e57845460ff60401b1916600160401b1785555b6001600160a01b038b16611495576040516314030c0360e11b815260040160405180910390fd5b6001600160a01b038a166114bc5760405163a91f6a8960e01b815260040160405180910390fd5b8815806114c7575087155b806114d0575086155b156114f05760405163665c282b60e01b81525f60048201526024016109e8565b856001600160801b03165f0361151957604051632440a7dd60e01b815260040160405180910390fd5b6115228b61231f565b61152a612330565b5f80546001600160a01b0319166001600160a01b038c1617905561155089888a89611d16565b600980546001600160801b0319166001600160801b03881617905560405189907fac3566d46c25f65b48d269870da4b9349704c79de13ad49b115532834d7e7ed1905f90a283156115db57845460ff60401b19168555604051600181527fc7f505b2f371ae2175ee4913f4499e1f2633a7b5936321eed1cdaeb6115181d29060200160405180910390a15b5050505050505050505050565b6115f0611958565b811580159061164e575060028383611609600182613d6e565b81811061161857611618613bc1565b905060200281019061162a9190613d81565b61163b906040810190602001613d95565b600281111561164c5761164c613d5a565b145b1561166c5760405163bf3d210b60e01b815260040160405180910390fd5b60065461168c57604051632c1dfd4f60e11b815260040160405180910390fd5b5f61169685612338565b6002549091505f846001600160401b038111156116b5576116b5613bad565b6040519080825280602002602001820160405280156116de578160200160208202803683370190505b5090505f856001600160401b038111156116fa576116fa613bad565b604051908082528060200260200182016040528015611723578160200160208202803683370190505b5090505f611733888885856124ba565b90505f5b8781101561190f573689898381811061175257611752613bc1565b90506020028101906117649190613d81565b600180549192505f91611782916001600160401b0390911690613db3565b90506001600160401b03811661179b60208401846138f5565b6001600160401b0316146117e357806117b760208401846138f5565b604051635efa452960e11b81526001600160401b039283166004820152911660248201526044016109e8565b60026117f56040840160208501613d95565b600281111561180657611806613d5a565b0361181d5761181682888b612721565b9650611905565b5f61182e6040840160208501613d95565b600281111561183f5761183f613d5a565b0361185a576118508289898c61290a565b9098509650611905565b600161186c6040840160208501613d95565b600281111561187d5761187d613d5a565b036118c5576118168289898787148a888151811061189d5761189d613bc1565b60200260200101518a89815181106118b7576118b7613bc1565b60200260200101518f612adb565b6118d56040830160208401613d95565b60028111156118e6576118e6613d5a565b60405163b99607f960e01b815260ff90911660048201526024016109e8565b5050600101611737565b50505050505050505050565b611923611ba2565b6001600160a01b03811661194c57604051631e4fbdf760e01b81525f60048201526024016109e8565b6119558161223f565b50565b5f805160206142d38339815191525460ff16156109125760405163d93c066560e01b815260040160405180910390fd5b6001600160a01b0381166119ba57604051635f8b555b60e11b81526001600160a01b03821660048201526024016109e8565b7f00000000000000000000000000000000000000000000000000000000000000006001600160a01b03161580611a1757507f00000000000000000000000000000000000000000000000000000000000000006001600160a01b0316155b15611a4057604051635f8b555b60e11b81526001600160a01b03821660048201526024016109e8565b7f00000000000000000000000000000000000000000000000000000000000000006001600160a01b0316816001600160a01b031614158015611ab457507f00000000000000000000000000000000000000000000000000000000000000006001600160a01b0316816001600160a01b031614155b1561195557604051635f8b555b60e11b81526001600160a01b03821660048201526024016109e8565b5f8054611afb90600160a01b90046001600160401b03166001613db3565b5f805467ffffffffffffffff60a01b1916600160a01b6001600160401b038416021790559050611b2a81612d6d565b90565b604080516080810182525f808252602082018190529181018290526060810191909152604080516080810182526001600160401b038085168252600154166020820152908101611b7b610843565b6001600160801b03168152602001611b9161112b565b6001600160801b0316905292915050565b33611bab6113a0565b6001600160a01b0316146109125760405163118cdaa760e01b81523360048201526024016109e8565b5f805f85515f03611bfa5760405163665c282b60e01b81525f60048201526024016109e8565b8451865114611c1c5760405163512509d360e11b815260040160405180910390fd5b5f805b8751811015611cd6575f888281518110611c3b57611c3b613bc1565b602002602001015190505f888381518110611c5857611c58613bc1565b602002602001015190505f6001600160a01b0316826001600160a01b03161480611c80575080155b80611c9d5750836001600160a01b0316826001600160a01b031611155b15611cbe5760405163665c282b60e01b8152600481018490526024016109e8565b611cc88187613c9b565b955090925050600101611c1f565b5086519150611ce6878787612f36565b93505093509350939050565b600754600980546001600160801b0319166001600160801b03909216919091179055565b6006548015611d255780611d27565b845b6008555060408051608081018252848152602081018490529081018590526001600160801b039091166060909101819052600492909255600555600691909155600780546001600160801b0319169091179055565b5f80611d8a60066012613a8f565b611d9590600a613b88565b611d9f9084613c7c565b90506001600160801b038111156108fc57604051639940a77560e01b8152600481018290526024016109e8565b611dd4612f4c565b5f805160206142d3833981519152805460ff191681557f5db9ee0a495bf2e6ff9c91a7834c1ba4fdd244a5e8aa4e537bd38aeae4b073aa335b6040516001600160a01b03909116815260200160405180910390a150565b466001600160401b038116611e4660608401604085016138f5565b6001600160401b031614611e915780611e6560608401604085016138f5565b6040516332e3634d60e21b81526001600160401b039283166004820152911660248201526044016109e8565b5050565b5f8135611ea860408401602085016138f5565b611eb860608501604086016138f5565b6060850135611ecd60a0870160808801613881565b611edd60c0880160a089016138f5565b611eed60e0890160c08a01613881565b611efe6101008a0160e08b01613773565b611f106101208b016101008c01613773565b60408051602081019a909a526001600160401b03988916908a0152958716606089015260808801949094526001600160a01b0392831660a0880152941660c086015290921660e08401526001600160801b039182166101008401521661012082015261014001604051602081830303815290604052805190602001209050919050565b5f818152600b602052604090205460ff161561195557604051632910aca360e01b8152600481018290526024016109e8565b6006545f908203611fe15750506007546001600160801b031690565b6008548203611ffb5750506009546001600160801b031690565b60405163d3f2a9df60e01b8152600481018390526024016109e8565b5f7f28bf99522b0d2f26a76cdeda71578156383bbae91175ca503165cfdbbd1ff34a463061204487611e95565b6040805160208101959095528401929092526001600160a01b0316606083015260808201526001600160801b0380851660a0830152831660c082015260e0015b6040516020818303038152906040528051906020012090505b9392505050565b7f19457468657265756d205369676e6564204d6573736167653a0a3332000000005f908152601c91909152603c902090565b5f805f806120e5878787612f7b565b9250925092506120f58282612fc2565b509095945050505050565b5f8382146121215760405163512509d360e11b815260040160405180910390fd5b5f5b84811015612235575f86868381811061213e5761213e613bc1565b90506020020160208101906121539190613881565b90505f85858481811061216857612168613bc1565b60200291909101359150506001600160a01b03821661219d57604051633bca2f5160e21b8152600481018490526024016109e8565b805f036121bd57604051631f2a200560e01b815260040160405180910390fd5b6040516340c10f1960e01b81526001600160a01b038381166004830152602482018390528a16906340c10f19906044015f604051808303815f87803b158015612204575f80fd5b505af1158015612216573d5f803e3d5ffd5b5050505080846122269190613c9b565b93505050806001019050612123565b5095945050505050565b7f9016d09d72d40fdae2fd8ceac6b6234c7706214fd39c1cd1e609a0528c19930080546001600160a01b031981166001600160a01b03848116918217845560405192169182907f8be0079c531659141344cd1fd0a4f28419497f9722a3daafe3b4186f6b6457e0905f90a3505050565b6122b7611958565b5f805160206142d3833981519152805460ff191660011781557f62e78cea01bee320cd4e420270b5ea74000d11b0c9f74754ebdbfc544b05a25833611e0d565b5f807ff0c57e16840df040f15088dc2f81fe391c3923bec73e23a9662efc9c229c6a006108fc565b61232761307a565b6119558161309f565b61091261307a565b61236a6040518060a0016040528060608152602001606081526020015f80191681526020015f81526020015f81525090565b5f80806123b861237a8680613a18565b808060200260200160405190810160405280939291908181526020018383602002808284375f92019190915250610775925050506020880188613a18565b925092509250600460020154831415806123d457506004548214155b806123e157506005548114155b1561240d57600654604051633b21437560e21b81526004810191909152602481018490526044016109e8565b6040805160a08101909152806124238780613a18565b808060200260200160405190810160405280939291908181526020018383602002808284375f9201919091525050509082525060209081019061246890880188613a18565b808060200260200160405190810160405280939291908181526020018383602002808284375f920191909152505050908252506020810194909452604084019290925260609092019190915292915050565b825f816001600160401b038111156124d4576124d4613bad565b6040519080825280602002602001820160405280156124fd578160200160208202803683370190505b5090505f80865b801561256f5761251381613dd3565b9050600289898381811061252957612529613bc1565b905060200281019061253b9190613d81565b61254c906040810190602001613d95565b600281111561255d5761255d613d5a565b1461256a5780945061256f565b612504565b505f5b87811015612715575f89898381811061258d5761258d613bc1565b905060200281019061259f9190613d81565b6125b0906040810190602001613d95565b905060018160028111156125c6576125c6613d5a565b036126055781858563ffffffff16815181106125e4576125e4613bc1565b63ffffffff9092166020928302919091019091015261260284613de8565b93505b5f81600281111561261857612618613d5a565b148061262357508582145b1561270c5789898381811061263a5761263a613bc1565b905060200281019061264c9190613d81565b61265a906060810190613a18565b612665915084613e0a565b925063ffffffff84161561270c575f5b8463ffffffff16811015612704575f86828151811061269657612696613bc1565b602002602001015163ffffffff169050858a82815181106126b9576126b9613bc1565b602002602001019063ffffffff16908163ffffffff1681525050848982815181106126e6576126e6613bc1565b63ffffffff9092166020928302919091019091015250600101612675565b505f93505f92505b50600101612572565b50505050949350505050565b5f806127306040860186613bf3565b81019061273d9190613e7f565b905061274c6060860186613a18565b90506001146127875760016127646060870187613a18565b604051636b01174760e11b815260048101939093526024830152506044016109e8565b61279f61279760208701876138f5565b8251866130a7565b91505f6127dd6127ae846120a4565b6127bb6060890189613a18565b5f8181106127cb576127cb613bc1565b9050602002810190610b0c9190613bf3565b9050815f01516001600160a01b0316816001600160a01b03161461282a578151604051630be4b0e160e01b81526001600160a01b03918216600482015290821660248201526044016109e8565b81516001600160a01b039081165f908152600a602090815260408083208054875190951684529083209290925590916001600160801b0380821692600160801b909204169061287b908a018a6138f5565b6001805467ffffffffffffffff19166001600160401b039290921691909117905560028690555f6128aa611add565b86519091506001600160a01b03167ff92f117a698345a1b681cf04280fb5da65a05a9ac88aaacad3e9ee273ce570fd84848b6128e586611b2d565b6040516128f59493929190613ec6565b60405180910390a25050505050509392505050565b61293c6040518060a0016040528060608152602001606081526020015f80191681526020015f81526020015f81525090565b5f8061294b6040880188613bf3565b8101906129589190613f89565b905080602001516001600160801b03165f0361298757604051632440a7dd60e01b815260040160405180910390fd5b5f805f6129a6845f01515f0151855f0151602001518660200151611bd4565b919450925090506129d96129bd60208c018c6138f5565b60408b015186518051602091820151918901519091908d61310e565b9450612a0b856129ec60608d018d613a18565b6129f5916140a6565b8b5160208d015160608e015160808f0151613143565b612a13611cf2565b612a238383838760200151611d16565b612a3060208b018b6138f5565b6001805467ffffffffffffffff19166001600160401b039290921691909117905560028590555f612a5f611add565b90507fb3dbfeab9c5013403dc2f2300318b92643b1cb9323077d549b4f93bbddded9638489612a8d84611b2d565b604051612a9c93929190614165565b60405180910390a1506040805160a081018252855151815294516020908101519086015284019290925260608301526080820152915094509492505050565b5f80612aea60408a018a613bf3565b810190612af79190614180565b60408101519091506001600160a01b0316612b255760405163611b32ab60e01b815260040160405180910390fd5b80516001600160801b0316158015612b48575060208101516001600160801b0316155b15612b77576040808201519051632edcd91760e21b81526001600160a01b0390911660048201526024016109e8565b63ffffffff85161580612b8e575063ffffffff8416155b15612bbd576040808201519051632edcd91760e21b81526001600160a01b0390911660048201526024016109e8565b6040808201516001600160a01b03165f908152600a6020522080546001600160801b0316151580612bfe57508054600160801b90046001600160801b031615155b15612c2d57604080830151905163cb96603760e01b81526001600160a01b0390911660048201526024016109e8565b612c56612c3d60208c018c6138f5565b8a60400151845f0151856020015186604001518d613188565b92508615612c6f57612c6f836129ec60608d018d613a18565b60408051808201825283516001600160801b0390811682526020808601518216818401908152868501516001600160a01b03165f908152600a835294909420925193518216600160801b0293909116929092179055612cd0908b018b6138f5565b6001805467ffffffffffffffff19166001600160401b039290921691909117905560028390555f612cff611add565b905082604001516001600160a01b03167fc0f81072946eba75f62302dad0fe56dd420d0b9d311e15b61bbe6e056c29908d845f015185602001518a8a8a612d4588611b2d565b604051612d57969594939291906141e9565b60405180910390a2505050979650505050505050565b60035443906001600160401b03165f03612e2f576003805467ffffffffffffffff19166001908117909155604080516060810182526001600160401b03938416815293831660208086018281529286019182525f93909352600c90925292517fd421a5181c571bba3f01190c922c3b2a896fc1d84e86c9f17ac10e67ebef8b5c8054945192518416600160801b0267ffffffffffffffff60801b19938516600160401b026001600160801b031990961692909416919091179390931716179055565b6003546001600160401b039081165f908152600c6020526040902080549091838116911603612e855780546001600160401b03909316600160801b0267ffffffffffffffff60801b199093169290921790915550565b6003545f90612e9e906001600160401b03166001613db3565b600380546001600160401b0392831667ffffffffffffffff19909116811790915560408051606081018252958316865295821660208087018281528789019283525f938452600c9091529690912094518554965191518316600160801b0267ffffffffffffffff60801b19928416600160401b026001600160801b031990981691909316179590951794909416939093179091555050565b5f8383836040516020016120849392919061422a565b5f805160206142d38339815191525460ff1661091257604051638dfc202b60e01b815260040160405180910390fd5b5f80806041849003612faf578435602086013560408701355f1a612fa1898285856131b6565b955095509550505050612fb9565b505f915060029050825b93509350939050565b5f826003811115612fd557612fd5613d5a565b03612fde575050565b6001826003811115612ff257612ff2613d5a565b036130105760405163f645eedf60e01b815260040160405180910390fd5b600282600381111561302457613024613d5a565b036130455760405163fce698f760e01b8152600481018290526024016109e8565b600382600381111561305957613059613d5a565b03611e91576040516335e2f38360e21b8152600481018290526024016109e8565b61308261327e565b61091257604051631afcd79f60e31b815260040160405180910390fd5b61192361307a565b604080517fad7e1df8fff16b907a93b4116c7590060dfa3b9c396a8b815e8290b0dff45cba602082015246918101919091523060608201526001600160401b03841660808201526001600160a01b03831660a082015260c081018290525f9060e001612084565b5f8061311b868686612f36565b905061313588885f8461312f8b8b8b613297565b88613302565b9150505b9695505050505050565b5f80613151888888886133b4565b9150915061316182828686613527565b61317e5760405163079842ab60e41b815260040160405180910390fd5b5050505050505050565b5f6131ab878760016001600160a01b0387166131a58a8a8a61358b565b87613302565b979650505050505050565b5f80807f7fffffffffffffffffffffffffffffff5d576e7357a4501ddfe92f46681b20a08411156131ef57505f91506003905082613274565b604080515f808252602082018084528a905260ff891692820192909252606081018790526080810186905260019060a0016020604051602081039080840390855afa158015613240573d5f803e3d5ffd5b5050604051601f1901519150506001600160a01b03811661326b57505f925060019150829050613274565b92505f91508190505b9450945094915050565b5f6132876122f7565b54600160401b900460ff16919050565b5f7f82ce6440aa5dde11f3613892819b630b62342bacf93e16a292d5c8783aafa4c346306132c6878787612f36565b6040805160208101959095528401929092526001600160a01b0316606083015260808201526001600160801b03831660a082015260c001612084565b5f7f41936771719a172aa959076ca6aafb826eaf332dd0c9e7860901c398ef42da054630898989600281111561333a5761333a613d5a565b6040805160208101979097528601949094526001600160a01b0390921660608501526001600160401b0316608084015260a083015260ff1660c082015260e0810185905261010081018490526101208101839052610140016040516020818303038152906040528051906020012090509695505050505050565b5f805f806133c1886120a4565b90505f805b885181101561351a575f6133f3848b84815181106133e6576133e6613bc1565b60200260200101516135e7565b9050846001600160a01b0316816001600160a01b031611613427576040516309cf9e4960e11b815260040160405180910390fd5b8851831080156134615750806001600160a01b031689848151811061344e5761344e613bc1565b60200260200101516001600160a01b0316105b156134765761346f836142ba565b9250613427565b88518314806134b05750806001600160a01b031689848151811061349c5761349c613bc1565b60200260200101516001600160a01b031614155b156134d15760405163665c282b60e01b8152600481018390526024016109e8565b6134da876142ba565b96508783815181106134ee576134ee613bc1565b6020026020010151866135019190613c9b565b955093508361350f836142ba565b9250506001016133c6565b5050505094509492505050565b5f806135338684613d6e565b905061354084605a613b96565b61354b866064613b96565b1061355a576001915050613583565b6002811115801561357f5750613571846050613b96565b61357c866064613b96565b10155b9150505b949350505050565b5f7f1cd7f89e34f6154d6f8387a08ffafc689e347b8d5809913b07c58a42995dff6646306135ba87878761360f565b6040805160208101959095528401929092526001600160a01b03166060830152608082015260a001612084565b5f805f806135f58686613645565b9250925092506136058282612fc2565b5090949350505050565b604080516001600160801b0380861660208301528416918101919091526001600160a01b03821660608201525f90608001612084565b5f805f835160410361367c576020840151604085015160608601515f1a61366e888285856131b6565b955095509550505050613687565b505081515f91506002905b9250925092565b80356001600160a01b03811681146136a4575f80fd5b919050565b80356001600160801b03811681146136a4575f80fd5b5f805f805f805f60e0888a0312156136d5575f80fd5b6136de8861368e565b96506136ec602089016136a9565b95506040880135945060608801359350608088013560ff8116811461370f575f80fd5b9699959850939692959460a0840135945060c09093013592915050565b5f6040828403121561373c575f80fd5b50919050565b5f60208284031215613752575f80fd5b81356001600160401b03811115613767575f80fd5b6135838482850161372c565b5f60208284031215613783575f80fd5b61209d826136a9565b5f610120828403121561373c575f80fd5b5f8061014083850312156137af575f80fd5b6137b9848461378c565b91506101208301356001600160401b038111156137d4575f80fd5b8301602081860312156137e5575f80fd5b809150509250929050565b5f8060408385031215613801575f80fd5b82356001600160401b0380821115613817575f80fd5b6138238683870161372c565b93506020850135915080821115613838575f80fd5b506138458582860161372c565b9150509250929050565b5f6020828403121561385f575f80fd5b5035919050565b5f6101208284031215613877575f80fd5b61209d838361378c565b5f60208284031215613891575f80fd5b61209d8261368e565b5f805f805f8060c087890312156138af575f80fd5b6138b88761368e565b95506138c66020880161368e565b94506040870135935060608701359250608087013591506138e960a088016136a9565b90509295509295509295565b5f60208284031215613905575f80fd5b81356001600160401b038116811461209d575f80fd5b5f805f806060858703121561392e575f80fd5b84356001600160401b0380821115613944575f80fd5b6139508883890161372c565b95506020870135915080821115613965575f80fd5b818701915087601f830112613978575f80fd5b813581811115613986575f80fd5b8860208260051b850101111561399a575f80fd5b95986020929092019750949560400135945092505050565b6001600160401b038082511683528060208301511660208401525060408101516001600160801b03808216604085015280606084015116606085015250505050565b6001600160801b03841681526020810183905260c0810161358360408301846139b2565b5f808335601e19843603018112613a2d575f80fd5b8301803591506001600160401b03821115613a46575f80fd5b6020019150600581901b3603821315613a5d575f80fd5b9250929050565b5f60208284031215613a74575f80fd5b5051919050565b634e487b7160e01b5f52601160045260245ffd5b60ff82811682821603908111156108fc576108fc613a7b565b600181815b80851115613ae257815f1904821115613ac857613ac8613a7b565b80851615613ad557918102915b93841c9390800290613aad565b509250929050565b5f82613af8575060016108fc565b81613b0457505f6108fc565b8160018114613b1a5760028114613b2457613b40565b60019150506108fc565b60ff841115613b3557613b35613a7b565b50506001821b6108fc565b5060208310610133831016604e8410600b8410161715613b63575081810a6108fc565b613b6d8383613aa8565b805f1904821115613b8057613b80613a7b565b029392505050565b5f61209d60ff841683613aea565b80820281158282048414176108fc576108fc613a7b565b634e487b7160e01b5f52604160045260245ffd5b634e487b7160e01b5f52603260045260245ffd5b5f8235605e19833603018112613be9575f80fd5b9190910192915050565b5f808335601e19843603018112613c08575f80fd5b8301803591506001600160401b03821115613c21575f80fd5b602001915036819003821315613a5d575f80fd5b6001600160801b03828116828216039080821115613c5557613c55613a7b565b5092915050565b6001600160801b03818116838216019080821115613c5557613c55613a7b565b5f82613c9657634e487b7160e01b5f52601260045260245ffd5b500490565b808201808211156108fc576108fc613a7b565b5f610100808301888452602060018060a01b03808a16602087015260406001600160801b03808b16604089015260608660608a01528596508a518087526101208a01975060208c0196505f5b81811015613d2d578751805187168a52878101518516888b01528501518416858a01529782019796860196600101613cfa565b50505050505050508091505061313960808301846139b2565b82815260a0810161209d60208301846139b2565b634e487b7160e01b5f52602160045260245ffd5b818103818111156108fc576108fc613a7b565b5f8235607e19833603018112613be9575f80fd5b5f60208284031215613da5575f80fd5b81356003811061209d575f80fd5b6001600160401b03818116838216019080821115613c5557613c55613a7b565b5f81613de157613de1613a7b565b505f190190565b5f63ffffffff808316818103613e0057613e00613a7b565b6001019392505050565b63ffffffff818116838216019080821115613c5557613c55613a7b565b604080519081016001600160401b0381118282101715613e4957613e49613bad565b60405290565b604051601f8201601f191681016001600160401b0381118282101715613e7757613e77613bad565b604052919050565b5f60208284031215613e8f575f80fd5b604051602081018181106001600160401b0382111715613eb157613eb1613bad565b604052613ebd8361368e565b81529392505050565b6001600160801b038581168252841660208201526040810183905260e08101613ef260608301846139b2565b95945050505050565b5f6001600160401b03821115613f1357613f13613bad565b5060051b60200190565b5f82601f830112613f2c575f80fd5b81356020613f41613f3c83613efb565b613e4f565b8083825260208201915060208460051b870101935086841115613f62575f80fd5b602086015b84811015613f7e5780358352918301918301613f67565b509695505050505050565b5f6020808385031215613f9a575f80fd5b82356001600160401b0380821115613fb0575f80fd5b9084019060408287031215613fc3575f80fd5b613fcb613e27565b823582811115613fd9575f80fd5b830160408189031215613fea575f80fd5b613ff2613e27565b813584811115614000575f80fd5b8201601f81018a13614010575f80fd5b803561401e613f3c82613efb565b81815260059190911b8201880190888101908c83111561403c575f80fd5b928901925b82841015614061576140528461368e565b82529289019290890190614041565b84525050508186013584811115614076575f80fd5b6140828a828501613f1d565b82880152508252506140958385016136a9565b848201528094505050505092915050565b5f6140b3613f3c84613efb565b80848252602080830192508560051b8501368111156140d0575f80fd5b855b818110156141595780356001600160401b03808211156140f0575f80fd5b90880190601f3681840112614103575f80fd5b82358281111561411557614115613bad565b614126818301601f19168801613e4f565b9250808352368782860101111561413b575f80fd5b80878501888501375f908301870152508652509382019382016140d2565b50919695505050505050565b8381526020810183905260c0810161358360408301846139b2565b5f60608284031215614190575f80fd5b604051606081018181106001600160401b03821117156141b2576141b2613bad565b6040526141be836136a9565b81526141cc602084016136a9565b60208201526141dd6040840161368e565b60408201529392505050565b6001600160801b0387811682528616602082015263ffffffff8581166040830152841660608201526080810183905261012081016131ab60a08301846139b2565b606080825284519082018190525f906020906080840190828801845b8281101561426b5781516001600160a01b031684529284019290840190600101614246565b505050838103828501528551808252868301918301905f5b8181101561429f57835183529284019291840191600101614283565b50506001600160801b03861660408601529250613583915050565b5f600182016142cb576142cb613a7b565b506001019056fecd5ed15c6e187e77e9aee88184c21f4f2182ab5827cb3b7e07fbedcd63f03300a2646970667358221220ba13b15a2b042652410a27461d594bc934f02554ab157ddd8a5d3afad2d1857364736f6c63430008180033",
  "linkReferences": {},
  "deployedLinkReferences": {},
  "immutableReferences": {
    "7414": [
      {
        "length": 32,
        "start": 1047
      },
      {
        "length": 32,
        "start": 2121
      },
      {
        "length": 32,
        "start": 3392
      },
      {
        "length": 32,
        "start": 4140
      },
      {
        "length": 32,
        "start": 6588
      },
      {
        "length": 32,
        "start": 6722
      }
    ],
    "7417": [
      {
        "length": 32,
        "start": 684
      },
      {
        "length": 32,
        "start": 4207
      },
      {
        "length": 32,
        "start": 4401
      },
      {
        "length": 32,
        "start": 6637
      },
      {
        "length": 32,
        "start": 6783
      }
    ]
  },
  "inputSourceName": "project/contracts/MintingGateway.sol",
  "buildInfoId": "solc-0_8_24-aec5d3c37ce49f92fd993f74fd34b956dd6b9b88"
}