{
  "_format": "hh3-artifact-1",
  "contractName": "MintingGateway",
  "sourceName": "contracts/MintingGateway.sol",
  "abi": [
    {
      "inputs": [
        {
          "internalType": "address",
          "name": "argonTokenAddress",
          "type": "address"
        },
        {
          "internalType": "address",
          "name": "argonotTokenAddress",
          "type": "address"
        }
      ],
      "stateMutability": "nonpayable",
      "type": "constructor"
    },
    {
      "inputs": [],
      "name": "ArrayLengthMismatch",
      "type": "error"
    },
    {
      "inputs": [],
      "name": "ECDSAInvalidSignature",
      "type": "error"
    },
    {
      "inputs": [
        {
          "internalType": "uint256",
          "name": "length",
          "type": "uint256"
        }
      ],
      "name": "ECDSAInvalidSignatureLength",
      "type": "error"
    },
    {
      "inputs": [
        {
          "internalType": "bytes32",
          "name": "s",
          "type": "bytes32"
        }
      ],
      "name": "ECDSAInvalidSignatureS",
      "type": "error"
    },
    {
      "inputs": [],
      "name": "EnforcedPause",
      "type": "error"
    },
    {
      "inputs": [],
      "name": "ExpectedPause",
      "type": "error"
    },
    {
      "inputs": [],
      "name": "GlobalIssuanceCouncilNotBootstrapped",
      "type": "error"
    },
    {
      "inputs": [],
      "name": "GlobalIssuanceCouncilQuorumNotMet",
      "type": "error"
    },
    {
      "inputs": [
        {
          "internalType": "uint256",
          "name": "authorized",
          "type": "uint256"
        },
        {
          "internalType": "uint256",
          "name": "required",
          "type": "uint256"
        }
      ],
      "name": "InsufficientAuthorizedCollateral",
      "type": "error"
    },
    {
      "inputs": [
        {
          "internalType": "uint64",
          "name": "expected",
          "type": "uint64"
        },
        {
          "internalType": "uint64",
          "name": "provided",
          "type": "uint64"
        }
      ],
      "name": "InvalidChainId",
      "type": "error"
    },
    {
      "inputs": [
        {
          "internalType": "bytes32",
          "name": "expected",
          "type": "bytes32"
        },
        {
          "internalType": "bytes32",
          "name": "provided",
          "type": "bytes32"
        }
      ],
      "name": "InvalidCurrentCouncilSnapshot",
      "type": "error"
    },
    {
      "inputs": [
        {
          "internalType": "uint256",
          "name": "index",
          "type": "uint256"
        }
      ],
      "name": "InvalidGlobalIssuanceCouncilMember",
      "type": "error"
    },
    {
      "inputs": [],
      "name": "InvalidInitialization",
      "type": "error"
    },
    {
      "inputs": [],
      "name": "InvalidMicrogonCollateralForArgonotPayout",
      "type": "error"
    },
    {
      "inputs": [
        {
          "internalType": "address",
          "name": "signingKey",
          "type": "address"
        }
      ],
      "name": "InvalidMintingAuthority",
      "type": "error"
    },
    {
      "inputs": [
        {
          "internalType": "uint64",
          "name": "expected",
          "type": "uint64"
        },
        {
          "internalType": "uint64",
          "name": "provided",
          "type": "uint64"
        }
      ],
      "name": "InvalidQueueNonce",
      "type": "error"
    },
    {
      "inputs": [
        {
          "internalType": "uint256",
          "name": "expected",
          "type": "uint256"
        },
        {
          "internalType": "uint256",
          "name": "provided",
          "type": "uint256"
        }
      ],
      "name": "InvalidSignatureCount",
      "type": "error"
    },
    {
      "inputs": [],
      "name": "InvalidSignatureOrder",
      "type": "error"
    },
    {
      "inputs": [
        {
          "internalType": "uint128",
          "name": "maxRate",
          "type": "uint128"
        },
        {
          "internalType": "uint128",
          "name": "providedRate",
          "type": "uint128"
        }
      ],
      "name": "InvalidTransferOutRate",
      "type": "error"
    },
    {
      "inputs": [
        {
          "internalType": "uint8",
          "name": "kind",
          "type": "uint8"
        }
      ],
      "name": "InvalidUpdateKind",
      "type": "error"
    },
    {
      "inputs": [],
      "name": "MigrationAlreadyCompleted",
      "type": "error"
    },
    {
      "inputs": [
        {
          "internalType": "address",
          "name": "signingKey",
          "type": "address"
        }
      ],
      "name": "MintingAuthorityAlreadyActive",
      "type": "error"
    },
    {
      "inputs": [
        {
          "internalType": "address",
          "name": "signingKey",
          "type": "address"
        }
      ],
      "name": "MintingAuthorityTransferCapacityExceeded",
      "type": "error"
    },
    {
      "inputs": [
        {
          "internalType": "address",
          "name": "caller",
          "type": "address"
        }
      ],
      "name": "NotGuardianOrOwner",
      "type": "error"
    },
    {
      "inputs": [],
      "name": "NotInitializing",
      "type": "error"
    },
    {
      "inputs": [
        {
          "internalType": "address",
          "name": "owner",
          "type": "address"
        }
      ],
      "name": "OwnableInvalidOwner",
      "type": "error"
    },
    {
      "inputs": [
        {
          "internalType": "address",
          "name": "account",
          "type": "address"
        }
      ],
      "name": "OwnableUnauthorizedAccount",
      "type": "error"
    },
    {
      "inputs": [
        {
          "internalType": "uint256",
          "name": "amount",
          "type": "uint256"
        }
      ],
      "name": "RuntimeAmountOverflow",
      "type": "error"
    },
    {
      "inputs": [
        {
          "internalType": "uint256",
          "name": "maxAllowed",
          "type": "uint256"
        },
        {
          "internalType": "uint256",
          "name": "provided",
          "type": "uint256"
        }
      ],
      "name": "TooManyGatewayUpdates",
      "type": "error"
    },
    {
      "inputs": [
        {
          "internalType": "uint256",
          "name": "maxAllowed",
          "type": "uint256"
        },
        {
          "internalType": "uint256",
          "name": "provided",
          "type": "uint256"
        }
      ],
      "name": "TooManyMintingAuthorizations",
      "type": "error"
    },
    {
      "inputs": [
        {
          "internalType": "bytes32",
          "name": "transferId",
          "type": "bytes32"
        }
      ],
      "name": "TransferOutOfArgonAlreadyFinalized",
      "type": "error"
    },
    {
      "inputs": [
        {
          "internalType": "uint256",
          "name": "currentBlock",
          "type": "uint256"
        },
        {
          "internalType": "uint256",
          "name": "validUntilBlock",
          "type": "uint256"
        }
      ],
      "name": "TransferOutOfArgonExpired",
      "type": "error"
    },
    {
      "inputs": [
        {
          "internalType": "uint256",
          "name": "currentBlock",
          "type": "uint256"
        },
        {
          "internalType": "uint256",
          "name": "validUntilBlock",
          "type": "uint256"
        }
      ],
      "name": "TransferOutOfArgonNotExpired",
      "type": "error"
    },
    {
      "inputs": [
        {
          "internalType": "address",
          "name": "token",
          "type": "address"
        }
      ],
      "name": "UnsupportedToken",
      "type": "error"
    },
    {
      "inputs": [],
      "name": "ZeroAdminSafe",
      "type": "error"
    },
    {
      "inputs": [],
      "name": "ZeroAmount",
      "type": "error"
    },
    {
      "inputs": [],
      "name": "ZeroGuardian",
      "type": "error"
    },
    {
      "inputs": [],
      "name": "ZeroMicrogonsPerArgonot",
      "type": "error"
    },
    {
      "inputs": [
        {
          "internalType": "uint256",
          "name": "index",
          "type": "uint256"
        }
      ],
      "name": "ZeroRecipient",
      "type": "error"
    },
    {
      "inputs": [],
      "name": "ZeroSigningKey",
      "type": "error"
    },
    {
      "anonymous": false,
      "inputs": [
        {
          "indexed": true,
          "internalType": "bytes32",
          "name": "councilHash",
          "type": "bytes32"
        }
      ],
      "name": "GlobalIssuanceCouncilBootstrapped",
      "type": "event"
    },
    {
      "anonymous": false,
      "inputs": [
        {
          "indexed": true,
          "internalType": "bytes32",
          "name": "previousCouncilHash",
          "type": "bytes32"
        },
        {
          "indexed": true,
          "internalType": "bytes32",
          "name": "councilHash",
          "type": "bytes32"
        }
      ],
      "name": "GlobalIssuanceCouncilForceUpdated",
      "type": "event"
    },
    {
      "anonymous": false,
      "inputs": [
        {
          "indexed": false,
          "internalType": "bytes32",
          "name": "councilHash",
          "type": "bytes32"
        },
        {
          "indexed": false,
          "internalType": "bytes32",
          "name": "approvalHash",
          "type": "bytes32"
        },
        {
          "indexed": false,
          "internalType": "bytes32",
          "name": "relayerArgonAccountId",
          "type": "bytes32"
        },
        {
          "components": [
            {
              "internalType": "uint64",
              "name": "gatewayActivityNonce",
              "type": "uint64"
            },
            {
              "internalType": "uint64",
              "name": "argonApprovalsNonce",
              "type": "uint64"
            },
            {
              "internalType": "uint128",
              "name": "argonCirculation",
              "type": "uint128"
            },
            {
              "internalType": "uint128",
              "name": "argonotCirculation",
              "type": "uint128"
            }
          ],
          "indexed": false,
          "internalType": "struct MintingGateway.GatewayActivityState",
          "name": "gatewayState",
          "type": "tuple"
        }
      ],
      "name": "GlobalIssuanceCouncilRotated",
      "type": "event"
    },
    {
      "anonymous": false,
      "inputs": [
        {
          "indexed": true,
          "internalType": "address",
          "name": "previousGuardian",
          "type": "address"
        },
        {
          "indexed": true,
          "internalType": "address",
          "name": "newGuardian",
          "type": "address"
        }
      ],
      "name": "GuardianUpdated",
      "type": "event"
    },
    {
      "anonymous": false,
      "inputs": [
        {
          "indexed": false,
          "internalType": "uint64",
          "name": "version",
          "type": "uint64"
        }
      ],
      "name": "Initialized",
      "type": "event"
    },
    {
      "anonymous": false,
      "inputs": [
        {
          "indexed": false,
          "internalType": "uint256",
          "name": "argonRecipientCount",
          "type": "uint256"
        },
        {
          "indexed": false,
          "internalType": "uint256",
          "name": "argonTotalAmount",
          "type": "uint256"
        },
        {
          "indexed": false,
          "internalType": "uint256",
          "name": "argonotRecipientCount",
          "type": "uint256"
        },
        {
          "indexed": false,
          "internalType": "uint256",
          "name": "argonotTotalAmount",
          "type": "uint256"
        }
      ],
      "name": "MigrationCompleted",
      "type": "event"
    },
    {
      "anonymous": false,
      "inputs": [
        {
          "indexed": true,
          "internalType": "address",
          "name": "signingKey",
          "type": "address"
        },
        {
          "indexed": false,
          "internalType": "uint128",
          "name": "microgonCollateral",
          "type": "uint128"
        },
        {
          "indexed": false,
          "internalType": "uint128",
          "name": "micronotCollateral",
          "type": "uint128"
        },
        {
          "indexed": false,
          "internalType": "uint32",
          "name": "coactivationCount",
          "type": "uint32"
        },
        {
          "indexed": false,
          "internalType": "uint32",
          "name": "sharedSignatureCount",
          "type": "uint32"
        },
        {
          "indexed": false,
          "internalType": "bytes32",
          "name": "approvalHash",
          "type": "bytes32"
        },
        {
          "indexed": false,
          "internalType": "bytes32",
          "name": "relayerArgonAccountId",
          "type": "bytes32"
        },
        {
          "components": [
            {
              "internalType": "uint64",
              "name": "gatewayActivityNonce",
              "type": "uint64"
            },
            {
              "internalType": "uint64",
              "name": "argonApprovalsNonce",
              "type": "uint64"
            },
            {
              "internalType": "uint128",
              "name": "argonCirculation",
              "type": "uint128"
            },
            {
              "internalType": "uint128",
              "name": "argonotCirculation",
              "type": "uint128"
            }
          ],
          "indexed": false,
          "internalType": "struct MintingGateway.GatewayActivityState",
          "name": "gatewayState",
          "type": "tuple"
        }
      ],
      "name": "MintingAuthorityActivated",
      "type": "event"
    },
    {
      "anonymous": false,
      "inputs": [
        {
          "indexed": true,
          "internalType": "address",
          "name": "signingKey",
          "type": "address"
        },
        {
          "indexed": false,
          "internalType": "uint128",
          "name": "microgonCollateral",
          "type": "uint128"
        },
        {
          "indexed": false,
          "internalType": "uint128",
          "name": "micronotCollateral",
          "type": "uint128"
        },
        {
          "indexed": false,
          "internalType": "bytes32",
          "name": "approvalHash",
          "type": "bytes32"
        },
        {
          "indexed": false,
          "internalType": "bytes32",
          "name": "relayerArgonAccountId",
          "type": "bytes32"
        },
        {
          "components": [
            {
              "internalType": "uint64",
              "name": "gatewayActivityNonce",
              "type": "uint64"
            },
            {
              "internalType": "uint64",
              "name": "argonApprovalsNonce",
              "type": "uint64"
            },
            {
              "internalType": "uint128",
              "name": "argonCirculation",
              "type": "uint128"
            },
            {
              "internalType": "uint128",
              "name": "argonotCirculation",
              "type": "uint128"
            }
          ],
          "indexed": false,
          "internalType": "struct MintingGateway.GatewayActivityState",
          "name": "gatewayState",
          "type": "tuple"
        }
      ],
      "name": "MintingAuthorityDeactivated",
      "type": "event"
    },
    {
      "anonymous": false,
      "inputs": [
        {
          "indexed": true,
          "internalType": "address",
          "name": "previousOwner",
          "type": "address"
        },
        {
          "indexed": true,
          "internalType": "address",
          "name": "newOwner",
          "type": "address"
        }
      ],
      "name": "OwnershipTransferred",
      "type": "event"
    },
    {
      "anonymous": false,
      "inputs": [
        {
          "indexed": false,
          "internalType": "address",
          "name": "account",
          "type": "address"
        }
      ],
      "name": "Paused",
      "type": "event"
    },
    {
      "anonymous": false,
      "inputs": [
        {
          "indexed": false,
          "internalType": "bytes32",
          "name": "transferId",
          "type": "bytes32"
        },
        {
          "components": [
            {
              "internalType": "uint64",
              "name": "gatewayActivityNonce",
              "type": "uint64"
            },
            {
              "internalType": "uint64",
              "name": "argonApprovalsNonce",
              "type": "uint64"
            },
            {
              "internalType": "uint128",
              "name": "argonCirculation",
              "type": "uint128"
            },
            {
              "internalType": "uint128",
              "name": "argonotCirculation",
              "type": "uint128"
            }
          ],
          "indexed": false,
          "internalType": "struct MintingGateway.GatewayActivityState",
          "name": "gatewayState",
          "type": "tuple"
        }
      ],
      "name": "TransferOutOfArgonCanceled",
      "type": "event"
    },
    {
      "anonymous": false,
      "inputs": [
        {
          "indexed": false,
          "internalType": "bytes32",
          "name": "transferId",
          "type": "bytes32"
        },
        {
          "indexed": false,
          "internalType": "address",
          "name": "token",
          "type": "address"
        },
        {
          "indexed": false,
          "internalType": "uint128",
          "name": "amount",
          "type": "uint128"
        },
        {
          "components": [
            {
              "internalType": "address",
              "name": "signingKey",
              "type": "address"
            },
            {
              "internalType": "uint128",
              "name": "microgonCollateral",
              "type": "uint128"
            },
            {
              "internalType": "uint128",
              "name": "micronotCollateral",
              "type": "uint128"
            }
          ],
          "indexed": false,
          "internalType": "struct MintingGateway.MintingAuthorityCollateral[]",
          "name": "mintingCollateral",
          "type": "tuple[]"
        },
        {
          "components": [
            {
              "internalType": "uint64",
              "name": "gatewayActivityNonce",
              "type": "uint64"
            },
            {
              "internalType": "uint64",
              "name": "argonApprovalsNonce",
              "type": "uint64"
            },
            {
              "internalType": "uint128",
              "name": "argonCirculation",
              "type": "uint128"
            },
            {
              "internalType": "uint128",
              "name": "argonotCirculation",
              "type": "uint128"
            }
          ],
          "indexed": false,
          "internalType": "struct MintingGateway.GatewayActivityState",
          "name": "gatewayState",
          "type": "tuple"
        }
      ],
      "name": "TransferOutOfArgonFinalized",
      "type": "event"
    },
    {
      "anonymous": false,
      "inputs": [
        {
          "indexed": true,
          "internalType": "address",
          "name": "from",
          "type": "address"
        },
        {
          "indexed": true,
          "internalType": "address",
          "name": "token",
          "type": "address"
        },
        {
          "indexed": false,
          "internalType": "uint128",
          "name": "amount",
          "type": "uint128"
        },
        {
          "indexed": false,
          "internalType": "bytes32",
          "name": "argonAccountId",
          "type": "bytes32"
        },
        {
          "components": [
            {
              "internalType": "uint64",
              "name": "gatewayActivityNonce",
              "type": "uint64"
            },
            {
              "internalType": "uint64",
              "name": "argonApprovalsNonce",
              "type": "uint64"
            },
            {
              "internalType": "uint128",
              "name": "argonCirculation",
              "type": "uint128"
            },
            {
              "internalType": "uint128",
              "name": "argonotCirculation",
              "type": "uint128"
            }
          ],
          "indexed": false,
          "internalType": "struct MintingGateway.GatewayActivityState",
          "name": "gatewayState",
          "type": "tuple"
        }
      ],
      "name": "TransferToArgonStarted",
      "type": "event"
    },
    {
      "anonymous": false,
      "inputs": [
        {
          "indexed": false,
          "internalType": "address",
          "name": "account",
          "type": "address"
        }
      ],
      "name": "Unpaused",
      "type": "event"
    },
    {
      "inputs": [],
      "name": "ACTIVITY_HASH_VERSION",
      "outputs": [
        {
          "internalType": "uint8",
          "name": "",
          "type": "uint8"
        }
      ],
      "stateMutability": "view",
      "type": "function"
    },
    {
      "inputs": [],
      "name": "MAX_GATEWAY_UPDATES_PER_BATCH",
      "outputs": [
        {
          "internalType": "uint256",
          "name": "",
          "type": "uint256"
        }
      ],
      "stateMutability": "view",
      "type": "function"
    },
    {
      "inputs": [],
      "name": "MAX_MINTING_AUTHORIZATIONS_PER_TRANSFER",
      "outputs": [
        {
          "internalType": "uint256",
          "name": "",
          "type": "uint256"
        }
      ],
      "stateMutability": "view",
      "type": "function"
    },
    {
      "inputs": [],
      "name": "RUNTIME_DECIMALS",
      "outputs": [
        {
          "internalType": "uint8",
          "name": "",
          "type": "uint8"
        }
      ],
      "stateMutability": "view",
      "type": "function"
    },
    {
      "inputs": [],
      "name": "RUNTIME_TO_ERC20_SCALE",
      "outputs": [
        {
          "internalType": "uint256",
          "name": "",
          "type": "uint256"
        }
      ],
      "stateMutability": "view",
      "type": "function"
    },
    {
      "inputs": [],
      "name": "TOKEN_DECIMALS",
      "outputs": [
        {
          "internalType": "uint8",
          "name": "",
          "type": "uint8"
        }
      ],
      "stateMutability": "view",
      "type": "function"
    },
    {
      "inputs": [
        {
          "internalType": "uint64",
          "name": "locatorIndex",
          "type": "uint64"
        }
      ],
      "name": "activityBlockLocators",
      "outputs": [
        {
          "internalType": "uint64",
          "name": "blockNumber",
          "type": "uint64"
        },
        {
          "internalType": "uint64",
          "name": "startGatewayActivityNonce",
          "type": "uint64"
        },
        {
          "internalType": "uint64",
          "name": "endGatewayActivityNonce",
          "type": "uint64"
        },
        {
          "internalType": "bytes32",
          "name": "previousLocatorHash",
          "type": "bytes32"
        },
        {
          "internalType": "bytes32",
          "name": "activityRoot",
          "type": "bytes32"
        }
      ],
      "stateMutability": "view",
      "type": "function"
    },
    {
      "inputs": [],
      "name": "activityBlockLocatorsMappingSlot",
      "outputs": [
        {
          "internalType": "uint256",
          "name": "slot",
          "type": "uint256"
        }
      ],
      "stateMutability": "pure",
      "type": "function"
    },
    {
      "inputs": [
        {
          "components": [
            {
              "internalType": "address[]",
              "name": "signers",
              "type": "address[]"
            },
            {
              "internalType": "uint256[]",
              "name": "weights",
              "type": "uint256[]"
            }
          ],
          "internalType": "struct MintingGateway.CouncilSnapshot",
          "name": "currentCouncil",
          "type": "tuple"
        },
        {
          "components": [
            {
              "internalType": "uint64",
              "name": "queueNonce",
              "type": "uint64"
            },
            {
              "internalType": "enum MintingGateway.GatewayUpdateKind",
              "name": "kind",
              "type": "uint8"
            },
            {
              "internalType": "bytes",
              "name": "payload",
              "type": "bytes"
            },
            {
              "internalType": "bytes[]",
              "name": "signatures",
              "type": "bytes[]"
            }
          ],
          "internalType": "struct MintingGateway.GatewayUpdate[]",
          "name": "updates",
          "type": "tuple[]"
        },
        {
          "internalType": "bytes32",
          "name": "relayerArgonAccountId",
          "type": "bytes32"
        }
      ],
      "name": "applyGatewayUpdates",
      "outputs": [],
      "stateMutability": "nonpayable",
      "type": "function"
    },
    {
      "inputs": [],
      "name": "argonApprovalsHash",
      "outputs": [
        {
          "internalType": "bytes32",
          "name": "",
          "type": "bytes32"
        }
      ],
      "stateMutability": "view",
      "type": "function"
    },
    {
      "inputs": [],
      "name": "argonApprovalsNonce",
      "outputs": [
        {
          "internalType": "uint64",
          "name": "",
          "type": "uint64"
        }
      ],
      "stateMutability": "view",
      "type": "function"
    },
    {
      "inputs": [],
      "name": "argonCirculation",
      "outputs": [
        {
          "internalType": "uint128",
          "name": "",
          "type": "uint128"
        }
      ],
      "stateMutability": "view",
      "type": "function"
    },
    {
      "inputs": [],
      "name": "argonToken",
      "outputs": [
        {
          "internalType": "address",
          "name": "",
          "type": "address"
        }
      ],
      "stateMutability": "view",
      "type": "function"
    },
    {
      "inputs": [],
      "name": "argonotCirculation",
      "outputs": [
        {
          "internalType": "uint128",
          "name": "",
          "type": "uint128"
        }
      ],
      "stateMutability": "view",
      "type": "function"
    },
    {
      "inputs": [],
      "name": "argonotToken",
      "outputs": [
        {
          "internalType": "address",
          "name": "",
          "type": "address"
        }
      ],
      "stateMutability": "view",
      "type": "function"
    },
    {
      "inputs": [
        {
          "components": [
            {
              "internalType": "bytes32",
              "name": "argonAccountId",
              "type": "bytes32"
            },
            {
              "internalType": "uint64",
              "name": "argonTransferNonce",
              "type": "uint64"
            },
            {
              "internalType": "uint64",
              "name": "chainId",
              "type": "uint64"
            },
            {
              "internalType": "uint128",
              "name": "microgonsPerArgonot",
              "type": "uint128"
            },
            {
              "internalType": "address",
              "name": "recipient",
              "type": "address"
            },
            {
              "internalType": "uint64",
              "name": "validUntilBlock",
              "type": "uint64"
            },
            {
              "internalType": "address",
              "name": "token",
              "type": "address"
            },
            {
              "internalType": "uint128",
              "name": "amount",
              "type": "uint128"
            },
            {
              "internalType": "uint128",
              "name": "mintingAuthorityTip",
              "type": "uint128"
            }
          ],
          "internalType": "struct MintingGateway.TransferOutOfArgonRequest",
          "name": "request",
          "type": "tuple"
        }
      ],
      "name": "cancelTransferOutOfArgon",
      "outputs": [],
      "stateMutability": "nonpayable",
      "type": "function"
    },
    {
      "inputs": [
        {
          "components": [
            {
              "internalType": "bytes32",
              "name": "argonAccountId",
              "type": "bytes32"
            },
            {
              "internalType": "uint64",
              "name": "argonTransferNonce",
              "type": "uint64"
            },
            {
              "internalType": "uint64",
              "name": "chainId",
              "type": "uint64"
            },
            {
              "internalType": "uint128",
              "name": "microgonsPerArgonot",
              "type": "uint128"
            },
            {
              "internalType": "address",
              "name": "recipient",
              "type": "address"
            },
            {
              "internalType": "uint64",
              "name": "validUntilBlock",
              "type": "uint64"
            },
            {
              "internalType": "address",
              "name": "token",
              "type": "address"
            },
            {
              "internalType": "uint128",
              "name": "amount",
              "type": "uint128"
            },
            {
              "internalType": "uint128",
              "name": "mintingAuthorityTip",
              "type": "uint128"
            }
          ],
          "internalType": "struct MintingGateway.TransferOutOfArgonRequest",
          "name": "request",
          "type": "tuple"
        },
        {
          "components": [
            {
              "components": [
                {
                  "internalType": "uint128",
                  "name": "microgonCollateral",
                  "type": "uint128"
                },
                {
                  "internalType": "uint128",
                  "name": "micronotCollateral",
                  "type": "uint128"
                },
                {
                  "internalType": "bytes",
                  "name": "signature",
                  "type": "bytes"
                }
              ],
              "internalType": "struct MintingGateway.MintingAuthorization[]",
              "name": "authorizations",
              "type": "tuple[]"
            }
          ],
          "internalType": "struct MintingGateway.TransferOutOfArgonProof",
          "name": "proof",
          "type": "tuple"
        }
      ],
      "name": "finalizeTransferOutOfArgon",
      "outputs": [],
      "stateMutability": "nonpayable",
      "type": "function"
    },
    {
      "inputs": [
        {
          "internalType": "bytes32",
          "name": "transferId",
          "type": "bytes32"
        }
      ],
      "name": "finalizedTransferOutOfArgonIds",
      "outputs": [
        {
          "internalType": "bool",
          "name": "isFinalized",
          "type": "bool"
        }
      ],
      "stateMutability": "view",
      "type": "function"
    },
    {
      "inputs": [
        {
          "components": [
            {
              "internalType": "address[]",
              "name": "signers",
              "type": "address[]"
            },
            {
              "internalType": "uint256[]",
              "name": "weights",
              "type": "uint256[]"
            }
          ],
          "internalType": "struct MintingGateway.CouncilSnapshot",
          "name": "nextCouncil",
          "type": "tuple"
        },
        {
          "internalType": "uint128",
          "name": "nextMicrogonsPerArgonot",
          "type": "uint128"
        }
      ],
      "name": "forceUpdateActiveCouncil",
      "outputs": [],
      "stateMutability": "nonpayable",
      "type": "function"
    },
    {
      "inputs": [],
      "name": "gatewayActivityNonce",
      "outputs": [
        {
          "internalType": "uint64",
          "name": "",
          "type": "uint64"
        }
      ],
      "stateMutability": "view",
      "type": "function"
    },
    {
      "inputs": [],
      "name": "globalIssuanceCouncil",
      "outputs": [
        {
          "internalType": "uint256",
          "name": "totalWeight",
          "type": "uint256"
        },
        {
          "internalType": "uint256",
          "name": "memberCount",
          "type": "uint256"
        },
        {
          "internalType": "bytes32",
          "name": "councilHash",
          "type": "bytes32"
        },
        {
          "internalType": "uint128",
          "name": "epochMicrogonsPerArgonot",
          "type": "uint128"
        }
      ],
      "stateMutability": "view",
      "type": "function"
    },
    {
      "inputs": [],
      "name": "guardian",
      "outputs": [
        {
          "internalType": "address",
          "name": "",
          "type": "address"
        }
      ],
      "stateMutability": "view",
      "type": "function"
    },
    {
      "inputs": [
        {
          "internalType": "address",
          "name": "adminSafe",
          "type": "address"
        },
        {
          "internalType": "address",
          "name": "guardianAddress",
          "type": "address"
        },
        {
          "internalType": "bytes32",
          "name": "councilHash",
          "type": "bytes32"
        },
        {
          "internalType": "uint256",
          "name": "councilMemberCount",
          "type": "uint256"
        },
        {
          "internalType": "uint256",
          "name": "councilTotalWeight",
          "type": "uint256"
        },
        {
          "internalType": "uint128",
          "name": "initialMicrogonsPerArgonot",
          "type": "uint128"
        }
      ],
      "name": "initialize",
      "outputs": [],
      "stateMutability": "nonpayable",
      "type": "function"
    },
    {
      "inputs": [],
      "name": "latestActivityBlockLocatorIndex",
      "outputs": [
        {
          "internalType": "uint64",
          "name": "",
          "type": "uint64"
        }
      ],
      "stateMutability": "view",
      "type": "function"
    },
    {
      "inputs": [],
      "name": "maxTransferOutMicrogonsPerArgonot",
      "outputs": [
        {
          "internalType": "uint128",
          "name": "",
          "type": "uint128"
        }
      ],
      "stateMutability": "view",
      "type": "function"
    },
    {
      "inputs": [
        {
          "components": [
            {
              "internalType": "address[]",
              "name": "recipients",
              "type": "address[]"
            },
            {
              "internalType": "uint256[]",
              "name": "amounts",
              "type": "uint256[]"
            }
          ],
          "internalType": "struct MintingGateway.MigrationAssetDistribution",
          "name": "argonMigration",
          "type": "tuple"
        },
        {
          "components": [
            {
              "internalType": "address[]",
              "name": "recipients",
              "type": "address[]"
            },
            {
              "internalType": "uint256[]",
              "name": "amounts",
              "type": "uint256[]"
            }
          ],
          "internalType": "struct MintingGateway.MigrationAssetDistribution",
          "name": "argonotMigration",
          "type": "tuple"
        }
      ],
      "name": "migrate",
      "outputs": [],
      "stateMutability": "nonpayable",
      "type": "function"
    },
    {
      "inputs": [],
      "name": "migrationCompleted",
      "outputs": [
        {
          "internalType": "bool",
          "name": "",
          "type": "bool"
        }
      ],
      "stateMutability": "view",
      "type": "function"
    },
    {
      "inputs": [
        {
          "internalType": "address",
          "name": "signingKey",
          "type": "address"
        }
      ],
      "name": "mintingAuthorityCollateralRemaining",
      "outputs": [
        {
          "internalType": "uint128",
          "name": "microgonCollateral",
          "type": "uint128"
        },
        {
          "internalType": "uint128",
          "name": "micronotCollateral",
          "type": "uint128"
        }
      ],
      "stateMutability": "view",
      "type": "function"
    },
    {
      "inputs": [],
      "name": "owner",
      "outputs": [
        {
          "internalType": "address",
          "name": "",
          "type": "address"
        }
      ],
      "stateMutability": "view",
      "type": "function"
    },
    {
      "inputs": [],
      "name": "pause",
      "outputs": [],
      "stateMutability": "nonpayable",
      "type": "function"
    },
    {
      "inputs": [],
      "name": "paused",
      "outputs": [
        {
          "internalType": "bool",
          "name": "",
          "type": "bool"
        }
      ],
      "stateMutability": "view",
      "type": "function"
    },
    {
      "inputs": [],
      "name": "renounceOwnership",
      "outputs": [],
      "stateMutability": "nonpayable",
      "type": "function"
    },
    {
      "inputs": [
        {
          "internalType": "address",
          "name": "guardianAddress",
          "type": "address"
        }
      ],
      "name": "setGuardian",
      "outputs": [],
      "stateMutability": "nonpayable",
      "type": "function"
    },
    {
      "inputs": [
        {
          "internalType": "address",
          "name": "token",
          "type": "address"
        },
        {
          "internalType": "uint128",
          "name": "amount",
          "type": "uint128"
        },
        {
          "internalType": "bytes32",
          "name": "argonAccountId",
          "type": "bytes32"
        },
        {
          "internalType": "uint256",
          "name": "deadline",
          "type": "uint256"
        },
        {
          "internalType": "uint8",
          "name": "v",
          "type": "uint8"
        },
        {
          "internalType": "bytes32",
          "name": "r",
          "type": "bytes32"
        },
        {
          "internalType": "bytes32",
          "name": "s",
          "type": "bytes32"
        }
      ],
      "name": "startTransferToArgon",
      "outputs": [],
      "stateMutability": "nonpayable",
      "type": "function"
    },
    {
      "inputs": [
        {
          "internalType": "uint128",
          "name": "amount",
          "type": "uint128"
        }
      ],
      "name": "toTokenAmount",
      "outputs": [
        {
          "internalType": "uint256",
          "name": "",
          "type": "uint256"
        }
      ],
      "stateMutability": "pure",
      "type": "function"
    },
    {
      "inputs": [
        {
          "internalType": "address",
          "name": "newOwner",
          "type": "address"
        }
      ],
      "name": "transferOwnership",
      "outputs": [],
      "stateMutability": "nonpayable",
      "type": "function"
    },
    {
      "inputs": [],
      "name": "unpause",
      "outputs": [],
      "stateMutability": "nonpayable",
      "type": "function"
    }
  ],
  "bytecode": "0x60c060405234801561000f575f5ffd5b50604051614cbf380380614cbf83398101604081905261002e9161011d565b6001600160a01b03808316608052811660a052610049610050565b505061014e565b7ff0c57e16840df040f15088dc2f81fe391c3923bec73e23a9662efc9c229c6a00805468010000000000000000900460ff16156100a05760405163f92ee8a960e01b815260040160405180910390fd5b80546001600160401b03908116146100ff5780546001600160401b0319166001600160401b0390811782556040519081527fc7f505b2f371ae2175ee4913f4499e1f2633a7b5936321eed1cdaeb6115181d29060200160405180910390a15b50565b80516001600160a01b0381168114610118575f5ffd5b919050565b5f5f6040838503121561012e575f5ffd5b61013783610102565b915061014560208401610102565b90509250929050565b60805160a051614b116101ae5f395f8181610325015281816113c50152818161148701528181611d750152611e0701525f818161046d01528181610c38015281816111010152818161138201528181611d440152611dca0152614b115ff3fe608060405234801561000f575f5ffd5b506004361061021e575f3560e01c80636e2c77691161012a5780638da5cb5b116100b4578063d68d631111610079578063d68d631114610529578063e52580a61461053c578063ecec10a4146105c1578063f1982c67146105d4578063f2fde38b146105db575f5ffd5b80638da5cb5b146104aa578063905d031f146104b2578063a3eb896114610505578063beabb5911461050e578063c017c90214610516575f5ffd5b80637c9afa67116100fa5780637c9afa671461043e57806380a126211461046057806383a4d591146104685780638456cb591461048f5780638a0dac4a14610497575f5ffd5b80636e2c7769146104085780636e888c461461041b578063715018a61461042e57806378d350e014610436575f5ffd5b80632ef29f3b116101ab578063452a93201161017b578063452a9320146103c757806359b23872146103d95780635b7f415c146103e15780635c975abb146103e95780635cadf6e814610400575f5ffd5b80632ef29f3b1461036757806331677980146103885780633f4ba83a146103ac578063422ad8f6146103b4575f5ffd5b806318a8f1f0116101f157806318a8f1f0146102945780631a5d93fd146102a75780631c1eeae1146102ef5780631e07f89e146103205780632ceeddf51461035f575f5ffd5b8063014c72f61461022257806309af0e3c14610237578063138f87811461026757806316dd172d1461027a575b5f5ffd5b610235610230366004613e48565b6105ee565b005b60085461024a906001600160801b031681565b6040516001600160801b0390911681526020015b60405180910390f35b610235610275366004613ea3565b610725565b610282600181565b60405160ff909116815260200161025e565b6102356102a2366004613f0c565b610f49565b6004546005546006546007546102c6939291906001600160801b031684565b604080519485526020850193909352918301526001600160801b0316606082015260800161025e565b5f5461030890600160a01b90046001600160401b031681565b6040516001600160401b03909116815260200161025e565b6103477f000000000000000000000000000000000000000000000000000000000000000081565b6040516001600160a01b03909116815260200161025e565b61024a6110fb565b61037a610375366004613f79565b611189565b60405190815260200161025e565b60035461039c90600160401b900460ff1681565b604051901515815260200161025e565b6102356111ba565b6102356103c2366004613f92565b6111cc565b5f54610347906001600160a01b031681565b61037a611327565b610282601281565b5f516020614abc5f395f51905f525460ff1661039c565b61037a601981565b600154610308906001600160401b031681565b610235610429366004613fad565b611341565b610235611470565b61024a611481565b61039c61044c366004614010565b600a6020525f908152604090205460ff1681565b61037a606481565b6103477f000000000000000000000000000000000000000000000000000000000000000081565b6102356114e1565b6102356104a5366004614027565b61153c565b6103476115ba565b6104e56104c0366004614027565b60096020525f90815260409020546001600160801b0380821691600160801b90041682565b604080516001600160801b0393841681529290911660208301520161025e565b61037a60025481565b610282600681565b610235610524366004614040565b6115e8565b600354610308906001600160401b031681565b61058861054a36600461409b565b600b6020525f90815260409020805460018201546002909201546001600160401b0380831693600160401b8404821693600160801b90049091169185565b604080516001600160401b039687168152948616602086015292909416918301919091526060820152608081019190915260a00161025e565b6102356105cf3660046140c1565b611802565b600b61037a565b6102356105e9366004614027565b611a98565b6105f6611ad5565b806001600160801b03165f0361061f57604051632440a7dd60e01b815260040160405180910390fd5b5f80806106a561062f8680614160565b808060200260200160405190810160405280939291908181526020018383602002808284375f9201919091525061066d925050506020880188614160565b808060200260200160405190810160405280939291908181526020018383602002808284375f92019190915250899250611b07915050565b6040805160808101825260045481526005546020820152600654918101919091526007546001600160801b0316606082015292955090935091506106eb84848488611c25565b8381604001517f33e53e90d61fdc868629a6234670f92c4445196f3f98ebd71935bbc76c7d915360405160405180910390a3505050505050565b61072d611c76565b61073682611ca6565b61074e61074960e0840160c08501614027565b611d10565b61075f610100830160e08401613f79565b6001600160801b03165f0361078757604051631f2a200560e01b815260040160405180910390fd5b60196107938280614160565b905011156107cf5760196107a78280614160565b60405163e126b42160e01b815260048101939093526024830152506044015b60405180910390fd5b6107df60c0830160a0840161409b565b6001600160401b031643111561082b574361080060c0840160a0850161409b565b604051635728c7dd60e11b815260048101929092526001600160401b031660248201526044016107c6565b5f61083583611e65565b905061084081611f6f565b6108506080840160608501613f79565b6001600160801b03165f0361087857604051632440a7dd60e01b815260040160405180910390fd5b6008546001600160801b0316806108956080860160608701613f79565b6001600160801b031611156108e157806108b56080860160608701613f79565b6040516343082d3360e01b81526001600160801b039283166004820152911660248201526044016107c6565b5f8080806108ef8780614160565b90506001600160401b03811115610908576109086141a5565b60405190808252806020026020018201604052801561095157816020015b604080516060810182525f80825260208083018290529282015282525f199092019101816109265790505b5090505f5b6109608880614160565b9050811015610c2d57366109748980614160565b83818110610984576109846141b9565b905060200281019061099691906141cd565b90505f610a096109f76109c58d6109b06020870187613f79565b6109c06040880160208901613f79565b611fa1565b7f19457468657265756d205369676e6564204d6573736167653a0a3332000000005f908152601c91909152603c902090565b610a0460408501856141eb565b61202e565b9050846001600160a01b0316816001600160a01b031611610a3d576040516309cf9e4960e11b815260040160405180910390fd5b6001600160a01b0381165f90815260096020908152604090912090610a6490840184613f79565b81546001600160801b0391821691161080610aa45750610a8a6040840160208501613f79565b81546001600160801b03918216600160801b909104909116105b15610acd576040516364fc3cd160e11b81526001600160a01b03831660048201526024016107c6565b610ada6020840184613f79565b815482905f90610af49084906001600160801b0316614241565b92506101000a8154816001600160801b0302191690836001600160801b03160217905550826020016020810190610b2b9190613f79565b81548290601090610b4d908490600160801b90046001600160801b0316614241565b92506101000a8154816001600160801b0302191690836001600160801b03160217905550825f016020810190610b839190613f79565b610b8d9089614260565b9750610b9f6040840160208501613f79565b610ba99088614260565b96506040518060600160405280836001600160a01b03168152602001845f016020810190610bd79190613f79565b6001600160801b03168152602001846020016020810190610bf89190613f79565b6001600160801b0316815250858581518110610c1657610c166141b9565b602090810291909101015250935050600101610956565b506001600160a01b037f000000000000000000000000000000000000000000000000000000000000000016610c6860e08a0160c08b01614027565b6001600160a01b031603610d36575f610c836006600a61435a565b610c9360808b0160608c01613f79565b6001600160801b0316856001600160801b0316610cb09190614368565b610cba919061437f565b90505f610cd0826001600160801b03881661439e565b9050610ce36101008b0160e08c01613f79565b6001600160801b0316811015610d2f5780610d056101008c0160e08d01613f79565b60405162f9825560e61b815260048101929092526001600160801b031660248201526044016107c6565b5050610dc5565b6001600160801b03841615610d5e57604051630994a0f360e11b815260040160405180910390fd5b610d6f610100890160e08a01613f79565b6001600160801b0316836001600160801b03161015610dc55782610d9a6101008a0160e08b01613f79565b60405162f9825560e61b81526001600160801b039283166004820152911660248201526044016107c6565b610de3865f908152600a60205260409020805460ff19166001179055565b610df360e0890160c08a01614027565b6001600160a01b03166340c10f19610e1160a08b0160808c01614027565b610e256103756101008d0160e08e01613f79565b6040516001600160e01b031960e085901b1681526001600160a01b03909216600483015260248201526044015f604051808303815f87803b158015610e68575f5ffd5b505af1158015610e7a573d5f5f3e3d5ffd5b50505f8054909250610ea79150610ea290600160a01b90046001600160401b031660016143b1565b612058565b9050610ee081610edb89610ec160e08e0160c08f01614027565b8d60e0016020810190610ed49190613f79565b87876120cd565b6121a8565b7f64d79900ed82270f744ae62db527f4e328e336d8b51e77bc72601391fe779d0687610f1260e08c0160c08d01614027565b610f236101008d0160e08e01613f79565b8585604051610f36959493929190614482565b60405180910390a1505050505050505050565b610f51611c76565b610f5a87611d10565b856001600160801b03165f03610f8357604051631f2a200560e01b815260040160405180910390fd5b5f610f8d87611189565b60405163d505accf60e01b8152336004820152306024820152604481018290526064810187905260ff8616608482015260a4810185905260c481018490529091506001600160a01b0389169063d505accf9060e4015f604051808303815f87803b158015610ff9575f5ffd5b505af115801561100b573d5f5f3e3d5ffd5b505060405163079cc67960e41b8152336004820152602481018490526001600160a01b038b1692506379cc679091506044015f604051808303815f87803b158015611054575f5ffd5b505af1158015611066573d5f5f3e3d5ffd5b50505f805490925061108e9150610ea290600160a01b90046001600160401b031660016143b1565b90506110a181610edb338c8c8c876124b2565b886001600160a01b0316336001600160a01b03167f3ab970a848f33363427e47cfbd7a627af0c6e72757f150137e38cef3cee24d938a8a856040516110e8939291906144ca565b60405180910390a3505050505050505050565b5f6111847f00000000000000000000000000000000000000000000000000000000000000006001600160a01b03166318160ddd6040518163ffffffff1660e01b8152600401602060405180830381865afa15801561115b573d5f5f3e3d5ffd5b505050506040513d601f19601f8201168201806040525081019061117f91906144ee565b612549565b905090565b5f61119660066012614505565b6111a190600a61435a565b6111b4906001600160801b038416614368565b92915050565b6111c2611ad5565b6111ca612599565b565b6111d4611c76565b6111dd81611ca6565b6111f061074960e0830160c08401614027565b611201610100820160e08301613f79565b6001600160801b03165f0361122957604051631f2a200560e01b815260040160405180910390fd5b61123960c0820160a0830161409b565b6001600160401b03164311611284574361125960c0830160a0840161409b565b6040516374276dcf60e11b815260048101929092526001600160401b031660248201526044016107c6565b5f61128e82611e65565b905061129981611f6f565b6112b7815f908152600a60205260409020805460ff19166001179055565b5f80546112d990610ea290600160a01b90046001600160401b031660016143b1565b90506112e981610edb84846125f8565b7f3cb8789e9bf6f532eec2bc8ffee9b622fc0d6e6daefb7fb6bb2e2f7b2d62e452828260405161131a92919061451e565b60405180910390a1505050565b61133360066012614505565b61133e90600a61435a565b81565b611349611ad5565b611351611c76565b600354600160401b900460ff161561137c57604051633dbff3b560e01b815260040160405180910390fd5b5f6113bd7f00000000000000000000000000000000000000000000000000000000000000006113ab8580614160565b6113b86020880188614160565b612682565b90505f6113ee7f00000000000000000000000000000000000000000000000000000000000000006113ab8580614160565b6003805460ff60401b1916600160401b17905590507fc255ddc45163282f24909556f7475ab4ec8eb1d51763b25a4560cee9f43d064561142e8580614160565b90508361143b8680614160565b60405161146294939250869093845260208401929092526040830152606082015260800190565b60405180910390a150505050565b611478611ad5565b6111ca5f6127c1565b5f6111847f00000000000000000000000000000000000000000000000000000000000000006001600160a01b03166318160ddd6040518163ffffffff1660e01b8152600401602060405180830381865afa15801561115b573d5f5f3e3d5ffd5b5f546001600160a01b0316331480159061151457506114fe6115ba565b6001600160a01b0316336001600160a01b031614155b156115345760405163354de03160e21b81523360048201526024016107c6565b6111ca612831565b611544611ad5565b6001600160a01b03811661156b5760405163a91f6a8960e01b815260040160405180910390fd5b5f80546001600160a01b038381166001600160a01b0319831681178455604051919092169283917f064d28d3d3071c5cbc271a261c10c2f0f0d9e319390397101aa0eb23c6bad9099190a35050565b7f9016d09d72d40fdae2fd8ceac6b6234c7706214fd39c1cd1e609a0528c199300546001600160a01b031690565b5f6115f1612879565b805490915060ff600160401b82041615906001600160401b03165f811580156116175750825b90505f826001600160401b031660011480156116325750303b155b905081158015611640575080155b1561165e5760405163f92ee8a960e01b815260040160405180910390fd5b845467ffffffffffffffff19166001178555831561168857845460ff60401b1916600160401b1785555b6001600160a01b038b166116af576040516314030c0360e11b815260040160405180910390fd5b6001600160a01b038a166116d65760405163a91f6a8960e01b815260040160405180910390fd5b8815806116e1575087155b806116ea575086155b1561170a5760405163665c282b60e01b81525f60048201526024016107c6565b856001600160801b03165f0361173357604051632440a7dd60e01b815260040160405180910390fd5b61173c8b6128a1565b6117446128b2565b5f80546001600160a01b0319166001600160a01b038c1617905561176a89888a89611c25565b600880546001600160801b0319166001600160801b03881617905560405189907fac3566d46c25f65b48d269870da4b9349704c79de13ad49b115532834d7e7ed1905f90a283156117f557845460ff60401b19168555604051600181527fc7f505b2f371ae2175ee4913f4499e1f2633a7b5936321eed1cdaeb6115181d29060200160405180910390a15b5050505050505050505050565b61180a611c76565b60648211156118365760405163384b869360e21b815260646004820152602481018390526044016107c6565b60065461185657604051632c1dfd4f60e11b815260040160405180910390fd5b5f611860856128ba565b6002549091505f806118728787612a7c565b90925090505f861561188e57611889600188614532565b611890565b5f5b90505f5b87811015611a8c57368989838181106118af576118af6141b9565b90506020028101906118c19190614545565b60018054919250838514915f916118e1916001600160401b0316906143b1565b90506001600160401b0381166118fa602085018561409b565b6001600160401b0316146119425780611916602085018561409b565b604051635efa452960e11b81526001600160401b039283166004820152911660248201526044016107c6565b5f611952848b604001518b612d27565b905061196084828c86612e9d565b6002611972604086016020870161456d565b600281111561198357611983614559565b0361199a5761199384828d612f05565b9850611a7d565b5f6119ab604086016020870161456d565b60028111156119bc576119bc614559565b036119d6576119cc84828d61304c565b909a509850611a7d565b60016119e8604086016020870161456d565b60028111156119f9576119f9614559565b03611a3d5761199384828a8881518110611a1557611a156141b9565b60200260200101518a8981518110611a2f57611a2f6141b9565b60200260200101518f6131fa565b611a4d604085016020860161456d565b6002811115611a5e57611a5e614559565b60405163b99607f960e01b815260ff90911660048201526024016107c6565b50505050806001019050611894565b50505050505050505050565b611aa0611ad5565b6001600160a01b038116611ac957604051631e4fbdf760e01b81525f60048201526024016107c6565b611ad2816127c1565b50565b33611ade6115ba565b6001600160a01b0316146111ca5760405163118cdaa760e01b81523360048201526024016107c6565b5f5f5f85515f03611b2d5760405163665c282b60e01b81525f60048201526024016107c6565b8451865114611b4f5760405163512509d360e11b815260040160405180910390fd5b5f805b8751811015611c09575f888281518110611b6e57611b6e6141b9565b602002602001015190505f888381518110611b8b57611b8b6141b9565b602002602001015190505f6001600160a01b0316826001600160a01b03161480611bb3575080155b80611bd05750836001600160a01b0316826001600160a01b031611155b15611bf15760405163665c282b60e01b8152600481018490526024016107c6565b611bfb818761439e565b955090925050600101611b52565b5086519150611c1987878761345d565b93505093509350939050565b60408051608081018252848152602081018490529081018590526001600160801b039091166060909101819052600492909255600555600691909155600780546001600160801b0319169091179055565b5f516020614abc5f395f51905f525460ff16156111ca5760405163d93c066560e01b815260040160405180910390fd5b466001600160401b038116611cc1606084016040850161409b565b6001600160401b031614611d0c5780611ce0606084016040850161409b565b6040516332e3634d60e21b81526001600160401b039283166004820152911660248201526044016107c6565b5050565b6001600160a01b038116611d4257604051635f8b555b60e11b81526001600160a01b03821660048201526024016107c6565b7f00000000000000000000000000000000000000000000000000000000000000006001600160a01b03161580611d9f57507f00000000000000000000000000000000000000000000000000000000000000006001600160a01b0316155b15611dc857604051635f8b555b60e11b81526001600160a01b03821660048201526024016107c6565b7f00000000000000000000000000000000000000000000000000000000000000006001600160a01b0316816001600160a01b031614158015611e3c57507f00000000000000000000000000000000000000000000000000000000000000006001600160a01b0316816001600160a01b031614155b15611ad257604051635f8b555b60e11b81526001600160a01b03821660048201526024016107c6565b5f8135611e78604084016020850161409b565b611e88606085016040860161409b565b611e986080860160608701613f79565b611ea860a0870160808801614027565b611eb860c0880160a0890161409b565b611ec860e0890160c08a01614027565b611ed96101008a0160e08b01613f79565b611eeb6101208b016101008c01613f79565b60408051602081019a909a526001600160401b03988916908a015295871660608901526001600160801b0394851660808901526001600160a01b0393841660a08901529590911660c08701521660e085015291821661010084015216610120820152610140015b604051602081830303815290604052805190602001209050919050565b5f818152600a602052604090205460ff1615611ad257604051632910aca360e01b8152600481018290526024016107c6565b5f7f28bf99522b0d2f26a76cdeda71578156383bbae91175ca503165cfdbbd1ff34a4630611fce87611e65565b6040805160208101959095528401929092526001600160a01b0316606083015260808201526001600160801b0380851660a0830152831660c082015260e0015b6040516020818303038152906040528051906020012090505b9392505050565b5f5f5f5f61203d878787613473565b92509250925061204d82826134ba565b509095945050505050565b604080516080810182525f808252602082018190529181018290526060810191909152604080516080810182526001600160401b0380851682526001541660208201529081016120a66110fb565b6001600160801b031681526020016120bc611481565b6001600160801b0316905292915050565b5f7f6bf7256f4c4f60df0bd918b509bf742c125b14ab72c967f949c0c3e504d4d6256001463089898989604051602001612107919061458b565b604051602081830303815290604052805190602001206121268a613572565b60408051602081019a909a5260ff9098169789019790975260608801959095526001600160a01b03938416608088015260a08701929092529190911660c08501526001600160801b031660e0840152610100830152610120820152610140015b6040516020818303038152906040528051906020012090505b95945050505050565b81515f80546001600160401b03808416600160a01b0267ffffffffffffffff60a01b19909216919091178255600354439291169003612307576003805467ffffffffffffffff191660011790556040805160a0810182526001600160401b038381168252841660208201819052918101919091525f6060820181905260808201906122339086613584565b905260015f52600b602090815281517f72c6bfb7988af3a1efa6568f02a999bc52252641c659d85961ca3d372b57d5cf80549284015160408501516001600160401b03908116600160801b0267ffffffffffffffff60801b19928216600160401b026001600160801b03199096169490911693909317939093179290921617905560608101517f72c6bfb7988af3a1efa6568f02a999bc52252641c659d85961ca3d372b57d5d055608001517f72c6bfb7988af3a1efa6568f02a999bc52252641c659d85961ca3d372b57d5d15550505050565b6003546001600160401b039081165f908152600b602052604090208054909183811691160361236e57805467ffffffffffffffff60801b1916600160801b6001600160401b0385160217815560028101546123629085613584565b60029091015550505050565b6003545f90612387906001600160401b031660016143b1565b6003805467ffffffffffffffff19166001600160401b03838116919091179091556040805160a0808201835287841682528884166020808401829052838501919091528351918201845287548086168352600160401b8104861691830191909152600160801b90049093169183019190915260018501546060808401919091526002860154608084015292935091820190612421906135a6565b81526020016124305f88613584565b90526001600160401b039182165f908152600b60209081526040918290208351815492850151938501518616600160801b0267ffffffffffffffff60801b19948716600160401b026001600160801b03199094169190961617919091179190911692909217825560608101516001830155608001516002909101555050505050565b5f7ff1cdefdf363279c2a6d861bb708536f5c8470b6fb59f43e01f67bb3f168e7b1f60014630898989896124e58a613572565b60408051602081019a909a5260ff9098169789019790975260608801959095526001600160a01b03938416608088015291831660a08701529190911660c08501526001600160801b031660e084015261010083015261012082015261014001612186565b5f8061255760066012614505565b61256290600a61435a565b61256c908461437f565b90506001600160801b038111156111b457604051639940a77560e01b8152600481018290526024016107c6565b6125a161360b565b5f516020614abc5f395f51905f52805460ff191681557f5db9ee0a495bf2e6ff9c91a7834c1ba4fdd244a5e8aa4e537bd38aeae4b073aa335b6040516001600160a01b03909116815260200160405180910390a150565b5f7febf24d41f9ef23280fd74eb80f9ce85e35b83fb7cf6aa2c52a07c20f981978c6600146308661262887613572565b60408051602081019790975260ff9095169486019490945260608501929092526001600160a01b0316608084015260a083015260c082015260e0015b60405160208183030381529060405280519060200120905092915050565b5f8382146126a35760405163512509d360e11b815260040160405180910390fd5b5f5b848110156127b7575f8686838181106126c0576126c06141b9565b90506020020160208101906126d59190614027565b90505f8585848181106126ea576126ea6141b9565b60200291909101359150506001600160a01b03821661271f57604051633bca2f5160e21b8152600481018490526024016107c6565b805f0361273f57604051631f2a200560e01b815260040160405180910390fd5b6040516340c10f1960e01b81526001600160a01b038381166004830152602482018390528a16906340c10f19906044015f604051808303815f87803b158015612786575f5ffd5b505af1158015612798573d5f5f3e3d5ffd5b5050505080846127a8919061439e565b935050508060010190506126a5565b5095945050505050565b7f9016d09d72d40fdae2fd8ceac6b6234c7706214fd39c1cd1e609a0528c19930080546001600160a01b031981166001600160a01b03848116918217845560405192169182907f8be0079c531659141344cd1fd0a4f28419497f9722a3daafe3b4186f6b6457e0905f90a3505050565b612839611c76565b5f516020614abc5f395f51905f52805460ff191660011781557f62e78cea01bee320cd4e420270b5ea74000d11b0c9f74754ebdbfc544b05a258336125da565b5f807ff0c57e16840df040f15088dc2f81fe391c3923bec73e23a9662efc9c229c6a006111b4565b6128a961363a565b611ad28161365f565b6111ca61363a565b6128e96040518060a0016040528060608152602001606081526020015f81526020015f81526020015f81525090565b5f808061297a6128f98680614160565b808060200260200160405190810160405280939291908181526020018383602002808284375f92019190915250612937925050506020880188614160565b808060200260200160405190810160405280939291908181526020018383602002808284375f92019190915250506007546001600160801b03169150611b079050565b9250925092506004600201548314158061299657506004548214155b806129a357506005548114155b156129cf57600654604051633b21437560e21b81526004810191909152602481018490526044016107c6565b6040805160a08101909152806129e58780614160565b808060200260200160405190810160405280939291908181526020018383602002808284375f92019190915250505090825250602090810190612a2a90880188614160565b808060200260200160405190810160405280939291908181526020018383602002808284375f920191909152505050908252506020810194909452604084019290925260609092019190915292915050565b606080826001600160401b03811115612a9757612a976141a5565b604051908082528060200260200182016040528015612ac0578160200160208202803683370190505b509150826001600160401b03811115612adb57612adb6141a5565b604051908082528060200260200182016040528015612b04578160200160208202803683370190505b5090508215612d20575f836001600160401b03811115612b2657612b266141a5565b604051908082528060200260200182016040528015612b4f578160200160208202803683370190505b5090505f8080612b60600188614532565b90505f5b87811015612d1a575f898983818110612b7f57612b7f6141b9565b9050602002810190612b919190614545565b612ba290604081019060200161456d565b90506001816002811115612bb857612bb8614559565b03612bf75781868663ffffffff1681518110612bd657612bd66141b9565b63ffffffff90921660209283029190910190910152612bf48561459d565b94505b5f80826002811115612c0b57612c0b614559565b1480612c1657508383145b905080612c24575050612d12565b8a8a84818110612c3657612c366141b9565b9050602002810190612c489190614545565b612c56906060810190614160565b612c619150866145c1565b94508563ffffffff165f03612c77575050612d12565b5f5b8663ffffffff16811015612d08575f888281518110612c9a57612c9a6141b9565b602002602001015163ffffffff169050878b8281518110612cbd57612cbd6141b9565b602002602001019063ffffffff16908163ffffffff1681525050868a8281518110612cea57612cea6141b9565b63ffffffff9092166020928302919091019091015250600101612c79565b505f95505f945050505b600101612b64565b50505050505b9250929050565b5f6001612d3a604086016020870161456d565b6002811115612d4b57612d4b614559565b03612d9a575f612d5e60408601866141eb565b810190612d6b9190614635565b9050612d92612d7d602087018761409b565b85835f01518460200151856040015188613667565b915050612027565b6002612dac604086016020870161456d565b6002811115612dbd57612dbd614559565b03612e32575f612dd060408601866141eb565b810190612ddd91906146a0565b9050612d92612def602087018761409b565b825186906002906001600160a01b03168551604080516001600160a01b039092166020830152016040516020818303038152906040528051906020012088613697565b5f612e43604086016020870161456d565b6002811115612e5457612e54614559565b03611a3d575f612e6760408601866141eb565b810190612e74919061476b565b9050612d92612e86602087018761409b565b82518051602091820151918501518892908861374a565b5f612eae604086016020870161456d565b6002811115612ebf57612ebf614559565b14158015612ecb575080155b612eff57612eff83612ee06060870187614160565b612ee9916148a1565b845160208601516060870151608088015161377d565b50505050565b5f80612f1460408601866141eb565b810190612f2191906146a0565b80519091506001600160a01b0316612f4c5760405163611b32ab60e01b815260040160405180910390fd5b80516001600160a01b039081165f9081526009602090815260408083208054865190951684529083209290925590916001600160801b0380821692600160801b9092041690612f9d9089018961409b565b6001805467ffffffffffffffff19166001600160401b0392831617815560028990555f80549092612fdc92610ea292600160a01b9004909116906143b1565b9050612ff381610edb875f015186868d8d886137c2565b845f01516001600160a01b03167f0b4ee788c9bfc3c405fb19e3f6137bf14a218c0dbc53c13a6ed07a225d360ebc84848b8b86604051613037959493929190614961565b60405180910390a25095979650505050505050565b61307b6040518060a0016040528060608152602001606081526020015f81526020015f81526020015f81525090565b5f8061308a60408701876141eb565b810190613097919061476b565b905080602001516001600160801b03165f036130c657604051632440a7dd60e01b815260040160405180910390fd5b5f5f5f6130e5845f01515f0151855f0151602001518660200151611b07565b8093508194508295505050506131018383838760200151611c25565b602084810151600880546001600160801b0319166001600160801b03909216919091179055613132908a018a61409b565b6001805467ffffffffffffffff19166001600160401b0392831617815560028a90555f8054909261317192610ea292600160a01b9004909116906143b1565b905061318381610edb868c8c86613860565b7fee5f0b6612e124988e865e18a4c4b0ec70d2f263708bb1e17f6de867fb1fe1c2848a8a846040516131b89493929190614995565b60405180910390a1506040805160a08101825285515181529451602090810151908601528401929092526060830152608082015291508390505b935093915050565b5f8061320960408801886141eb565b8101906132169190614635565b60408101519091506001600160a01b03166132445760405163611b32ab60e01b815260040160405180910390fd5b80516001600160801b0316158015613267575060208101516001600160801b0316155b15613296576040808201519051632edcd91760e21b81526001600160a01b0390911660048201526024016107c6565b63ffffffff851615806132ad575063ffffffff8416155b156132dc576040808201519051632edcd91760e21b81526001600160a01b0390911660048201526024016107c6565b6040808201516001600160a01b03165f90815260096020522080546001600160801b031615158061331d57508054600160801b90046001600160801b031615155b1561334c57604080830151905163cb96603760e01b81526001600160a01b0390911660048201526024016107c6565b60408051808201825283516001600160801b0390811682526020808601518216818401908152868501516001600160a01b03165f9081526009835294909420925193518216600160801b02939091169290921790556133ad9089018961409b565b6001805467ffffffffffffffff19166001600160401b0392831617815560028990555f805490926133ec92610ea292600160a01b9004909116906143b1565b905061340d81610edb8560400151865f015187602001518c8c8f8d8a6138fc565b82604001516001600160a01b03167f9023f1e3e253ad361005d72868d790c37ca6f53a03d522ebc93dca42154e15bf845f015185602001518a8a8d8b8860405161303797969594939291906149b7565b5f83838360405160200161200e939291906149ff565b5f808060418490036134a7578435602086013560408701355f1a613499898285856139d1565b9550955095505050506134b1565b505f915060029050825b93509350939050565b5f8260038111156134cd576134cd614559565b036134d6575050565b60018260038111156134ea576134ea614559565b036135085760405163f645eedf60e01b815260040160405180910390fd5b600282600381111561351c5761351c614559565b0361353d5760405163fce698f760e01b8152600481018290526024016107c6565b600382600381111561355157613551614559565b03611d0c576040516335e2f38360e21b8152600481018290526024016107c6565b5f81604051602001611f529190614a95565b6040805160016020820152908101839052606081018290525f90608001612664565b5f6001825f01518360200151846040015185606001518660800151604051602001611f529695949392919060ff9690961686526001600160401b039485166020870152928416604086015292166060840152608083019190915260a082015260c00190565b5f516020614abc5f395f51905f525460ff166111ca57604051638dfc202b60e01b815260040160405180910390fd5b613642613a99565b6111ca57604051631afcd79f60e31b815260040160405180910390fd5b611aa061363a565b5f61368a878760016001600160a01b0387166136848a8a8a613ab2565b87613697565b90505b9695505050505050565b5f7f41936771719a172aa959076ca6aafb826eaf332dd0c9e7860901c398ef42da05463089898960028111156136cf576136cf614559565b6040805160208101979097528601949094526001600160a01b0390921660608501526001600160401b0316608084015260a083015260ff1660c082015260e0810185905261010081018490526101208101839052610140015b6040516020818303038152906040528051906020012090509695505050505050565b5f5f61375786868661345d565b905061377188885f8461376b8b8b8b613b0e565b88613697565b98975050505050505050565b5f5f61378b88888888613b79565b9150915061379b82828686613d0f565b6137b85760405163079842ab60e41b815260040160405180910390fd5b5050505050505050565b5f7f8b2b1e5653cf18a7cb85828eebc4ac1e6c7093911ffb66bda4277640f68267f6600146308a8a8a8a8a6137f68b613572565b60408051602081019b909b5260ff909916988a019890985260608901969096526001600160a01b0394851660808901529390921660a08701526001600160801b0390811660c08701521660e085015261010084015261012083015261014082015261016001613728565b5f7fd6c5d8b75d4c96100cc12b870b8e28bb0b07402bf67c8141d16c2c673af8bb5e6001463088888861389289613572565b60408051602081019990995260ff9097169688019690965260608701949094526001600160a01b03909216608086015260a085015260c084015260e0830152610100820152610120016040516020818303038152906040528051906020012090505b949350505050565b5f7ff81bcebf1f8da13ff1db236962ed82c8762b74f56aeb5a1bd1677ef0db43dbbe600146308c8c8c8c8c8c8c6139328d613572565b60408051602081019d909d5260ff909b169a8c019a909a5260608b01989098526001600160a01b0396871660808b01529590941660a08901526001600160801b0392831660c0890152911660e087015263ffffffff908116610100870152166101208501526101408401526101608301526101808201526101a00160405160208183030381529060405280519060200120905098975050505050505050565b5f80807f7fffffffffffffffffffffffffffffff5d576e7357a4501ddfe92f46681b20a0841115613a0a57505f91506003905082613a8f565b604080515f808252602082018084528a905260ff891692820192909252606081018790526080810186905260019060a0016020604051602081039080840390855afa158015613a5b573d5f5f3e3d5ffd5b5050604051601f1901519150506001600160a01b038116613a8657505f925060019150829050613a8f565b92505f91508190505b9450945094915050565b5f613aa2612879565b54600160401b900460ff16919050565b5f7f1cd7f89e34f6154d6f8387a08ffafc689e347b8d5809913b07c58a42995dff664630613ae1878787613d70565b6040805160208101959095528401929092526001600160a01b03166060830152608082015260a00161200e565b5f7f82ce6440aa5dde11f3613892819b630b62342bacf93e16a292d5c8783aafa4c34630613b3d87878761345d565b6040805160208101959095528401929092526001600160a01b0316606083015260808201526001600160801b03831660a082015260c00161200e565b7f19457468657265756d205369676e6564204d6573736167653a0a3332000000005f908152601c859052603c8120819081905f805b8851811015613d02575f613bdb848b8481518110613bce57613bce6141b9565b6020026020010151613da6565b9050846001600160a01b0316816001600160a01b031611613c0f576040516309cf9e4960e11b815260040160405180910390fd5b885183108015613c495750806001600160a01b0316898481518110613c3657613c366141b9565b60200260200101516001600160a01b0316105b15613c5e57613c5783614aa3565b9250613c0f565b8851831480613c985750806001600160a01b0316898481518110613c8457613c846141b9565b60200260200101516001600160a01b031614155b15613cb95760405163665c282b60e01b8152600481018390526024016107c6565b613cc287614aa3565b9650878381518110613cd657613cd66141b9565b602002602001015186613ce9919061439e565b9550935083613cf783614aa3565b925050600101613bae565b5050505094509492505050565b5f80613d1b8684614532565b9050613d2884605a614368565b613d33866064614368565b10613d425760019150506138f4565b6002811115801561368d5750613d59846050614368565b613d64866064614368565b10159695505050505050565b604080516001600160801b0380861660208301528416918101919091526001600160a01b03821660608201525f9060800161200e565b5f5f5f5f613db48686613dce565b925092509250613dc482826134ba565b5090949350505050565b5f5f5f8351604103613e05576020840151604085015160608601515f1a613df7888285856139d1565b955095509550505050613e10565b505081515f91506002905b9250925092565b5f60408284031215613e27575f5ffd5b50919050565b80356001600160801b0381168114613e43575f5ffd5b919050565b5f5f60408385031215613e59575f5ffd5b82356001600160401b03811115613e6e575f5ffd5b613e7a85828601613e17565b925050613e8960208401613e2d565b90509250929050565b5f6101208284031215613e27575f5ffd5b5f5f6101408385031215613eb5575f5ffd5b613ebf8484613e92565b91506101208301356001600160401b03811115613eda575f5ffd5b830160208186031215613eeb575f5ffd5b809150509250929050565b80356001600160a01b0381168114613e43575f5ffd5b5f5f5f5f5f5f5f60e0888a031215613f22575f5ffd5b613f2b88613ef6565b9650613f3960208901613e2d565b95506040880135945060608801359350608088013560ff81168114613f5c575f5ffd5b9699959850939692959460a0840135945060c09093013592915050565b5f60208284031215613f89575f5ffd5b61202782613e2d565b5f6101208284031215613fa3575f5ffd5b6120278383613e92565b5f5f60408385031215613fbe575f5ffd5b82356001600160401b03811115613fd3575f5ffd5b613fdf85828601613e17565b92505060208301356001600160401b03811115613ffa575f5ffd5b61400685828601613e17565b9150509250929050565b5f60208284031215614020575f5ffd5b5035919050565b5f60208284031215614037575f5ffd5b61202782613ef6565b5f5f5f5f5f5f60c08789031215614055575f5ffd5b61405e87613ef6565b955061406c60208801613ef6565b945060408701359350606087013592506080870135915061408f60a08801613e2d565b90509295509295509295565b5f602082840312156140ab575f5ffd5b81356001600160401b0381168114612027575f5ffd5b5f5f5f5f606085870312156140d4575f5ffd5b84356001600160401b038111156140e9575f5ffd5b6140f587828801613e17565b94505060208501356001600160401b03811115614110575f5ffd5b8501601f81018713614120575f5ffd5b80356001600160401b03811115614135575f5ffd5b8760208260051b8401011115614149575f5ffd5b949760209190910196509394604001359392505050565b5f5f8335601e19843603018112614175575f5ffd5b8301803591506001600160401b0382111561418e575f5ffd5b6020019150600581901b3603821315612d20575f5ffd5b634e487b7160e01b5f52604160045260245ffd5b634e487b7160e01b5f52603260045260245ffd5b5f8235605e198336030181126141e1575f5ffd5b9190910192915050565b5f5f8335601e19843603018112614200575f5ffd5b8301803591506001600160401b03821115614219575f5ffd5b602001915036819003821315612d20575f5ffd5b634e487b7160e01b5f52601160045260245ffd5b6001600160801b0382811682821603908111156111b4576111b461422d565b6001600160801b0381811683821601908111156111b4576111b461422d565b6001815b60018411156131f25780850481111561429e5761429e61422d565b60018416156142ac57908102905b60019390931c928002614283565b5f826142c8575060016111b4565b816142d457505f6111b4565b81600181146142ea57600281146142f457614310565b60019150506111b4565b60ff8411156143055761430561422d565b50506001821b6111b4565b5060208310610133831016604e8410600b8410161715614333575081810a6111b4565b61433f5f19848461427f565b805f19048211156143525761435261422d565b029392505050565b5f61202760ff8416836142ba565b80820281158282048414176111b4576111b461422d565b5f8261439957634e487b7160e01b5f52601260045260245ffd5b500490565b808201808211156111b4576111b461422d565b6001600160401b0381811683821601908111156111b4576111b461422d565b5f8151808452602084019350602083015f5b8281101561442e57815180516001600160a01b031687526020808201516001600160801b03908116828a01526040928301511691880191909152606090960195909101906001016143e2565b5093949350505050565b6001600160401b0381511682526001600160401b0360208201511660208301526001600160801b0360408201511660408301526001600160801b0360608201511660608301525050565b8581526001600160a01b03851660208201526001600160801b0384166040820152610100606082018190525f906144bb908301856143d0565b905061368d6080830184614438565b6001600160801b03841681526020810183905260c081016138f46040830184614438565b5f602082840312156144fe575f5ffd5b5051919050565b60ff82811682821603908111156111b4576111b461422d565b82815260a081016120276020830184614438565b818103818111156111b4576111b461422d565b5f8235607e198336030181126141e1575f5ffd5b634e487b7160e01b5f52602160045260245ffd5b5f6020828403121561457d575f5ffd5b813560038110612027575f5ffd5b602081525f61202760208301846143d0565b5f63ffffffff821663ffffffff81036145b8576145b861422d565b60010192915050565b63ffffffff81811683821601908111156111b4576111b461422d565b604080519081016001600160401b03811182821017156145ff576145ff6141a5565b60405290565b604051601f8201601f191681016001600160401b038111828210171561462d5761462d6141a5565b604052919050565b5f6060828403128015614646575f5ffd5b50604051606081016001600160401b0381118282101715614669576146696141a5565b60405261467583613e2d565b815261468360208401613e2d565b602082015261469460408401613ef6565b60408201529392505050565b5f60208284031280156146b1575f5ffd5b50604051602081016001600160401b03811182821017156146d4576146d46141a5565b6040526146e083613ef6565b81529392505050565b5f6001600160401b03821115614701576147016141a5565b5060051b60200190565b5f82601f83011261471a575f5ffd5b813561472d614728826146e9565b614605565b8082825260208201915060208360051b86010192508583111561474e575f5ffd5b602085015b838110156127b7578035835260209283019201614753565b5f6020828403121561477b575f5ffd5b81356001600160401b03811115614790575f5ffd5b8201604081850312156147a1575f5ffd5b6147a96145dd565b81356001600160401b038111156147be575f5ffd5b8201604081870312156147cf575f5ffd5b6147d76145dd565b81356001600160401b038111156147ec575f5ffd5b8201601f810188136147fc575f5ffd5b803561480a614728826146e9565b8082825260208201915060208360051b85010192508a83111561482b575f5ffd5b6020840193505b828410156148545761484384613ef6565b825260209384019390910190614832565b845250505060208201356001600160401b03811115614871575f5ffd5b61487d8882850161470b565b602083015250808352505061489460208301613e2d565b6020820152949350505050565b5f6148ae614728846146e9565b8381526020810190600585901b8401368111156148c9575f5ffd5b845b8181101561204d5780356001600160401b038111156148e8575f5ffd5b860136601f8201126148f8575f5ffd5b80356001600160401b03811115614911576149116141a5565b614924601f8201601f1916602001614605565b818152366020838501011115614938575f5ffd5b816020840160208301375f602083830101528087525050506020840193506020810190506148cb565b6001600160801b038681168252851660208201526040810184905260608101839052610100810161368d6080830184614438565b848152602081018490526040810183905260e0810161219f6060830184614438565b6001600160801b0388811682528716602082015263ffffffff8681166040830152851660608201526080810184905260a08101839052610140810161377160c0830184614438565b606080825284519082018190525f9060208601906080840190835b81811015614a415783516001600160a01b0316835260209384019390920191600101614a1a565b5050838103602080860191909152865180835291810192508601905f5b81811015614a7c578251845260209384019390920191600101614a5e565b5050506001600160801b038416604084015290506138f4565b608081016111b48284614438565b5f60018201614ab457614ab461422d565b506001019056fecd5ed15c6e187e77e9aee88184c21f4f2182ab5827cb3b7e07fbedcd63f03300a264697066735822122041db2cfe2903d39b21e00b87aeb4c4b893d0e34d448457b27a7f1c8e9081248664736f6c63430008230033",
  "linkReferences": {},
  "deployedLinkReferences": {},
  "immutableReferences": {
    "7451": [
      {
        "length": 32,
        "start": 1133
      },
      {
        "length": 32,
        "start": 3128
      },
      {
        "length": 32,
        "start": 4353
      },
      {
        "length": 32,
        "start": 4994
      },
      {
        "length": 32,
        "start": 7492
      },
      {
        "length": 32,
        "start": 7626
      }
    ],
    "7454": [
      {
        "length": 32,
        "start": 805
      },
      {
        "length": 32,
        "start": 5061
      },
      {
        "length": 32,
        "start": 5255
      },
      {
        "length": 32,
        "start": 7541
      },
      {
        "length": 32,
        "start": 7687
      }
    ]
  },
  "inputSourceName": "project/contracts/MintingGateway.sol",
  "buildInfoId": "solc-0_8_35-348ac50224a50c31dcb3450b8eb2efbb6a2ef73c"
}