{
  "_format": "hh3-artifact-1",
  "contractName": "MintingGateway",
  "sourceName": "contracts/MintingGateway.sol",
  "abi": [
    {
      "inputs": [
        {
          "internalType": "address",
          "name": "argonTokenAddress",
          "type": "address"
        },
        {
          "internalType": "address",
          "name": "argonotTokenAddress",
          "type": "address"
        }
      ],
      "stateMutability": "nonpayable",
      "type": "constructor"
    },
    {
      "inputs": [],
      "name": "ArrayLengthMismatch",
      "type": "error"
    },
    {
      "inputs": [],
      "name": "ECDSAInvalidSignature",
      "type": "error"
    },
    {
      "inputs": [
        {
          "internalType": "uint256",
          "name": "length",
          "type": "uint256"
        }
      ],
      "name": "ECDSAInvalidSignatureLength",
      "type": "error"
    },
    {
      "inputs": [
        {
          "internalType": "bytes32",
          "name": "s",
          "type": "bytes32"
        }
      ],
      "name": "ECDSAInvalidSignatureS",
      "type": "error"
    },
    {
      "inputs": [],
      "name": "EnforcedPause",
      "type": "error"
    },
    {
      "inputs": [],
      "name": "ExpectedPause",
      "type": "error"
    },
    {
      "inputs": [],
      "name": "GlobalIssuanceCouncilNotBootstrapped",
      "type": "error"
    },
    {
      "inputs": [],
      "name": "GlobalIssuanceCouncilQuorumNotMet",
      "type": "error"
    },
    {
      "inputs": [
        {
          "internalType": "uint256",
          "name": "authorized",
          "type": "uint256"
        },
        {
          "internalType": "uint256",
          "name": "required",
          "type": "uint256"
        }
      ],
      "name": "InsufficientAuthorizedCollateral",
      "type": "error"
    },
    {
      "inputs": [
        {
          "internalType": "uint64",
          "name": "expected",
          "type": "uint64"
        },
        {
          "internalType": "uint64",
          "name": "provided",
          "type": "uint64"
        }
      ],
      "name": "InvalidChainId",
      "type": "error"
    },
    {
      "inputs": [
        {
          "internalType": "bytes32",
          "name": "expected",
          "type": "bytes32"
        },
        {
          "internalType": "bytes32",
          "name": "provided",
          "type": "bytes32"
        }
      ],
      "name": "InvalidCurrentCouncilSnapshot",
      "type": "error"
    },
    {
      "inputs": [
        {
          "internalType": "uint256",
          "name": "index",
          "type": "uint256"
        }
      ],
      "name": "InvalidGlobalIssuanceCouncilMember",
      "type": "error"
    },
    {
      "inputs": [],
      "name": "InvalidInitialization",
      "type": "error"
    },
    {
      "inputs": [],
      "name": "InvalidMicrogonCollateralForArgonotPayout",
      "type": "error"
    },
    {
      "inputs": [
        {
          "internalType": "address",
          "name": "signingKey",
          "type": "address"
        }
      ],
      "name": "InvalidMintingAuthority",
      "type": "error"
    },
    {
      "inputs": [
        {
          "internalType": "address",
          "name": "expectedSigner",
          "type": "address"
        },
        {
          "internalType": "address",
          "name": "recoveredSigner",
          "type": "address"
        }
      ],
      "name": "InvalidMintingAuthorityDeactivationSigner",
      "type": "error"
    },
    {
      "inputs": [
        {
          "internalType": "uint64",
          "name": "expected",
          "type": "uint64"
        },
        {
          "internalType": "uint64",
          "name": "provided",
          "type": "uint64"
        }
      ],
      "name": "InvalidQueueNonce",
      "type": "error"
    },
    {
      "inputs": [
        {
          "internalType": "uint256",
          "name": "expected",
          "type": "uint256"
        },
        {
          "internalType": "uint256",
          "name": "provided",
          "type": "uint256"
        }
      ],
      "name": "InvalidSignatureCount",
      "type": "error"
    },
    {
      "inputs": [],
      "name": "InvalidSignatureOrder",
      "type": "error"
    },
    {
      "inputs": [
        {
          "internalType": "uint128",
          "name": "maxRate",
          "type": "uint128"
        },
        {
          "internalType": "uint128",
          "name": "providedRate",
          "type": "uint128"
        }
      ],
      "name": "InvalidTransferOutRate",
      "type": "error"
    },
    {
      "inputs": [
        {
          "internalType": "uint8",
          "name": "kind",
          "type": "uint8"
        }
      ],
      "name": "InvalidUpdateKind",
      "type": "error"
    },
    {
      "inputs": [],
      "name": "LatestGatewayUpdateCannotDeactivate",
      "type": "error"
    },
    {
      "inputs": [],
      "name": "MigrationAlreadyCompleted",
      "type": "error"
    },
    {
      "inputs": [
        {
          "internalType": "address",
          "name": "signingKey",
          "type": "address"
        }
      ],
      "name": "MintingAuthorityAlreadyActive",
      "type": "error"
    },
    {
      "inputs": [
        {
          "internalType": "address",
          "name": "signingKey",
          "type": "address"
        }
      ],
      "name": "MintingAuthorityTransferCapacityExceeded",
      "type": "error"
    },
    {
      "inputs": [
        {
          "internalType": "address",
          "name": "caller",
          "type": "address"
        }
      ],
      "name": "NotGuardianOrOwner",
      "type": "error"
    },
    {
      "inputs": [],
      "name": "NotInitializing",
      "type": "error"
    },
    {
      "inputs": [
        {
          "internalType": "address",
          "name": "owner",
          "type": "address"
        }
      ],
      "name": "OwnableInvalidOwner",
      "type": "error"
    },
    {
      "inputs": [
        {
          "internalType": "address",
          "name": "account",
          "type": "address"
        }
      ],
      "name": "OwnableUnauthorizedAccount",
      "type": "error"
    },
    {
      "inputs": [
        {
          "internalType": "uint256",
          "name": "amount",
          "type": "uint256"
        }
      ],
      "name": "RuntimeAmountOverflow",
      "type": "error"
    },
    {
      "inputs": [
        {
          "internalType": "bytes32",
          "name": "transferId",
          "type": "bytes32"
        }
      ],
      "name": "TransferOutOfArgonAlreadyFinalized",
      "type": "error"
    },
    {
      "inputs": [
        {
          "internalType": "uint256",
          "name": "currentBlock",
          "type": "uint256"
        },
        {
          "internalType": "uint256",
          "name": "validUntilBlock",
          "type": "uint256"
        }
      ],
      "name": "TransferOutOfArgonExpired",
      "type": "error"
    },
    {
      "inputs": [
        {
          "internalType": "uint256",
          "name": "currentBlock",
          "type": "uint256"
        },
        {
          "internalType": "uint256",
          "name": "validUntilBlock",
          "type": "uint256"
        }
      ],
      "name": "TransferOutOfArgonNotExpired",
      "type": "error"
    },
    {
      "inputs": [
        {
          "internalType": "address",
          "name": "token",
          "type": "address"
        }
      ],
      "name": "UnsupportedToken",
      "type": "error"
    },
    {
      "inputs": [],
      "name": "ZeroAdminSafe",
      "type": "error"
    },
    {
      "inputs": [],
      "name": "ZeroAmount",
      "type": "error"
    },
    {
      "inputs": [],
      "name": "ZeroGuardian",
      "type": "error"
    },
    {
      "inputs": [],
      "name": "ZeroMicrogonsPerArgonot",
      "type": "error"
    },
    {
      "inputs": [
        {
          "internalType": "uint256",
          "name": "index",
          "type": "uint256"
        }
      ],
      "name": "ZeroRecipient",
      "type": "error"
    },
    {
      "inputs": [],
      "name": "ZeroSigningKey",
      "type": "error"
    },
    {
      "anonymous": false,
      "inputs": [
        {
          "indexed": true,
          "internalType": "bytes32",
          "name": "councilHash",
          "type": "bytes32"
        }
      ],
      "name": "GlobalIssuanceCouncilBootstrapped",
      "type": "event"
    },
    {
      "anonymous": false,
      "inputs": [
        {
          "indexed": true,
          "internalType": "bytes32",
          "name": "previousCouncilHash",
          "type": "bytes32"
        },
        {
          "indexed": true,
          "internalType": "bytes32",
          "name": "councilHash",
          "type": "bytes32"
        }
      ],
      "name": "GlobalIssuanceCouncilForceUpdated",
      "type": "event"
    },
    {
      "anonymous": false,
      "inputs": [
        {
          "indexed": false,
          "internalType": "bytes32",
          "name": "councilHash",
          "type": "bytes32"
        },
        {
          "indexed": false,
          "internalType": "bytes32",
          "name": "relayerArgonAccountId",
          "type": "bytes32"
        },
        {
          "components": [
            {
              "internalType": "uint64",
              "name": "gatewayActivityNonce",
              "type": "uint64"
            },
            {
              "internalType": "uint64",
              "name": "argonApprovalsNonce",
              "type": "uint64"
            },
            {
              "internalType": "uint128",
              "name": "argonCirculation",
              "type": "uint128"
            },
            {
              "internalType": "uint128",
              "name": "argonotCirculation",
              "type": "uint128"
            }
          ],
          "indexed": false,
          "internalType": "struct MintingGateway.GatewayActivityState",
          "name": "gatewayState",
          "type": "tuple"
        }
      ],
      "name": "GlobalIssuanceCouncilRotated",
      "type": "event"
    },
    {
      "anonymous": false,
      "inputs": [
        {
          "indexed": true,
          "internalType": "address",
          "name": "previousGuardian",
          "type": "address"
        },
        {
          "indexed": true,
          "internalType": "address",
          "name": "newGuardian",
          "type": "address"
        }
      ],
      "name": "GuardianUpdated",
      "type": "event"
    },
    {
      "anonymous": false,
      "inputs": [
        {
          "indexed": false,
          "internalType": "uint64",
          "name": "version",
          "type": "uint64"
        }
      ],
      "name": "Initialized",
      "type": "event"
    },
    {
      "anonymous": false,
      "inputs": [
        {
          "indexed": false,
          "internalType": "uint256",
          "name": "argonRecipientCount",
          "type": "uint256"
        },
        {
          "indexed": false,
          "internalType": "uint256",
          "name": "argonTotalAmount",
          "type": "uint256"
        },
        {
          "indexed": false,
          "internalType": "uint256",
          "name": "argonotRecipientCount",
          "type": "uint256"
        },
        {
          "indexed": false,
          "internalType": "uint256",
          "name": "argonotTotalAmount",
          "type": "uint256"
        }
      ],
      "name": "MigrationCompleted",
      "type": "event"
    },
    {
      "anonymous": false,
      "inputs": [
        {
          "indexed": true,
          "internalType": "address",
          "name": "signingKey",
          "type": "address"
        },
        {
          "indexed": false,
          "internalType": "uint128",
          "name": "microgonCollateral",
          "type": "uint128"
        },
        {
          "indexed": false,
          "internalType": "uint128",
          "name": "micronotCollateral",
          "type": "uint128"
        },
        {
          "indexed": false,
          "internalType": "uint32",
          "name": "coactivationCount",
          "type": "uint32"
        },
        {
          "indexed": false,
          "internalType": "uint32",
          "name": "sharedSignatureCount",
          "type": "uint32"
        },
        {
          "indexed": false,
          "internalType": "bytes32",
          "name": "relayerArgonAccountId",
          "type": "bytes32"
        },
        {
          "components": [
            {
              "internalType": "uint64",
              "name": "gatewayActivityNonce",
              "type": "uint64"
            },
            {
              "internalType": "uint64",
              "name": "argonApprovalsNonce",
              "type": "uint64"
            },
            {
              "internalType": "uint128",
              "name": "argonCirculation",
              "type": "uint128"
            },
            {
              "internalType": "uint128",
              "name": "argonotCirculation",
              "type": "uint128"
            }
          ],
          "indexed": false,
          "internalType": "struct MintingGateway.GatewayActivityState",
          "name": "gatewayState",
          "type": "tuple"
        }
      ],
      "name": "MintingAuthorityActivated",
      "type": "event"
    },
    {
      "anonymous": false,
      "inputs": [
        {
          "indexed": true,
          "internalType": "address",
          "name": "signingKey",
          "type": "address"
        },
        {
          "indexed": false,
          "internalType": "uint128",
          "name": "microgonCollateral",
          "type": "uint128"
        },
        {
          "indexed": false,
          "internalType": "uint128",
          "name": "micronotCollateral",
          "type": "uint128"
        },
        {
          "indexed": false,
          "internalType": "bytes32",
          "name": "relayerArgonAccountId",
          "type": "bytes32"
        },
        {
          "components": [
            {
              "internalType": "uint64",
              "name": "gatewayActivityNonce",
              "type": "uint64"
            },
            {
              "internalType": "uint64",
              "name": "argonApprovalsNonce",
              "type": "uint64"
            },
            {
              "internalType": "uint128",
              "name": "argonCirculation",
              "type": "uint128"
            },
            {
              "internalType": "uint128",
              "name": "argonotCirculation",
              "type": "uint128"
            }
          ],
          "indexed": false,
          "internalType": "struct MintingGateway.GatewayActivityState",
          "name": "gatewayState",
          "type": "tuple"
        }
      ],
      "name": "MintingAuthorityDeactivated",
      "type": "event"
    },
    {
      "anonymous": false,
      "inputs": [
        {
          "indexed": true,
          "internalType": "address",
          "name": "previousOwner",
          "type": "address"
        },
        {
          "indexed": true,
          "internalType": "address",
          "name": "newOwner",
          "type": "address"
        }
      ],
      "name": "OwnershipTransferred",
      "type": "event"
    },
    {
      "anonymous": false,
      "inputs": [
        {
          "indexed": false,
          "internalType": "address",
          "name": "account",
          "type": "address"
        }
      ],
      "name": "Paused",
      "type": "event"
    },
    {
      "anonymous": false,
      "inputs": [
        {
          "indexed": false,
          "internalType": "bytes32",
          "name": "transferId",
          "type": "bytes32"
        },
        {
          "components": [
            {
              "internalType": "uint64",
              "name": "gatewayActivityNonce",
              "type": "uint64"
            },
            {
              "internalType": "uint64",
              "name": "argonApprovalsNonce",
              "type": "uint64"
            },
            {
              "internalType": "uint128",
              "name": "argonCirculation",
              "type": "uint128"
            },
            {
              "internalType": "uint128",
              "name": "argonotCirculation",
              "type": "uint128"
            }
          ],
          "indexed": false,
          "internalType": "struct MintingGateway.GatewayActivityState",
          "name": "gatewayState",
          "type": "tuple"
        }
      ],
      "name": "TransferOutOfArgonCanceled",
      "type": "event"
    },
    {
      "anonymous": false,
      "inputs": [
        {
          "indexed": false,
          "internalType": "bytes32",
          "name": "transferId",
          "type": "bytes32"
        },
        {
          "indexed": false,
          "internalType": "address",
          "name": "token",
          "type": "address"
        },
        {
          "indexed": false,
          "internalType": "uint128",
          "name": "amount",
          "type": "uint128"
        },
        {
          "components": [
            {
              "internalType": "address",
              "name": "signingKey",
              "type": "address"
            },
            {
              "internalType": "uint128",
              "name": "microgonCollateral",
              "type": "uint128"
            },
            {
              "internalType": "uint128",
              "name": "micronotCollateral",
              "type": "uint128"
            }
          ],
          "indexed": false,
          "internalType": "struct MintingGateway.MintingAuthorityCollateral[]",
          "name": "mintingCollateral",
          "type": "tuple[]"
        },
        {
          "components": [
            {
              "internalType": "uint64",
              "name": "gatewayActivityNonce",
              "type": "uint64"
            },
            {
              "internalType": "uint64",
              "name": "argonApprovalsNonce",
              "type": "uint64"
            },
            {
              "internalType": "uint128",
              "name": "argonCirculation",
              "type": "uint128"
            },
            {
              "internalType": "uint128",
              "name": "argonotCirculation",
              "type": "uint128"
            }
          ],
          "indexed": false,
          "internalType": "struct MintingGateway.GatewayActivityState",
          "name": "gatewayState",
          "type": "tuple"
        }
      ],
      "name": "TransferOutOfArgonFinalized",
      "type": "event"
    },
    {
      "anonymous": false,
      "inputs": [
        {
          "indexed": true,
          "internalType": "address",
          "name": "from",
          "type": "address"
        },
        {
          "indexed": true,
          "internalType": "address",
          "name": "token",
          "type": "address"
        },
        {
          "indexed": false,
          "internalType": "uint128",
          "name": "amount",
          "type": "uint128"
        },
        {
          "indexed": false,
          "internalType": "bytes32",
          "name": "argonAccountId",
          "type": "bytes32"
        },
        {
          "components": [
            {
              "internalType": "uint64",
              "name": "gatewayActivityNonce",
              "type": "uint64"
            },
            {
              "internalType": "uint64",
              "name": "argonApprovalsNonce",
              "type": "uint64"
            },
            {
              "internalType": "uint128",
              "name": "argonCirculation",
              "type": "uint128"
            },
            {
              "internalType": "uint128",
              "name": "argonotCirculation",
              "type": "uint128"
            }
          ],
          "indexed": false,
          "internalType": "struct MintingGateway.GatewayActivityState",
          "name": "gatewayState",
          "type": "tuple"
        }
      ],
      "name": "TransferToArgonStarted",
      "type": "event"
    },
    {
      "anonymous": false,
      "inputs": [
        {
          "indexed": false,
          "internalType": "address",
          "name": "account",
          "type": "address"
        }
      ],
      "name": "Unpaused",
      "type": "event"
    },
    {
      "inputs": [],
      "name": "RUNTIME_DECIMALS",
      "outputs": [
        {
          "internalType": "uint8",
          "name": "",
          "type": "uint8"
        }
      ],
      "stateMutability": "view",
      "type": "function"
    },
    {
      "inputs": [],
      "name": "RUNTIME_TO_ERC20_SCALE",
      "outputs": [
        {
          "internalType": "uint256",
          "name": "",
          "type": "uint256"
        }
      ],
      "stateMutability": "view",
      "type": "function"
    },
    {
      "inputs": [],
      "name": "TOKEN_DECIMALS",
      "outputs": [
        {
          "internalType": "uint8",
          "name": "",
          "type": "uint8"
        }
      ],
      "stateMutability": "view",
      "type": "function"
    },
    {
      "inputs": [
        {
          "internalType": "uint64",
          "name": "locatorIndex",
          "type": "uint64"
        }
      ],
      "name": "activityBlockLocators",
      "outputs": [
        {
          "internalType": "uint64",
          "name": "blockNumber",
          "type": "uint64"
        },
        {
          "internalType": "uint64",
          "name": "startGatewayActivityNonce",
          "type": "uint64"
        },
        {
          "internalType": "uint64",
          "name": "endGatewayActivityNonce",
          "type": "uint64"
        }
      ],
      "stateMutability": "view",
      "type": "function"
    },
    {
      "inputs": [
        {
          "components": [
            {
              "internalType": "address[]",
              "name": "signers",
              "type": "address[]"
            },
            {
              "internalType": "uint256[]",
              "name": "weights",
              "type": "uint256[]"
            }
          ],
          "internalType": "struct MintingGateway.CouncilSnapshot",
          "name": "currentCouncil",
          "type": "tuple"
        },
        {
          "components": [
            {
              "internalType": "uint64",
              "name": "queueNonce",
              "type": "uint64"
            },
            {
              "internalType": "enum MintingGateway.GatewayUpdateKind",
              "name": "kind",
              "type": "uint8"
            },
            {
              "internalType": "bytes",
              "name": "payload",
              "type": "bytes"
            },
            {
              "internalType": "bytes[]",
              "name": "signatures",
              "type": "bytes[]"
            }
          ],
          "internalType": "struct MintingGateway.GatewayUpdate[]",
          "name": "updates",
          "type": "tuple[]"
        },
        {
          "internalType": "bytes32",
          "name": "relayerArgonAccountId",
          "type": "bytes32"
        }
      ],
      "name": "applyGatewayUpdates",
      "outputs": [],
      "stateMutability": "nonpayable",
      "type": "function"
    },
    {
      "inputs": [],
      "name": "argonApprovalsHash",
      "outputs": [
        {
          "internalType": "bytes32",
          "name": "",
          "type": "bytes32"
        }
      ],
      "stateMutability": "view",
      "type": "function"
    },
    {
      "inputs": [],
      "name": "argonApprovalsNonce",
      "outputs": [
        {
          "internalType": "uint64",
          "name": "",
          "type": "uint64"
        }
      ],
      "stateMutability": "view",
      "type": "function"
    },
    {
      "inputs": [],
      "name": "argonCirculation",
      "outputs": [
        {
          "internalType": "uint128",
          "name": "",
          "type": "uint128"
        }
      ],
      "stateMutability": "view",
      "type": "function"
    },
    {
      "inputs": [],
      "name": "argonToken",
      "outputs": [
        {
          "internalType": "address",
          "name": "",
          "type": "address"
        }
      ],
      "stateMutability": "view",
      "type": "function"
    },
    {
      "inputs": [],
      "name": "argonotCirculation",
      "outputs": [
        {
          "internalType": "uint128",
          "name": "",
          "type": "uint128"
        }
      ],
      "stateMutability": "view",
      "type": "function"
    },
    {
      "inputs": [],
      "name": "argonotToken",
      "outputs": [
        {
          "internalType": "address",
          "name": "",
          "type": "address"
        }
      ],
      "stateMutability": "view",
      "type": "function"
    },
    {
      "inputs": [
        {
          "components": [
            {
              "internalType": "bytes32",
              "name": "argonAccountId",
              "type": "bytes32"
            },
            {
              "internalType": "uint64",
              "name": "argonTransferNonce",
              "type": "uint64"
            },
            {
              "internalType": "uint64",
              "name": "chainId",
              "type": "uint64"
            },
            {
              "internalType": "uint128",
              "name": "microgonsPerArgonot",
              "type": "uint128"
            },
            {
              "internalType": "address",
              "name": "recipient",
              "type": "address"
            },
            {
              "internalType": "uint64",
              "name": "validUntilBlock",
              "type": "uint64"
            },
            {
              "internalType": "address",
              "name": "token",
              "type": "address"
            },
            {
              "internalType": "uint128",
              "name": "amount",
              "type": "uint128"
            },
            {
              "internalType": "uint128",
              "name": "mintingAuthorityTip",
              "type": "uint128"
            }
          ],
          "internalType": "struct MintingGateway.TransferOutOfArgonRequest",
          "name": "request",
          "type": "tuple"
        }
      ],
      "name": "cancelTransferOutOfArgon",
      "outputs": [],
      "stateMutability": "nonpayable",
      "type": "function"
    },
    {
      "inputs": [
        {
          "components": [
            {
              "internalType": "bytes32",
              "name": "argonAccountId",
              "type": "bytes32"
            },
            {
              "internalType": "uint64",
              "name": "argonTransferNonce",
              "type": "uint64"
            },
            {
              "internalType": "uint64",
              "name": "chainId",
              "type": "uint64"
            },
            {
              "internalType": "uint128",
              "name": "microgonsPerArgonot",
              "type": "uint128"
            },
            {
              "internalType": "address",
              "name": "recipient",
              "type": "address"
            },
            {
              "internalType": "uint64",
              "name": "validUntilBlock",
              "type": "uint64"
            },
            {
              "internalType": "address",
              "name": "token",
              "type": "address"
            },
            {
              "internalType": "uint128",
              "name": "amount",
              "type": "uint128"
            },
            {
              "internalType": "uint128",
              "name": "mintingAuthorityTip",
              "type": "uint128"
            }
          ],
          "internalType": "struct MintingGateway.TransferOutOfArgonRequest",
          "name": "request",
          "type": "tuple"
        },
        {
          "components": [
            {
              "components": [
                {
                  "internalType": "uint128",
                  "name": "microgonCollateral",
                  "type": "uint128"
                },
                {
                  "internalType": "uint128",
                  "name": "micronotCollateral",
                  "type": "uint128"
                },
                {
                  "internalType": "bytes",
                  "name": "signature",
                  "type": "bytes"
                }
              ],
              "internalType": "struct MintingGateway.MintingAuthorization[]",
              "name": "authorizations",
              "type": "tuple[]"
            }
          ],
          "internalType": "struct MintingGateway.TransferOutOfArgonProof",
          "name": "proof",
          "type": "tuple"
        }
      ],
      "name": "finalizeTransferOutOfArgon",
      "outputs": [],
      "stateMutability": "nonpayable",
      "type": "function"
    },
    {
      "inputs": [
        {
          "internalType": "bytes32",
          "name": "transferId",
          "type": "bytes32"
        }
      ],
      "name": "finalizedTransferOutOfArgonIds",
      "outputs": [
        {
          "internalType": "bool",
          "name": "isFinalized",
          "type": "bool"
        }
      ],
      "stateMutability": "view",
      "type": "function"
    },
    {
      "inputs": [
        {
          "components": [
            {
              "internalType": "address[]",
              "name": "signers",
              "type": "address[]"
            },
            {
              "internalType": "uint256[]",
              "name": "weights",
              "type": "uint256[]"
            }
          ],
          "internalType": "struct MintingGateway.CouncilSnapshot",
          "name": "nextCouncil",
          "type": "tuple"
        },
        {
          "internalType": "uint128",
          "name": "nextMicrogonsPerArgonot",
          "type": "uint128"
        }
      ],
      "name": "forceUpdateActiveCouncil",
      "outputs": [],
      "stateMutability": "nonpayable",
      "type": "function"
    },
    {
      "inputs": [],
      "name": "gatewayActivityNonce",
      "outputs": [
        {
          "internalType": "uint64",
          "name": "",
          "type": "uint64"
        }
      ],
      "stateMutability": "view",
      "type": "function"
    },
    {
      "inputs": [],
      "name": "globalIssuanceCouncil",
      "outputs": [
        {
          "internalType": "uint256",
          "name": "totalWeight",
          "type": "uint256"
        },
        {
          "internalType": "uint256",
          "name": "memberCount",
          "type": "uint256"
        },
        {
          "internalType": "bytes32",
          "name": "councilHash",
          "type": "bytes32"
        },
        {
          "internalType": "uint128",
          "name": "epochMicrogonsPerArgonot",
          "type": "uint128"
        }
      ],
      "stateMutability": "view",
      "type": "function"
    },
    {
      "inputs": [],
      "name": "guardian",
      "outputs": [
        {
          "internalType": "address",
          "name": "",
          "type": "address"
        }
      ],
      "stateMutability": "view",
      "type": "function"
    },
    {
      "inputs": [
        {
          "internalType": "address",
          "name": "adminSafe",
          "type": "address"
        },
        {
          "internalType": "address",
          "name": "guardianAddress",
          "type": "address"
        },
        {
          "internalType": "bytes32",
          "name": "councilHash",
          "type": "bytes32"
        },
        {
          "internalType": "uint256",
          "name": "councilMemberCount",
          "type": "uint256"
        },
        {
          "internalType": "uint256",
          "name": "councilTotalWeight",
          "type": "uint256"
        },
        {
          "internalType": "uint128",
          "name": "initialMicrogonsPerArgonot",
          "type": "uint128"
        }
      ],
      "name": "initialize",
      "outputs": [],
      "stateMutability": "nonpayable",
      "type": "function"
    },
    {
      "inputs": [],
      "name": "latestActivityBlockLocatorIndex",
      "outputs": [
        {
          "internalType": "uint64",
          "name": "",
          "type": "uint64"
        }
      ],
      "stateMutability": "view",
      "type": "function"
    },
    {
      "inputs": [],
      "name": "maxTransferOutMicrogonsPerArgonot",
      "outputs": [
        {
          "internalType": "uint128",
          "name": "",
          "type": "uint128"
        }
      ],
      "stateMutability": "view",
      "type": "function"
    },
    {
      "inputs": [
        {
          "components": [
            {
              "internalType": "address[]",
              "name": "recipients",
              "type": "address[]"
            },
            {
              "internalType": "uint256[]",
              "name": "amounts",
              "type": "uint256[]"
            }
          ],
          "internalType": "struct MintingGateway.MigrationAssetDistribution",
          "name": "argonMigration",
          "type": "tuple"
        },
        {
          "components": [
            {
              "internalType": "address[]",
              "name": "recipients",
              "type": "address[]"
            },
            {
              "internalType": "uint256[]",
              "name": "amounts",
              "type": "uint256[]"
            }
          ],
          "internalType": "struct MintingGateway.MigrationAssetDistribution",
          "name": "argonotMigration",
          "type": "tuple"
        }
      ],
      "name": "migrate",
      "outputs": [],
      "stateMutability": "nonpayable",
      "type": "function"
    },
    {
      "inputs": [],
      "name": "migrationCompleted",
      "outputs": [
        {
          "internalType": "bool",
          "name": "",
          "type": "bool"
        }
      ],
      "stateMutability": "view",
      "type": "function"
    },
    {
      "inputs": [
        {
          "internalType": "address",
          "name": "signingKey",
          "type": "address"
        }
      ],
      "name": "mintingAuthorityCollateralRemaining",
      "outputs": [
        {
          "internalType": "uint128",
          "name": "microgonCollateral",
          "type": "uint128"
        },
        {
          "internalType": "uint128",
          "name": "micronotCollateral",
          "type": "uint128"
        }
      ],
      "stateMutability": "view",
      "type": "function"
    },
    {
      "inputs": [],
      "name": "owner",
      "outputs": [
        {
          "internalType": "address",
          "name": "",
          "type": "address"
        }
      ],
      "stateMutability": "view",
      "type": "function"
    },
    {
      "inputs": [],
      "name": "pause",
      "outputs": [],
      "stateMutability": "nonpayable",
      "type": "function"
    },
    {
      "inputs": [],
      "name": "paused",
      "outputs": [
        {
          "internalType": "bool",
          "name": "",
          "type": "bool"
        }
      ],
      "stateMutability": "view",
      "type": "function"
    },
    {
      "inputs": [],
      "name": "renounceOwnership",
      "outputs": [],
      "stateMutability": "nonpayable",
      "type": "function"
    },
    {
      "inputs": [
        {
          "internalType": "address",
          "name": "guardianAddress",
          "type": "address"
        }
      ],
      "name": "setGuardian",
      "outputs": [],
      "stateMutability": "nonpayable",
      "type": "function"
    },
    {
      "inputs": [
        {
          "internalType": "address",
          "name": "token",
          "type": "address"
        },
        {
          "internalType": "uint128",
          "name": "amount",
          "type": "uint128"
        },
        {
          "internalType": "bytes32",
          "name": "argonAccountId",
          "type": "bytes32"
        },
        {
          "internalType": "uint256",
          "name": "deadline",
          "type": "uint256"
        },
        {
          "internalType": "uint8",
          "name": "v",
          "type": "uint8"
        },
        {
          "internalType": "bytes32",
          "name": "r",
          "type": "bytes32"
        },
        {
          "internalType": "bytes32",
          "name": "s",
          "type": "bytes32"
        }
      ],
      "name": "startTransferToArgon",
      "outputs": [],
      "stateMutability": "nonpayable",
      "type": "function"
    },
    {
      "inputs": [
        {
          "internalType": "uint128",
          "name": "amount",
          "type": "uint128"
        }
      ],
      "name": "toTokenAmount",
      "outputs": [
        {
          "internalType": "uint256",
          "name": "",
          "type": "uint256"
        }
      ],
      "stateMutability": "pure",
      "type": "function"
    },
    {
      "inputs": [
        {
          "internalType": "address",
          "name": "newOwner",
          "type": "address"
        }
      ],
      "name": "transferOwnership",
      "outputs": [],
      "stateMutability": "nonpayable",
      "type": "function"
    },
    {
      "inputs": [],
      "name": "unpause",
      "outputs": [],
      "stateMutability": "nonpayable",
      "type": "function"
    }
  ],
  "bytecode": "0x60c060405234801561000f575f5ffd5b506040516145e63803806145e683398101604081905261002e9161011d565b6001600160a01b03808316608052811660a052610049610050565b505061014e565b7ff0c57e16840df040f15088dc2f81fe391c3923bec73e23a9662efc9c229c6a00805468010000000000000000900460ff16156100a05760405163f92ee8a960e01b815260040160405180910390fd5b80546001600160401b03908116146100ff5780546001600160401b0319166001600160401b0390811782556040519081527fc7f505b2f371ae2175ee4913f4499e1f2633a7b5936321eed1cdaeb6115181d29060200160405180910390a15b50565b80516001600160a01b0381168114610118575f5ffd5b919050565b5f5f6040838503121561012e575f5ffd5b61013783610102565b915061014560208401610102565b90509250929050565b60805160a0516144386101ae5f395f81816102df0152818161127f0152818161134101528181611ccc0152611d5e01525f818161042901528181610b8d01528181610fda0152818161123c01528181611c9b0152611d2101526144385ff3fe608060405234801561000f575f5ffd5b50600436106101f2575f3560e01c80636e2c7769116101145780638da5cb5b116100a9578063c017c90211610079578063c017c902146104d2578063d68d6311146104e5578063e52580a6146104f8578063ecec10a414610560578063f2fde38b14610573575f5ffd5b80638da5cb5b14610466578063905d031f1461046e578063a3eb8961146104c1578063beabb591146104ca575f5ffd5b80637c9afa67116100e45780637c9afa671461040257806383a4d591146104245780638456cb591461044b5780638a0dac4a14610453575f5ffd5b80636e2c7769146103cc5780636e888c46146103df578063715018a6146103f257806378d350e0146103fa575f5ffd5b80632ef29f3b1161018a578063452a93201161015a578063452a93201461038157806359b23872146103935780635b7f415c1461039b5780635c975abb146103b5575f5ffd5b80632ef29f3b1461032157806331677980146103425780633f4ba83a14610366578063422ad8f61461036e575f5ffd5b80631a5d93fd116101c55780631a5d93fd146102615780631c1eeae1146102a95780631e07f89e146102da5780632ceeddf514610319575f5ffd5b8063014c72f6146101f657806309af0e3c1461020b578063138f87811461023b57806318a8f1f01461024e575b5f5ffd5b610209610204366004613784565b610586565b005b60085461021e906001600160801b031681565b6040516001600160801b0390911681526020015b60405180910390f35b6102096102493660046137df565b6106bd565b61020961025c366004613848565b610e4f565b600454600554600654600754610280939291906001600160801b031684565b604080519485526020850193909352918301526001600160801b03166060820152608001610232565b5f546102c290600160a01b90046001600160401b031681565b6040516001600160401b039091168152602001610232565b6103017f000000000000000000000000000000000000000000000000000000000000000081565b6040516001600160a01b039091168152602001610232565b61021e610fd4565b61033461032f3660046138b5565b611062565b604051908152602001610232565b60035461035690600160401b900460ff1681565b6040519015158152602001610232565b610209611093565b61020961037c3660046138ce565b6110a5565b5f54610301906001600160a01b031681565b6103346111e1565b6103a3601281565b60405160ff9091168152602001610232565b5f5160206143e35f395f51905f525460ff16610356565b6001546102c2906001600160401b031681565b6102096103ed3660046138e9565b6111fb565b61020961132a565b61021e61133b565b61035661041036600461394c565b600a6020525f908152604090205460ff1681565b6103017f000000000000000000000000000000000000000000000000000000000000000081565b61020961139b565b610209610461366004613963565b6113f6565b610301611474565b6104a161047c366004613963565b60096020525f90815260409020546001600160801b0380821691600160801b90041682565b604080516001600160801b03938416815292909116602083015201610232565b61033460025481565b6103a3600681565b6102096104e036600461397c565b6114a2565b6003546102c2906001600160401b031681565b6105366105063660046139d7565b600b6020525f90815260409020546001600160401b0380821691600160401b8104821691600160801b9091041683565b604080516001600160401b0394851681529284166020840152921691810191909152606001610232565b61020961056e3660046139fd565b6116bc565b610209610581366004613963565b6119ef565b61058e611a2c565b806001600160801b03165f036105b757604051632440a7dd60e01b815260040160405180910390fd5b5f808061063d6105c78680613a9c565b808060200260200160405190810160405280939291908181526020018383602002808284375f92019190915250610605925050506020880188613a9c565b808060200260200160405190810160405280939291908181526020018383602002808284375f92019190915250899250611a5e915050565b6040805160808101825260045481526005546020820152600654918101919091526007546001600160801b03166060820152929550909350915061068384848488611b7c565b8381604001517f33e53e90d61fdc868629a6234670f92c4445196f3f98ebd71935bbc76c7d915360405160405180910390a3505050505050565b6106c5611bcd565b6106ce82611bfd565b6106e66106e160e0840160c08501613963565b611c67565b6106f7610100830160e084016138b5565b6001600160801b03165f0361071f57604051631f2a200560e01b815260040160405180910390fd5b61072f60c0830160a084016139d7565b6001600160401b0316431115610780574361075060c0840160a085016139d7565b604051635728c7dd60e11b815260048101929092526001600160401b031660248201526044015b60405180910390fd5b5f61078a83611dbc565b905061079581611ec5565b6107a560808401606085016138b5565b6001600160801b03165f036107cd57604051632440a7dd60e01b815260040160405180910390fd5b6008546001600160801b0316806107ea60808601606087016138b5565b6001600160801b03161115610836578061080a60808601606087016138b5565b6040516343082d3360e01b81526001600160801b03928316600482015291166024820152604401610777565b5f8080806108448780613a9c565b90506001600160401b0381111561085d5761085d613ae8565b6040519080825280602002602001820160405280156108a657816020015b604080516060810182525f80825260208083018290529282015282525f1990920191018161087b5790505b5090505f5b6108b58880613a9c565b9050811015610b8257366108c98980613a9c565b838181106108d9576108d9613afc565b90506020028101906108eb9190613b10565b90505f61095e61094c61091a8d61090560208701876138b5565b61091560408801602089016138b5565b611ef7565b7f19457468657265756d205369676e6564204d6573736167653a0a3332000000005f908152601c91909152603c902090565b6109596040850185613b2e565b611f84565b9050846001600160a01b0316816001600160a01b031611610992576040516309cf9e4960e11b815260040160405180910390fd5b6001600160a01b0381165f908152600960209081526040909120906109b9908401846138b5565b81546001600160801b03918216911610806109f957506109df60408401602085016138b5565b81546001600160801b03918216600160801b909104909116105b15610a22576040516364fc3cd160e11b81526001600160a01b0383166004820152602401610777565b610a2f60208401846138b5565b815482905f90610a499084906001600160801b0316613b84565b92506101000a8154816001600160801b0302191690836001600160801b03160217905550826020016020810190610a8091906138b5565b81548290601090610aa2908490600160801b90046001600160801b0316613b84565b92506101000a8154816001600160801b0302191690836001600160801b03160217905550825f016020810190610ad891906138b5565b610ae29089613ba3565b9750610af460408401602085016138b5565b610afe9088613ba3565b96506040518060600160405280836001600160a01b03168152602001845f016020810190610b2c91906138b5565b6001600160801b03168152602001846020016020810190610b4d91906138b5565b6001600160801b0316815250858581518110610b6b57610b6b613afc565b6020908102919091010152509350506001016108ab565b506001600160a01b037f000000000000000000000000000000000000000000000000000000000000000016610bbd60e08a0160c08b01613963565b6001600160a01b031603610c8b575f610bd86006600a613ca5565b610be860808b0160608c016138b5565b6001600160801b0316856001600160801b0316610c059190613cb3565b610c0f9190613cca565b90505f610c25826001600160801b038816613ce9565b9050610c386101008b0160e08c016138b5565b6001600160801b0316811015610c845780610c5a6101008c0160e08d016138b5565b60405162f9825560e61b815260048101929092526001600160801b03166024820152604401610777565b5050610d1a565b6001600160801b03841615610cb357604051630994a0f360e11b815260040160405180910390fd5b610cc4610100890160e08a016138b5565b6001600160801b0316836001600160801b03161015610d1a5782610cef6101008a0160e08b016138b5565b60405162f9825560e61b81526001600160801b03928316600482015291166024820152604401610777565b610d38865f908152600a60205260409020805460ff19166001179055565b610d4860e0890160c08a01613963565b6001600160a01b03166340c10f19610d6660a08b0160808c01613963565b610d7a61032f6101008d0160e08e016138b5565b6040516001600160e01b031960e085901b1681526001600160a01b03909216600483015260248201526044015f604051808303815f87803b158015610dbd575f5ffd5b505af1158015610dcf573d5f5f3e3d5ffd5b505050505f610ddc611fae565b90507f64d79900ed82270f744ae62db527f4e328e336d8b51e77bc72601391fe779d0687610e1060e08c0160c08d01613963565b610e216101008d0160e08e016138b5565b85610e2b86611ffe565b604051610e3c959493929190613d46565b60405180910390a1505050505050505050565b610e57611bcd565b610e6087611c67565b856001600160801b03165f03610e8957604051631f2a200560e01b815260040160405180910390fd5b5f610e9387611062565b60405163d505accf60e01b8152336004820152306024820152604481018290526064810187905260ff8616608482015260a4810185905260c481018490529091506001600160a01b0389169063d505accf9060e4015f604051808303815f87803b158015610eff575f5ffd5b505af1158015610f11573d5f5f3e3d5ffd5b505060405163079cc67960e41b8152336004820152602481018490526001600160a01b038b1692506379cc679091506044015f604051808303815f87803b158015610f5a575f5ffd5b505af1158015610f6c573d5f5f3e3d5ffd5b505050505f610f79611fae565b90506001600160a01b038916337f3ab970a848f33363427e47cfbd7a627af0c6e72757f150137e38cef3cee24d938a8a610fb286611ffe565b604051610fc193929190613dea565b60405180910390a3505050505050505050565b5f61105d7f00000000000000000000000000000000000000000000000000000000000000006001600160a01b03166318160ddd6040518163ffffffff1660e01b8152600401602060405180830381865afa158015611034573d5f5f3e3d5ffd5b505050506040513d601f19601f820116820180604052508101906110589190613e0e565b612073565b905090565b5f61106f60066012613e25565b61107a90600a613ca5565b61108d906001600160801b038416613cb3565b92915050565b61109b611a2c565b6110a36120c3565b565b6110ad611bcd565b6110b681611bfd565b6110c96106e160e0830160c08401613963565b6110da610100820160e083016138b5565b6001600160801b03165f0361110257604051631f2a200560e01b815260040160405180910390fd5b61111260c0820160a083016139d7565b6001600160401b0316431161115d574361113260c0830160a084016139d7565b6040516374276dcf60e11b815260048101929092526001600160401b03166024820152604401610777565b5f61116782611dbc565b905061117281611ec5565b611190815f908152600a60205260409020805460ff19166001179055565b5f611199611fae565b90507f3cb8789e9bf6f532eec2bc8ffee9b622fc0d6e6daefb7fb6bb2e2f7b2d62e452826111c683611ffe565b6040516111d4929190613e3e565b60405180910390a1505050565b6111ed60066012613e25565b6111f890600a613ca5565b81565b611203611a2c565b61120b611bcd565b600354600160401b900460ff161561123657604051633dbff3b560e01b815260040160405180910390fd5b5f6112777f00000000000000000000000000000000000000000000000000000000000000006112658580613a9c565b6112726020880188613a9c565b612122565b90505f6112a87f00000000000000000000000000000000000000000000000000000000000000006112658580613a9c565b6003805460ff60401b1916600160401b17905590507fc255ddc45163282f24909556f7475ab4ec8eb1d51763b25a4560cee9f43d06456112e88580613a9c565b9050836112f58680613a9c565b60405161131c94939250869093845260208401929092526040830152606082015260800190565b60405180910390a150505050565b611332611a2c565b6110a35f612261565b5f61105d7f00000000000000000000000000000000000000000000000000000000000000006001600160a01b03166318160ddd6040518163ffffffff1660e01b8152600401602060405180830381865afa158015611034573d5f5f3e3d5ffd5b5f546001600160a01b031633148015906113ce57506113b8611474565b6001600160a01b0316336001600160a01b031614155b156113ee5760405163354de03160e21b8152336004820152602401610777565b6110a36122d1565b6113fe611a2c565b6001600160a01b0381166114255760405163a91f6a8960e01b815260040160405180910390fd5b5f80546001600160a01b038381166001600160a01b0319831681178455604051919092169283917f064d28d3d3071c5cbc271a261c10c2f0f0d9e319390397101aa0eb23c6bad9099190a35050565b7f9016d09d72d40fdae2fd8ceac6b6234c7706214fd39c1cd1e609a0528c199300546001600160a01b031690565b5f6114ab612319565b805490915060ff600160401b82041615906001600160401b03165f811580156114d15750825b90505f826001600160401b031660011480156114ec5750303b155b9050811580156114fa575080155b156115185760405163f92ee8a960e01b815260040160405180910390fd5b845467ffffffffffffffff19166001178555831561154257845460ff60401b1916600160401b1785555b6001600160a01b038b16611569576040516314030c0360e11b815260040160405180910390fd5b6001600160a01b038a166115905760405163a91f6a8960e01b815260040160405180910390fd5b88158061159b575087155b806115a4575086155b156115c45760405163665c282b60e01b81525f6004820152602401610777565b856001600160801b03165f036115ed57604051632440a7dd60e01b815260040160405180910390fd5b6115f68b612341565b6115fe612352565b5f80546001600160a01b0319166001600160a01b038c1617905561162489888a89611b7c565b600880546001600160801b0319166001600160801b03881617905560405189907fac3566d46c25f65b48d269870da4b9349704c79de13ad49b115532834d7e7ed1905f90a283156116af57845460ff60401b19168555604051600181527fc7f505b2f371ae2175ee4913f4499e1f2633a7b5936321eed1cdaeb6115181d29060200160405180910390a15b5050505050505050505050565b6116c4611bcd565b81158015906117225750600283836116dd600182613e66565b8181106116ec576116ec613afc565b90506020028101906116fe9190613e79565b61170f906040810190602001613e8d565b600281111561172057611720613e52565b145b156117405760405163bf3d210b60e01b815260040160405180910390fd5b60065461176057604051632c1dfd4f60e11b815260040160405180910390fd5b5f61176a8561235a565b6002549091505f846001600160401b0381111561178957611789613ae8565b6040519080825280602002602001820160405280156117b2578160200160208202803683370190505b5090505f856001600160401b038111156117ce576117ce613ae8565b6040519080825280602002602001820160405280156117f7578160200160208202803683370190505b5090505f6118078888858561251c565b90505f5b878110156119e3573689898381811061182657611826613afc565b90506020028101906118389190613e79565b600180549192505f91611856916001600160401b0390911690613eab565b90506001600160401b03811661186f60208401846139d7565b6001600160401b0316146118b7578061188b60208401846139d7565b604051635efa452960e11b81526001600160401b03928316600482015291166024820152604401610777565b60026118c96040840160208501613e8d565b60028111156118da576118da613e52565b036118f1576118ea82888b612783565b96506119d9565b5f6119026040840160208501613e8d565b600281111561191357611913613e52565b0361192e576119248289898c612993565b90985096506119d9565b60016119406040840160208501613e8d565b600281111561195157611951613e52565b03611999576118ea8289898787148a888151811061197157611971613afc565b60200260200101518a898151811061198b5761198b613afc565b60200260200101518f612b7d565b6119a96040830160208401613e8d565b60028111156119ba576119ba613e52565b60405163b99607f960e01b815260ff9091166004820152602401610777565b505060010161180b565b50505050505050505050565b6119f7611a2c565b6001600160a01b038116611a2057604051631e4fbdf760e01b81525f6004820152602401610777565b611a2981612261565b50565b33611a35611474565b6001600160a01b0316146110a35760405163118cdaa760e01b8152336004820152602401610777565b5f5f5f85515f03611a845760405163665c282b60e01b81525f6004820152602401610777565b8451865114611aa65760405163512509d360e11b815260040160405180910390fd5b5f805b8751811015611b60575f888281518110611ac557611ac5613afc565b602002602001015190505f888381518110611ae257611ae2613afc565b602002602001015190505f6001600160a01b0316826001600160a01b03161480611b0a575080155b80611b275750836001600160a01b0316826001600160a01b031611155b15611b485760405163665c282b60e01b815260048101849052602401610777565b611b528187613ce9565b955090925050600101611aa9565b5086519150611b70878787612e0f565b93505093509350939050565b60408051608081018252848152602081018490529081018590526001600160801b039091166060909101819052600492909255600555600691909155600780546001600160801b0319169091179055565b5f5160206143e35f395f51905f525460ff16156110a35760405163d93c066560e01b815260040160405180910390fd5b466001600160401b038116611c1860608401604085016139d7565b6001600160401b031614611c635780611c3760608401604085016139d7565b6040516332e3634d60e21b81526001600160401b03928316600482015291166024820152604401610777565b5050565b6001600160a01b038116611c9957604051635f8b555b60e11b81526001600160a01b0382166004820152602401610777565b7f00000000000000000000000000000000000000000000000000000000000000006001600160a01b03161580611cf657507f00000000000000000000000000000000000000000000000000000000000000006001600160a01b0316155b15611d1f57604051635f8b555b60e11b81526001600160a01b0382166004820152602401610777565b7f00000000000000000000000000000000000000000000000000000000000000006001600160a01b0316816001600160a01b031614158015611d9357507f00000000000000000000000000000000000000000000000000000000000000006001600160a01b0316816001600160a01b031614155b15611a2957604051635f8b555b60e11b81526001600160a01b0382166004820152602401610777565b5f8135611dcf60408401602085016139d7565b611ddf60608501604086016139d7565b611def60808601606087016138b5565b611dff60a0870160808801613963565b611e0f60c0880160a089016139d7565b611e1f60e0890160c08a01613963565b611e306101008a0160e08b016138b5565b611e426101208b016101008c016138b5565b60408051602081019a909a526001600160401b03988916908a015295871660608901526001600160801b0394851660808901526001600160a01b0393841660a08901529590911660c08701521660e08501529182166101008401521661012082015261014001604051602081830303815290604052805190602001209050919050565b5f818152600a602052604090205460ff1615611a2957604051632910aca360e01b815260048101829052602401610777565b5f7f28bf99522b0d2f26a76cdeda71578156383bbae91175ca503165cfdbbd1ff34a4630611f2487611dbc565b6040805160208101959095528401929092526001600160a01b0316606083015260808201526001600160801b0380851660a0830152831660c082015260e0015b6040516020818303038152906040528051906020012090505b9392505050565b5f5f5f5f611f93878787612e25565b925092509250611fa38282612e6c565b509095945050505050565b5f8054611fcc90600160a01b90046001600160401b03166001613eab565b5f805467ffffffffffffffff60a01b1916600160a01b6001600160401b038416021790559050611ffb81612f24565b90565b604080516080810182525f808252602082018190529181018290526060810191909152604080516080810182526001600160401b03808516825260015416602082015290810161204c610fd4565b6001600160801b0316815260200161206261133b565b6001600160801b0316905292915050565b5f8061208160066012613e25565b61208c90600a613ca5565b6120969084613cca565b90506001600160801b0381111561108d57604051639940a77560e01b815260048101829052602401610777565b6120cb6130ed565b5f5160206143e35f395f51905f52805460ff191681557f5db9ee0a495bf2e6ff9c91a7834c1ba4fdd244a5e8aa4e537bd38aeae4b073aa335b6040516001600160a01b03909116815260200160405180910390a150565b5f8382146121435760405163512509d360e11b815260040160405180910390fd5b5f5b84811015612257575f86868381811061216057612160613afc565b90506020020160208101906121759190613963565b90505f85858481811061218a5761218a613afc565b60200291909101359150506001600160a01b0382166121bf57604051633bca2f5160e21b815260048101849052602401610777565b805f036121df57604051631f2a200560e01b815260040160405180910390fd5b6040516340c10f1960e01b81526001600160a01b038381166004830152602482018390528a16906340c10f19906044015f604051808303815f87803b158015612226575f5ffd5b505af1158015612238573d5f5f3e3d5ffd5b5050505080846122489190613ce9565b93505050806001019050612145565b5095945050505050565b7f9016d09d72d40fdae2fd8ceac6b6234c7706214fd39c1cd1e609a0528c19930080546001600160a01b031981166001600160a01b03848116918217845560405192169182907f8be0079c531659141344cd1fd0a4f28419497f9722a3daafe3b4186f6b6457e0905f90a3505050565b6122d9611bcd565b5f5160206143e35f395f51905f52805460ff191660011781557f62e78cea01bee320cd4e420270b5ea74000d11b0c9f74754ebdbfc544b05a25833612104565b5f807ff0c57e16840df040f15088dc2f81fe391c3923bec73e23a9662efc9c229c6a0061108d565b61234961311c565b611a2981613141565b6110a361311c565b6123896040518060a0016040528060608152602001606081526020015f81526020015f81526020015f81525090565b5f808061241a6123998680613a9c565b808060200260200160405190810160405280939291908181526020018383602002808284375f920191909152506123d7925050506020880188613a9c565b808060200260200160405190810160405280939291908181526020018383602002808284375f92019190915250506007546001600160801b03169150611a5e9050565b9250925092506004600201548314158061243657506004548214155b8061244357506005548114155b1561246f57600654604051633b21437560e21b8152600481019190915260248101849052604401610777565b6040805160a08101909152806124858780613a9c565b808060200260200160405190810160405280939291908181526020018383602002808284375f920191909152505050908252506020908101906124ca90880188613a9c565b808060200260200160405190810160405280939291908181526020018383602002808284375f920191909152505050908252506020810194909452604084019290925260609092019190915292915050565b825f816001600160401b0381111561253657612536613ae8565b60405190808252806020026020018201604052801561255f578160200160208202803683370190505b5090505f80865b80156125d15761257581613eca565b9050600289898381811061258b5761258b613afc565b905060200281019061259d9190613e79565b6125ae906040810190602001613e8d565b60028111156125bf576125bf613e52565b146125cc578094506125d1565b612566565b505f5b87811015612777575f8989838181106125ef576125ef613afc565b90506020028101906126019190613e79565b612612906040810190602001613e8d565b9050600181600281111561262857612628613e52565b036126675781858563ffffffff168151811061264657612646613afc565b63ffffffff9092166020928302919091019091015261266484613edf565b93505b5f81600281111561267a5761267a613e52565b148061268557508582145b1561276e5789898381811061269c5761269c613afc565b90506020028101906126ae9190613e79565b6126bc906060810190613a9c565b6126c7915084613f03565b925063ffffffff84161561276e575f5b8463ffffffff16811015612766575f8682815181106126f8576126f8613afc565b602002602001015163ffffffff169050858a828151811061271b5761271b613afc565b602002602001019063ffffffff16908163ffffffff16815250508489828151811061274857612748613afc565b63ffffffff90921660209283029190910190910152506001016126d7565b505f93505f92505b506001016125d4565b50505050949350505050565b5f806127926040860186613b2e565b81019061279f9190613f77565b90506127ae6060860186613a9c565b90506001146127e95760016127c66060870187613a9c565b604051636b01174760e11b81526004810193909352602483015250604401610777565b6128016127f960208701876139d7565b825186613149565b7f19457468657265756d205369676e6564204d6573736167653a0a3332000000005f908152601c829052603c812091935090612866906128446060890189613a9c565b5f81811061285457612854613afc565b90506020028101906109599190613b2e565b9050815f01516001600160a01b0316816001600160a01b0316146128b3578151604051630be4b0e160e01b81526001600160a01b0391821660048201529082166024820152604401610777565b81516001600160a01b039081165f9081526009602090815260408083208054875190951684529083209290925590916001600160801b0380821692600160801b9092041690612904908a018a6139d7565b6001805467ffffffffffffffff19166001600160401b039290921691909117905560028690555f612933611fae565b86519091506001600160a01b03167ff92f117a698345a1b681cf04280fb5da65a05a9ac88aaacad3e9ee273ce570fd84848b61296e86611ffe565b60405161297e9493929190613fc0565b60405180910390a25050505050509392505050565b6129c26040518060a0016040528060608152602001606081526020015f81526020015f81526020015f81525090565b5f806129d16040880188613b2e565b8101906129de9190614077565b905080602001516001600160801b03165f03612a0d57604051632440a7dd60e01b815260040160405180910390fd5b5f5f5f612a2c845f01515f0151855f0151602001518660200151611a5e565b91945092509050612a5f612a4360208c018c6139d7565b60408b015186518051602091820151918901519091908d6131b0565b9450612a9185612a7260608d018d613a9c565b612a7b916141ad565b8b5160208d015160608e015160808f01516131e5565b612aa18383838760200151611b7c565b602084810151600880546001600160801b0319166001600160801b03909216919091179055612ad2908b018b6139d7565b6001805467ffffffffffffffff19166001600160401b039290921691909117905560028590555f612b01611fae565b90507fb3dbfeab9c5013403dc2f2300318b92643b1cb9323077d549b4f93bbddded9638489612b2f84611ffe565b604051612b3e9392919061426d565b60405180910390a1506040805160a081018252855151815294516020908101519086015284019290925260608301526080820152915094509492505050565b5f80612b8c60408a018a613b2e565b810190612b999190614288565b60408101519091506001600160a01b0316612bc75760405163611b32ab60e01b815260040160405180910390fd5b80516001600160801b0316158015612bea575060208101516001600160801b0316155b15612c19576040808201519051632edcd91760e21b81526001600160a01b039091166004820152602401610777565b63ffffffff85161580612c30575063ffffffff8416155b15612c5f576040808201519051632edcd91760e21b81526001600160a01b039091166004820152602401610777565b6040808201516001600160a01b03165f90815260096020522080546001600160801b0316151580612ca057508054600160801b90046001600160801b031615155b15612ccf57604080830151905163cb96603760e01b81526001600160a01b039091166004820152602401610777565b612cf8612cdf60208c018c6139d7565b8a60400151845f0151856020015186604001518d61322a565b92508615612d1157612d1183612a7260608d018d613a9c565b60408051808201825283516001600160801b0390811682526020808601518216818401908152868501516001600160a01b03165f9081526009835294909420925193518216600160801b0293909116929092179055612d72908b018b6139d7565b6001805467ffffffffffffffff19166001600160401b039290921691909117905560028390555f612da1611fae565b905082604001516001600160a01b03167fc0f81072946eba75f62302dad0fe56dd420d0b9d311e15b61bbe6e056c29908d845f015185602001518a8a8a612de788611ffe565b604051612df9969594939291906142f3565b60405180910390a2505050979650505050505050565b5f838383604051602001611f6493929190614334565b5f80806041849003612e59578435602086013560408701355f1a612e4b89828585613258565b955095509550505050612e63565b505f915060029050825b93509350939050565b5f826003811115612e7f57612e7f613e52565b03612e88575050565b6001826003811115612e9c57612e9c613e52565b03612eba5760405163f645eedf60e01b815260040160405180910390fd5b6002826003811115612ece57612ece613e52565b03612eef5760405163fce698f760e01b815260048101829052602401610777565b6003826003811115612f0357612f03613e52565b03611c63576040516335e2f38360e21b815260048101829052602401610777565b60035443906001600160401b03165f03612fe6576003805467ffffffffffffffff19166001908117909155604080516060810182526001600160401b03938416815293831660208086018281529286019182525f93909352600b90925292517f72c6bfb7988af3a1efa6568f02a999bc52252641c659d85961ca3d372b57d5cf8054945192518416600160801b0267ffffffffffffffff60801b19938516600160401b026001600160801b031990961692909416919091179390931716179055565b6003546001600160401b039081165f908152600b602052604090208054909183811691160361303c5780546001600160401b03909316600160801b0267ffffffffffffffff60801b199093169290921790915550565b6003545f90613055906001600160401b03166001613eab565b600380546001600160401b0392831667ffffffffffffffff19909116811790915560408051606081018252958316865295821660208087018281528789019283525f938452600b9091529690912094518554965191518316600160801b0267ffffffffffffffff60801b19928416600160401b026001600160801b031990981691909316179590951794909416939093179091555050565b5f5160206143e35f395f51905f525460ff166110a357604051638dfc202b60e01b815260040160405180910390fd5b613124613320565b6110a357604051631afcd79f60e31b815260040160405180910390fd5b6119f761311c565b604080517fad7e1df8fff16b907a93b4116c7590060dfa3b9c396a8b815e8290b0dff45cba602082015246918101919091523060608201526001600160401b03841660808201526001600160a01b03831660a082015260c081018290525f9060e001611f64565b5f5f6131bd868686612e0f565b90506131d788885f846131d18b8b8b613339565b886133a4565b9150505b9695505050505050565b5f5f6131f388888888613456565b91509150613203828286866135ec565b6132205760405163079842ab60e41b815260040160405180910390fd5b5050505050505050565b5f61324d878760016001600160a01b0387166132478a8a8a613650565b876133a4565b979650505050505050565b5f80807f7fffffffffffffffffffffffffffffff5d576e7357a4501ddfe92f46681b20a084111561329157505f91506003905082613316565b604080515f808252602082018084528a905260ff891692820192909252606081018790526080810186905260019060a0016020604051602081039080840390855afa1580156132e2573d5f5f3e3d5ffd5b5050604051601f1901519150506001600160a01b03811661330d57505f925060019150829050613316565b92505f91508190505b9450945094915050565b5f613329612319565b54600160401b900460ff16919050565b5f7f82ce6440aa5dde11f3613892819b630b62342bacf93e16a292d5c8783aafa4c34630613368878787612e0f565b6040805160208101959095528401929092526001600160a01b0316606083015260808201526001600160801b03831660a082015260c001611f64565b5f7f41936771719a172aa959076ca6aafb826eaf332dd0c9e7860901c398ef42da05463089898960028111156133dc576133dc613e52565b6040805160208101979097528601949094526001600160a01b0390921660608501526001600160401b0316608084015260a083015260ff1660c082015260e0810185905261010081018490526101208101839052610140016040516020818303038152906040528051906020012090509695505050505050565b7f19457468657265756d205369676e6564204d6573736167653a0a3332000000005f908152601c859052603c8120819081905f805b88518110156135df575f6134b8848b84815181106134ab576134ab613afc565b60200260200101516136ac565b9050846001600160a01b0316816001600160a01b0316116134ec576040516309cf9e4960e11b815260040160405180910390fd5b8851831080156135265750806001600160a01b031689848151811061351357613513613afc565b60200260200101516001600160a01b0316105b1561353b57613534836143ca565b92506134ec565b88518314806135755750806001600160a01b031689848151811061356157613561613afc565b60200260200101516001600160a01b031614155b156135965760405163665c282b60e01b815260048101839052602401610777565b61359f876143ca565b96508783815181106135b3576135b3613afc565b6020026020010151866135c69190613ce9565b95509350836135d4836143ca565b92505060010161348b565b5050505094509492505050565b5f806135f88684613e66565b905061360584605a613cb3565b613610866064613cb3565b1061361f576001915050613648565b600281111580156136445750613636846050613cb3565b613641866064613cb3565b10155b9150505b949350505050565b5f7f1cd7f89e34f6154d6f8387a08ffafc689e347b8d5809913b07c58a42995dff66463061367f8787876136d4565b6040805160208101959095528401929092526001600160a01b03166060830152608082015260a001611f64565b5f5f5f5f6136ba868661370a565b9250925092506136ca8282612e6c565b5090949350505050565b604080516001600160801b0380861660208301528416918101919091526001600160a01b03821660608201525f90608001611f64565b5f5f5f8351604103613741576020840151604085015160608601515f1a61373388828585613258565b95509550955050505061374c565b505081515f91506002905b9250925092565b5f60408284031215613763575f5ffd5b50919050565b80356001600160801b038116811461377f575f5ffd5b919050565b5f5f60408385031215613795575f5ffd5b82356001600160401b038111156137aa575f5ffd5b6137b685828601613753565b9250506137c560208401613769565b90509250929050565b5f6101208284031215613763575f5ffd5b5f5f61014083850312156137f1575f5ffd5b6137fb84846137ce565b91506101208301356001600160401b03811115613816575f5ffd5b830160208186031215613827575f5ffd5b809150509250929050565b80356001600160a01b038116811461377f575f5ffd5b5f5f5f5f5f5f5f60e0888a03121561385e575f5ffd5b61386788613832565b965061387560208901613769565b95506040880135945060608801359350608088013560ff81168114613898575f5ffd5b9699959850939692959460a0840135945060c09093013592915050565b5f602082840312156138c5575f5ffd5b611f7d82613769565b5f61012082840312156138df575f5ffd5b611f7d83836137ce565b5f5f604083850312156138fa575f5ffd5b82356001600160401b0381111561390f575f5ffd5b61391b85828601613753565b92505060208301356001600160401b03811115613936575f5ffd5b61394285828601613753565b9150509250929050565b5f6020828403121561395c575f5ffd5b5035919050565b5f60208284031215613973575f5ffd5b611f7d82613832565b5f5f5f5f5f5f60c08789031215613991575f5ffd5b61399a87613832565b95506139a860208801613832565b94506040870135935060608701359250608087013591506139cb60a08801613769565b90509295509295509295565b5f602082840312156139e7575f5ffd5b81356001600160401b0381168114611f7d575f5ffd5b5f5f5f5f60608587031215613a10575f5ffd5b84356001600160401b03811115613a25575f5ffd5b613a3187828801613753565b94505060208501356001600160401b03811115613a4c575f5ffd5b8501601f81018713613a5c575f5ffd5b80356001600160401b03811115613a71575f5ffd5b8760208260051b8401011115613a85575f5ffd5b949760209190910196509394604001359392505050565b5f5f8335601e19843603018112613ab1575f5ffd5b8301803591506001600160401b03821115613aca575f5ffd5b6020019150600581901b3603821315613ae1575f5ffd5b9250929050565b634e487b7160e01b5f52604160045260245ffd5b634e487b7160e01b5f52603260045260245ffd5b5f8235605e19833603018112613b24575f5ffd5b9190910192915050565b5f5f8335601e19843603018112613b43575f5ffd5b8301803591506001600160401b03821115613b5c575f5ffd5b602001915036819003821315613ae1575f5ffd5b634e487b7160e01b5f52601160045260245ffd5b6001600160801b03828116828216039081111561108d5761108d613b70565b6001600160801b03818116838216019081111561108d5761108d613b70565b6001815b6001841115613bfd57808504811115613be157613be1613b70565b6001841615613bef57908102905b60019390931c928002613bc6565b935093915050565b5f82613c135750600161108d565b81613c1f57505f61108d565b8160018114613c355760028114613c3f57613c5b565b600191505061108d565b60ff841115613c5057613c50613b70565b50506001821b61108d565b5060208310610133831016604e8410600b8410161715613c7e575081810a61108d565b613c8a5f198484613bc2565b805f1904821115613c9d57613c9d613b70565b029392505050565b5f611f7d60ff841683613c05565b808202811582820484141761108d5761108d613b70565b5f82613ce457634e487b7160e01b5f52601260045260245ffd5b500490565b8082018082111561108d5761108d613b70565b6001600160401b0381511682526001600160401b0360208201511660208301526001600160801b0360408201511660408301526001600160801b0360608201511660608301525050565b8581526001600160a01b0385166020808301919091526001600160801b03851660408301526101006060830181905284519083018190525f91850190610120840190835b81811015613dd657835180516001600160a01b031684526020808201516001600160801b0390811682870152604092830151169185019190915290930192606090920191600101613d8a565b505080925050506131db6080830184613cfc565b6001600160801b03841681526020810183905260c081016136486040830184613cfc565b5f60208284031215613e1e575f5ffd5b5051919050565b60ff828116828216039081111561108d5761108d613b70565b82815260a08101611f7d6020830184613cfc565b634e487b7160e01b5f52602160045260245ffd5b8181038181111561108d5761108d613b70565b5f8235607e19833603018112613b24575f5ffd5b5f60208284031215613e9d575f5ffd5b813560038110611f7d575f5ffd5b6001600160401b03818116838216019081111561108d5761108d613b70565b5f81613ed857613ed8613b70565b505f190190565b5f63ffffffff821663ffffffff8103613efa57613efa613b70565b60010192915050565b63ffffffff818116838216019081111561108d5761108d613b70565b604080519081016001600160401b0381118282101715613f4157613f41613ae8565b60405290565b604051601f8201601f191681016001600160401b0381118282101715613f6f57613f6f613ae8565b604052919050565b5f6020828403128015613f88575f5ffd5b50604051602081016001600160401b0381118282101715613fab57613fab613ae8565b604052613fb783613832565b81529392505050565b6001600160801b038581168252841660208201526040810183905260e08101613fec6060830184613cfc565b95945050505050565b5f6001600160401b0382111561400d5761400d613ae8565b5060051b60200190565b5f82601f830112614026575f5ffd5b813561403961403482613ff5565b613f47565b8082825260208201915060208360051b86010192508583111561405a575f5ffd5b602085015b8381101561225757803583526020928301920161405f565b5f60208284031215614087575f5ffd5b81356001600160401b0381111561409c575f5ffd5b8201604081850312156140ad575f5ffd5b6140b5613f1f565b81356001600160401b038111156140ca575f5ffd5b8201604081870312156140db575f5ffd5b6140e3613f1f565b81356001600160401b038111156140f8575f5ffd5b8201601f81018813614108575f5ffd5b803561411661403482613ff5565b8082825260208201915060208360051b85010192508a831115614137575f5ffd5b6020840193505b828410156141605761414f84613832565b82526020938401939091019061413e565b845250505060208201356001600160401b0381111561417d575f5ffd5b61418988828501614017565b60208301525080835250506141a060208301613769565b6020820152949350505050565b5f6141ba61403484613ff5565b8381526020810190600585901b8401368111156141d5575f5ffd5b845b81811015611fa35780356001600160401b038111156141f4575f5ffd5b860136601f820112614204575f5ffd5b80356001600160401b0381111561421d5761421d613ae8565b614230601f8201601f1916602001613f47565b818152366020838501011115614244575f5ffd5b816020840160208301375f602083830101528087525050506020840193506020810190506141d7565b8381526020810183905260c081016136486040830184613cfc565b5f6060828403128015614299575f5ffd5b50604051606081016001600160401b03811182821017156142bc576142bc613ae8565b6040526142c883613769565b81526142d660208401613769565b60208201526142e760408401613832565b60408201529392505050565b6001600160801b0387811682528616602082015263ffffffff85811660408301528416606082015260808101839052610120810161324d60a0830184613cfc565b606080825284519082018190525f9060208601906080840190835b818110156143765783516001600160a01b031683526020938401939092019160010161434f565b5050838103602080860191909152865180835291810192508601905f5b818110156143b1578251845260209384019390920191600101614393565b5050506001600160801b03841660408401529050613648565b5f600182016143db576143db613b70565b506001019056fecd5ed15c6e187e77e9aee88184c21f4f2182ab5827cb3b7e07fbedcd63f03300a26469706673582212205d3edb77152b901db2178bdb16828658a8f4a05a588b95b09228c2251a735f8464736f6c63430008230033",
  "linkReferences": {},
  "deployedLinkReferences": {},
  "immutableReferences": {
    "10415": [
      {
        "length": 32,
        "start": 1065
      },
      {
        "length": 32,
        "start": 2957
      },
      {
        "length": 32,
        "start": 4058
      },
      {
        "length": 32,
        "start": 4668
      },
      {
        "length": 32,
        "start": 7323
      },
      {
        "length": 32,
        "start": 7457
      }
    ],
    "10418": [
      {
        "length": 32,
        "start": 735
      },
      {
        "length": 32,
        "start": 4735
      },
      {
        "length": 32,
        "start": 4929
      },
      {
        "length": 32,
        "start": 7372
      },
      {
        "length": 32,
        "start": 7518
      }
    ]
  },
  "inputSourceName": "project/contracts/MintingGateway.sol",
  "buildInfoId": "solc-0_8_35-af6d7f63b2fca589d9b3a2ad6779fdf0c9bca04d"
}