{
  "_format": "hh3-artifact-1",
  "contractName": "MintingGateway",
  "sourceName": "contracts/MintingGateway.sol",
  "abi": [
    {
      "inputs": [
        {
          "internalType": "address",
          "name": "argonTokenAddress",
          "type": "address"
        },
        {
          "internalType": "address",
          "name": "argonotTokenAddress",
          "type": "address"
        }
      ],
      "stateMutability": "nonpayable",
      "type": "constructor"
    },
    {
      "inputs": [],
      "name": "ArrayLengthMismatch",
      "type": "error"
    },
    {
      "inputs": [],
      "name": "ECDSAInvalidSignature",
      "type": "error"
    },
    {
      "inputs": [
        {
          "internalType": "uint256",
          "name": "length",
          "type": "uint256"
        }
      ],
      "name": "ECDSAInvalidSignatureLength",
      "type": "error"
    },
    {
      "inputs": [
        {
          "internalType": "bytes32",
          "name": "s",
          "type": "bytes32"
        }
      ],
      "name": "ECDSAInvalidSignatureS",
      "type": "error"
    },
    {
      "inputs": [],
      "name": "EnforcedPause",
      "type": "error"
    },
    {
      "inputs": [],
      "name": "ExpectedPause",
      "type": "error"
    },
    {
      "inputs": [],
      "name": "GlobalIssuanceCouncilNotBootstrapped",
      "type": "error"
    },
    {
      "inputs": [],
      "name": "GlobalIssuanceCouncilQuorumNotMet",
      "type": "error"
    },
    {
      "inputs": [
        {
          "internalType": "uint256",
          "name": "authorized",
          "type": "uint256"
        },
        {
          "internalType": "uint256",
          "name": "required",
          "type": "uint256"
        }
      ],
      "name": "InsufficientAuthorizedCollateral",
      "type": "error"
    },
    {
      "inputs": [
        {
          "internalType": "uint64",
          "name": "expected",
          "type": "uint64"
        },
        {
          "internalType": "uint64",
          "name": "provided",
          "type": "uint64"
        }
      ],
      "name": "InvalidChainId",
      "type": "error"
    },
    {
      "inputs": [
        {
          "internalType": "bytes32",
          "name": "expected",
          "type": "bytes32"
        },
        {
          "internalType": "bytes32",
          "name": "provided",
          "type": "bytes32"
        }
      ],
      "name": "InvalidCurrentCouncilSnapshot",
      "type": "error"
    },
    {
      "inputs": [
        {
          "internalType": "uint256",
          "name": "index",
          "type": "uint256"
        }
      ],
      "name": "InvalidGlobalIssuanceCouncilMember",
      "type": "error"
    },
    {
      "inputs": [],
      "name": "InvalidInitialization",
      "type": "error"
    },
    {
      "inputs": [],
      "name": "InvalidMicrogonCollateralForArgonotPayout",
      "type": "error"
    },
    {
      "inputs": [
        {
          "internalType": "address",
          "name": "signingKey",
          "type": "address"
        }
      ],
      "name": "InvalidMintingAuthority",
      "type": "error"
    },
    {
      "inputs": [
        {
          "internalType": "uint64",
          "name": "expected",
          "type": "uint64"
        },
        {
          "internalType": "uint64",
          "name": "provided",
          "type": "uint64"
        }
      ],
      "name": "InvalidQueueNonce",
      "type": "error"
    },
    {
      "inputs": [
        {
          "internalType": "uint256",
          "name": "expected",
          "type": "uint256"
        },
        {
          "internalType": "uint256",
          "name": "provided",
          "type": "uint256"
        }
      ],
      "name": "InvalidSignatureCount",
      "type": "error"
    },
    {
      "inputs": [],
      "name": "InvalidSignatureOrder",
      "type": "error"
    },
    {
      "inputs": [
        {
          "internalType": "uint128",
          "name": "maxRate",
          "type": "uint128"
        },
        {
          "internalType": "uint128",
          "name": "providedRate",
          "type": "uint128"
        }
      ],
      "name": "InvalidTransferOutRate",
      "type": "error"
    },
    {
      "inputs": [
        {
          "internalType": "uint8",
          "name": "kind",
          "type": "uint8"
        }
      ],
      "name": "InvalidUpdateKind",
      "type": "error"
    },
    {
      "inputs": [],
      "name": "MigrationAlreadyCompleted",
      "type": "error"
    },
    {
      "inputs": [
        {
          "internalType": "address",
          "name": "signingKey",
          "type": "address"
        }
      ],
      "name": "MintingAuthorityAlreadyActive",
      "type": "error"
    },
    {
      "inputs": [
        {
          "internalType": "address",
          "name": "signingKey",
          "type": "address"
        }
      ],
      "name": "MintingAuthorityTransferCapacityExceeded",
      "type": "error"
    },
    {
      "inputs": [
        {
          "internalType": "address",
          "name": "caller",
          "type": "address"
        }
      ],
      "name": "NotGuardianOrOwner",
      "type": "error"
    },
    {
      "inputs": [],
      "name": "NotInitializing",
      "type": "error"
    },
    {
      "inputs": [
        {
          "internalType": "address",
          "name": "owner",
          "type": "address"
        }
      ],
      "name": "OwnableInvalidOwner",
      "type": "error"
    },
    {
      "inputs": [
        {
          "internalType": "address",
          "name": "account",
          "type": "address"
        }
      ],
      "name": "OwnableUnauthorizedAccount",
      "type": "error"
    },
    {
      "inputs": [
        {
          "internalType": "uint256",
          "name": "amount",
          "type": "uint256"
        }
      ],
      "name": "RuntimeAmountOverflow",
      "type": "error"
    },
    {
      "inputs": [
        {
          "internalType": "uint256",
          "name": "maxAllowed",
          "type": "uint256"
        },
        {
          "internalType": "uint256",
          "name": "provided",
          "type": "uint256"
        }
      ],
      "name": "TooManyGatewayUpdates",
      "type": "error"
    },
    {
      "inputs": [
        {
          "internalType": "uint256",
          "name": "maxAllowed",
          "type": "uint256"
        },
        {
          "internalType": "uint256",
          "name": "provided",
          "type": "uint256"
        }
      ],
      "name": "TooManyMintingAuthorizations",
      "type": "error"
    },
    {
      "inputs": [
        {
          "internalType": "bytes32",
          "name": "transferId",
          "type": "bytes32"
        }
      ],
      "name": "TransferOutOfArgonAlreadyFinalized",
      "type": "error"
    },
    {
      "inputs": [
        {
          "internalType": "uint256",
          "name": "currentBlock",
          "type": "uint256"
        },
        {
          "internalType": "uint256",
          "name": "validUntilBlock",
          "type": "uint256"
        }
      ],
      "name": "TransferOutOfArgonExpired",
      "type": "error"
    },
    {
      "inputs": [
        {
          "internalType": "uint256",
          "name": "currentBlock",
          "type": "uint256"
        },
        {
          "internalType": "uint256",
          "name": "validUntilBlock",
          "type": "uint256"
        }
      ],
      "name": "TransferOutOfArgonNotExpired",
      "type": "error"
    },
    {
      "inputs": [
        {
          "internalType": "address",
          "name": "token",
          "type": "address"
        }
      ],
      "name": "UnsupportedToken",
      "type": "error"
    },
    {
      "inputs": [],
      "name": "ZeroAdminSafe",
      "type": "error"
    },
    {
      "inputs": [],
      "name": "ZeroAmount",
      "type": "error"
    },
    {
      "inputs": [],
      "name": "ZeroGuardian",
      "type": "error"
    },
    {
      "inputs": [],
      "name": "ZeroMicrogonsPerArgonot",
      "type": "error"
    },
    {
      "inputs": [
        {
          "internalType": "uint256",
          "name": "index",
          "type": "uint256"
        }
      ],
      "name": "ZeroRecipient",
      "type": "error"
    },
    {
      "inputs": [],
      "name": "ZeroSigningKey",
      "type": "error"
    },
    {
      "anonymous": false,
      "inputs": [
        {
          "indexed": true,
          "internalType": "bytes32",
          "name": "councilHash",
          "type": "bytes32"
        }
      ],
      "name": "GlobalIssuanceCouncilBootstrapped",
      "type": "event"
    },
    {
      "anonymous": false,
      "inputs": [
        {
          "indexed": true,
          "internalType": "bytes32",
          "name": "previousCouncilHash",
          "type": "bytes32"
        },
        {
          "indexed": true,
          "internalType": "bytes32",
          "name": "councilHash",
          "type": "bytes32"
        }
      ],
      "name": "GlobalIssuanceCouncilForceUpdated",
      "type": "event"
    },
    {
      "anonymous": false,
      "inputs": [
        {
          "indexed": false,
          "internalType": "bytes32",
          "name": "councilHash",
          "type": "bytes32"
        },
        {
          "indexed": false,
          "internalType": "bytes32",
          "name": "approvalHash",
          "type": "bytes32"
        },
        {
          "indexed": false,
          "internalType": "bytes32",
          "name": "relayerArgonAccountId",
          "type": "bytes32"
        },
        {
          "components": [
            {
              "internalType": "uint64",
              "name": "gatewayActivityNonce",
              "type": "uint64"
            },
            {
              "internalType": "uint64",
              "name": "argonApprovalsNonce",
              "type": "uint64"
            },
            {
              "internalType": "uint128",
              "name": "argonCirculation",
              "type": "uint128"
            },
            {
              "internalType": "uint128",
              "name": "argonotCirculation",
              "type": "uint128"
            }
          ],
          "indexed": false,
          "internalType": "struct MintingGateway.GatewayActivityState",
          "name": "gatewayState",
          "type": "tuple"
        }
      ],
      "name": "GlobalIssuanceCouncilRotated",
      "type": "event"
    },
    {
      "anonymous": false,
      "inputs": [
        {
          "indexed": true,
          "internalType": "address",
          "name": "previousGuardian",
          "type": "address"
        },
        {
          "indexed": true,
          "internalType": "address",
          "name": "newGuardian",
          "type": "address"
        }
      ],
      "name": "GuardianUpdated",
      "type": "event"
    },
    {
      "anonymous": false,
      "inputs": [
        {
          "indexed": false,
          "internalType": "uint64",
          "name": "version",
          "type": "uint64"
        }
      ],
      "name": "Initialized",
      "type": "event"
    },
    {
      "anonymous": false,
      "inputs": [
        {
          "indexed": false,
          "internalType": "uint256",
          "name": "argonRecipientCount",
          "type": "uint256"
        },
        {
          "indexed": false,
          "internalType": "uint256",
          "name": "argonTotalAmount",
          "type": "uint256"
        },
        {
          "indexed": false,
          "internalType": "uint256",
          "name": "argonotRecipientCount",
          "type": "uint256"
        },
        {
          "indexed": false,
          "internalType": "uint256",
          "name": "argonotTotalAmount",
          "type": "uint256"
        }
      ],
      "name": "MigrationCompleted",
      "type": "event"
    },
    {
      "anonymous": false,
      "inputs": [
        {
          "indexed": true,
          "internalType": "address",
          "name": "signingKey",
          "type": "address"
        },
        {
          "indexed": false,
          "internalType": "uint128",
          "name": "microgonCollateral",
          "type": "uint128"
        },
        {
          "indexed": false,
          "internalType": "uint128",
          "name": "micronotCollateral",
          "type": "uint128"
        },
        {
          "indexed": false,
          "internalType": "uint32",
          "name": "coactivationCount",
          "type": "uint32"
        },
        {
          "indexed": false,
          "internalType": "uint32",
          "name": "sharedSignatureCount",
          "type": "uint32"
        },
        {
          "indexed": false,
          "internalType": "bytes32",
          "name": "approvalHash",
          "type": "bytes32"
        },
        {
          "indexed": false,
          "internalType": "bytes32",
          "name": "relayerArgonAccountId",
          "type": "bytes32"
        },
        {
          "components": [
            {
              "internalType": "uint64",
              "name": "gatewayActivityNonce",
              "type": "uint64"
            },
            {
              "internalType": "uint64",
              "name": "argonApprovalsNonce",
              "type": "uint64"
            },
            {
              "internalType": "uint128",
              "name": "argonCirculation",
              "type": "uint128"
            },
            {
              "internalType": "uint128",
              "name": "argonotCirculation",
              "type": "uint128"
            }
          ],
          "indexed": false,
          "internalType": "struct MintingGateway.GatewayActivityState",
          "name": "gatewayState",
          "type": "tuple"
        }
      ],
      "name": "MintingAuthorityActivated",
      "type": "event"
    },
    {
      "anonymous": false,
      "inputs": [
        {
          "indexed": true,
          "internalType": "address",
          "name": "signingKey",
          "type": "address"
        },
        {
          "indexed": false,
          "internalType": "uint128",
          "name": "microgonCollateral",
          "type": "uint128"
        },
        {
          "indexed": false,
          "internalType": "uint128",
          "name": "micronotCollateral",
          "type": "uint128"
        },
        {
          "indexed": false,
          "internalType": "bytes32",
          "name": "approvalHash",
          "type": "bytes32"
        },
        {
          "indexed": false,
          "internalType": "bytes32",
          "name": "relayerArgonAccountId",
          "type": "bytes32"
        },
        {
          "components": [
            {
              "internalType": "uint64",
              "name": "gatewayActivityNonce",
              "type": "uint64"
            },
            {
              "internalType": "uint64",
              "name": "argonApprovalsNonce",
              "type": "uint64"
            },
            {
              "internalType": "uint128",
              "name": "argonCirculation",
              "type": "uint128"
            },
            {
              "internalType": "uint128",
              "name": "argonotCirculation",
              "type": "uint128"
            }
          ],
          "indexed": false,
          "internalType": "struct MintingGateway.GatewayActivityState",
          "name": "gatewayState",
          "type": "tuple"
        }
      ],
      "name": "MintingAuthorityDeactivated",
      "type": "event"
    },
    {
      "anonymous": false,
      "inputs": [
        {
          "indexed": true,
          "internalType": "address",
          "name": "previousOwner",
          "type": "address"
        },
        {
          "indexed": true,
          "internalType": "address",
          "name": "newOwner",
          "type": "address"
        }
      ],
      "name": "OwnershipTransferred",
      "type": "event"
    },
    {
      "anonymous": false,
      "inputs": [
        {
          "indexed": false,
          "internalType": "address",
          "name": "account",
          "type": "address"
        }
      ],
      "name": "Paused",
      "type": "event"
    },
    {
      "anonymous": false,
      "inputs": [
        {
          "indexed": false,
          "internalType": "bytes32",
          "name": "transferId",
          "type": "bytes32"
        },
        {
          "components": [
            {
              "internalType": "uint64",
              "name": "gatewayActivityNonce",
              "type": "uint64"
            },
            {
              "internalType": "uint64",
              "name": "argonApprovalsNonce",
              "type": "uint64"
            },
            {
              "internalType": "uint128",
              "name": "argonCirculation",
              "type": "uint128"
            },
            {
              "internalType": "uint128",
              "name": "argonotCirculation",
              "type": "uint128"
            }
          ],
          "indexed": false,
          "internalType": "struct MintingGateway.GatewayActivityState",
          "name": "gatewayState",
          "type": "tuple"
        }
      ],
      "name": "TransferOutOfArgonCanceled",
      "type": "event"
    },
    {
      "anonymous": false,
      "inputs": [
        {
          "indexed": false,
          "internalType": "bytes32",
          "name": "transferId",
          "type": "bytes32"
        },
        {
          "indexed": false,
          "internalType": "address",
          "name": "token",
          "type": "address"
        },
        {
          "indexed": false,
          "internalType": "uint128",
          "name": "amount",
          "type": "uint128"
        },
        {
          "components": [
            {
              "internalType": "address",
              "name": "signingKey",
              "type": "address"
            },
            {
              "internalType": "uint128",
              "name": "microgonCollateral",
              "type": "uint128"
            },
            {
              "internalType": "uint128",
              "name": "micronotCollateral",
              "type": "uint128"
            }
          ],
          "indexed": false,
          "internalType": "struct MintingGateway.MintingAuthorityCollateral[]",
          "name": "mintingCollateral",
          "type": "tuple[]"
        },
        {
          "components": [
            {
              "internalType": "uint64",
              "name": "gatewayActivityNonce",
              "type": "uint64"
            },
            {
              "internalType": "uint64",
              "name": "argonApprovalsNonce",
              "type": "uint64"
            },
            {
              "internalType": "uint128",
              "name": "argonCirculation",
              "type": "uint128"
            },
            {
              "internalType": "uint128",
              "name": "argonotCirculation",
              "type": "uint128"
            }
          ],
          "indexed": false,
          "internalType": "struct MintingGateway.GatewayActivityState",
          "name": "gatewayState",
          "type": "tuple"
        }
      ],
      "name": "TransferOutOfArgonFinalized",
      "type": "event"
    },
    {
      "anonymous": false,
      "inputs": [
        {
          "indexed": true,
          "internalType": "address",
          "name": "from",
          "type": "address"
        },
        {
          "indexed": true,
          "internalType": "address",
          "name": "token",
          "type": "address"
        },
        {
          "indexed": false,
          "internalType": "uint128",
          "name": "amount",
          "type": "uint128"
        },
        {
          "indexed": false,
          "internalType": "bytes32",
          "name": "argonAccountId",
          "type": "bytes32"
        },
        {
          "components": [
            {
              "internalType": "uint64",
              "name": "gatewayActivityNonce",
              "type": "uint64"
            },
            {
              "internalType": "uint64",
              "name": "argonApprovalsNonce",
              "type": "uint64"
            },
            {
              "internalType": "uint128",
              "name": "argonCirculation",
              "type": "uint128"
            },
            {
              "internalType": "uint128",
              "name": "argonotCirculation",
              "type": "uint128"
            }
          ],
          "indexed": false,
          "internalType": "struct MintingGateway.GatewayActivityState",
          "name": "gatewayState",
          "type": "tuple"
        }
      ],
      "name": "TransferToArgonStarted",
      "type": "event"
    },
    {
      "anonymous": false,
      "inputs": [
        {
          "indexed": false,
          "internalType": "address",
          "name": "account",
          "type": "address"
        }
      ],
      "name": "Unpaused",
      "type": "event"
    },
    {
      "inputs": [],
      "name": "ACTIVITY_HASH_VERSION",
      "outputs": [
        {
          "internalType": "uint8",
          "name": "",
          "type": "uint8"
        }
      ],
      "stateMutability": "view",
      "type": "function"
    },
    {
      "inputs": [],
      "name": "MAX_GATEWAY_UPDATES_PER_BATCH",
      "outputs": [
        {
          "internalType": "uint256",
          "name": "",
          "type": "uint256"
        }
      ],
      "stateMutability": "view",
      "type": "function"
    },
    {
      "inputs": [],
      "name": "MAX_MINTING_AUTHORIZATIONS_PER_TRANSFER",
      "outputs": [
        {
          "internalType": "uint256",
          "name": "",
          "type": "uint256"
        }
      ],
      "stateMutability": "view",
      "type": "function"
    },
    {
      "inputs": [],
      "name": "RUNTIME_DECIMALS",
      "outputs": [
        {
          "internalType": "uint8",
          "name": "",
          "type": "uint8"
        }
      ],
      "stateMutability": "view",
      "type": "function"
    },
    {
      "inputs": [],
      "name": "RUNTIME_TO_ERC20_SCALE",
      "outputs": [
        {
          "internalType": "uint256",
          "name": "",
          "type": "uint256"
        }
      ],
      "stateMutability": "view",
      "type": "function"
    },
    {
      "inputs": [],
      "name": "TOKEN_DECIMALS",
      "outputs": [
        {
          "internalType": "uint8",
          "name": "",
          "type": "uint8"
        }
      ],
      "stateMutability": "view",
      "type": "function"
    },
    {
      "inputs": [
        {
          "internalType": "uint64",
          "name": "locatorIndex",
          "type": "uint64"
        }
      ],
      "name": "activityBlockLocators",
      "outputs": [
        {
          "internalType": "uint64",
          "name": "blockNumber",
          "type": "uint64"
        },
        {
          "internalType": "uint64",
          "name": "startGatewayActivityNonce",
          "type": "uint64"
        },
        {
          "internalType": "uint64",
          "name": "endGatewayActivityNonce",
          "type": "uint64"
        },
        {
          "internalType": "bytes32",
          "name": "activityRoot",
          "type": "bytes32"
        }
      ],
      "stateMutability": "view",
      "type": "function"
    },
    {
      "inputs": [],
      "name": "activityBlockLocatorsMappingSlot",
      "outputs": [
        {
          "internalType": "uint256",
          "name": "slot",
          "type": "uint256"
        }
      ],
      "stateMutability": "pure",
      "type": "function"
    },
    {
      "inputs": [
        {
          "components": [
            {
              "internalType": "address[]",
              "name": "signers",
              "type": "address[]"
            },
            {
              "internalType": "uint256[]",
              "name": "weights",
              "type": "uint256[]"
            }
          ],
          "internalType": "struct MintingGateway.CouncilSnapshot",
          "name": "currentCouncil",
          "type": "tuple"
        },
        {
          "components": [
            {
              "internalType": "uint64",
              "name": "queueNonce",
              "type": "uint64"
            },
            {
              "internalType": "enum MintingGateway.GatewayUpdateKind",
              "name": "kind",
              "type": "uint8"
            },
            {
              "internalType": "bytes",
              "name": "payload",
              "type": "bytes"
            },
            {
              "internalType": "bytes[]",
              "name": "signatures",
              "type": "bytes[]"
            }
          ],
          "internalType": "struct MintingGateway.GatewayUpdate[]",
          "name": "updates",
          "type": "tuple[]"
        },
        {
          "internalType": "bytes32",
          "name": "relayerArgonAccountId",
          "type": "bytes32"
        }
      ],
      "name": "applyGatewayUpdates",
      "outputs": [],
      "stateMutability": "nonpayable",
      "type": "function"
    },
    {
      "inputs": [],
      "name": "argonApprovalsHash",
      "outputs": [
        {
          "internalType": "bytes32",
          "name": "",
          "type": "bytes32"
        }
      ],
      "stateMutability": "view",
      "type": "function"
    },
    {
      "inputs": [],
      "name": "argonApprovalsNonce",
      "outputs": [
        {
          "internalType": "uint64",
          "name": "",
          "type": "uint64"
        }
      ],
      "stateMutability": "view",
      "type": "function"
    },
    {
      "inputs": [],
      "name": "argonCirculation",
      "outputs": [
        {
          "internalType": "uint128",
          "name": "",
          "type": "uint128"
        }
      ],
      "stateMutability": "view",
      "type": "function"
    },
    {
      "inputs": [],
      "name": "argonToken",
      "outputs": [
        {
          "internalType": "address",
          "name": "",
          "type": "address"
        }
      ],
      "stateMutability": "view",
      "type": "function"
    },
    {
      "inputs": [],
      "name": "argonotCirculation",
      "outputs": [
        {
          "internalType": "uint128",
          "name": "",
          "type": "uint128"
        }
      ],
      "stateMutability": "view",
      "type": "function"
    },
    {
      "inputs": [],
      "name": "argonotToken",
      "outputs": [
        {
          "internalType": "address",
          "name": "",
          "type": "address"
        }
      ],
      "stateMutability": "view",
      "type": "function"
    },
    {
      "inputs": [
        {
          "components": [
            {
              "internalType": "bytes32",
              "name": "argonAccountId",
              "type": "bytes32"
            },
            {
              "internalType": "uint64",
              "name": "argonTransferNonce",
              "type": "uint64"
            },
            {
              "internalType": "uint64",
              "name": "chainId",
              "type": "uint64"
            },
            {
              "internalType": "uint128",
              "name": "microgonsPerArgonot",
              "type": "uint128"
            },
            {
              "internalType": "address",
              "name": "recipient",
              "type": "address"
            },
            {
              "internalType": "uint64",
              "name": "validUntilBlock",
              "type": "uint64"
            },
            {
              "internalType": "address",
              "name": "token",
              "type": "address"
            },
            {
              "internalType": "uint128",
              "name": "amount",
              "type": "uint128"
            },
            {
              "internalType": "uint128",
              "name": "mintingAuthorityTip",
              "type": "uint128"
            }
          ],
          "internalType": "struct MintingGateway.TransferOutOfArgonRequest",
          "name": "request",
          "type": "tuple"
        }
      ],
      "name": "cancelTransferOutOfArgon",
      "outputs": [],
      "stateMutability": "nonpayable",
      "type": "function"
    },
    {
      "inputs": [
        {
          "components": [
            {
              "internalType": "bytes32",
              "name": "argonAccountId",
              "type": "bytes32"
            },
            {
              "internalType": "uint64",
              "name": "argonTransferNonce",
              "type": "uint64"
            },
            {
              "internalType": "uint64",
              "name": "chainId",
              "type": "uint64"
            },
            {
              "internalType": "uint128",
              "name": "microgonsPerArgonot",
              "type": "uint128"
            },
            {
              "internalType": "address",
              "name": "recipient",
              "type": "address"
            },
            {
              "internalType": "uint64",
              "name": "validUntilBlock",
              "type": "uint64"
            },
            {
              "internalType": "address",
              "name": "token",
              "type": "address"
            },
            {
              "internalType": "uint128",
              "name": "amount",
              "type": "uint128"
            },
            {
              "internalType": "uint128",
              "name": "mintingAuthorityTip",
              "type": "uint128"
            }
          ],
          "internalType": "struct MintingGateway.TransferOutOfArgonRequest",
          "name": "request",
          "type": "tuple"
        },
        {
          "components": [
            {
              "components": [
                {
                  "internalType": "uint128",
                  "name": "microgonCollateral",
                  "type": "uint128"
                },
                {
                  "internalType": "uint128",
                  "name": "micronotCollateral",
                  "type": "uint128"
                },
                {
                  "internalType": "bytes",
                  "name": "signature",
                  "type": "bytes"
                }
              ],
              "internalType": "struct MintingGateway.MintingAuthorization[]",
              "name": "authorizations",
              "type": "tuple[]"
            }
          ],
          "internalType": "struct MintingGateway.TransferOutOfArgonProof",
          "name": "proof",
          "type": "tuple"
        }
      ],
      "name": "finalizeTransferOutOfArgon",
      "outputs": [],
      "stateMutability": "nonpayable",
      "type": "function"
    },
    {
      "inputs": [
        {
          "internalType": "bytes32",
          "name": "transferId",
          "type": "bytes32"
        }
      ],
      "name": "finalizedTransferOutOfArgonIds",
      "outputs": [
        {
          "internalType": "bool",
          "name": "isFinalized",
          "type": "bool"
        }
      ],
      "stateMutability": "view",
      "type": "function"
    },
    {
      "inputs": [
        {
          "components": [
            {
              "internalType": "address[]",
              "name": "signers",
              "type": "address[]"
            },
            {
              "internalType": "uint256[]",
              "name": "weights",
              "type": "uint256[]"
            }
          ],
          "internalType": "struct MintingGateway.CouncilSnapshot",
          "name": "nextCouncil",
          "type": "tuple"
        },
        {
          "internalType": "uint128",
          "name": "nextMicrogonsPerArgonot",
          "type": "uint128"
        }
      ],
      "name": "forceUpdateActiveCouncil",
      "outputs": [],
      "stateMutability": "nonpayable",
      "type": "function"
    },
    {
      "inputs": [],
      "name": "gatewayActivityNonce",
      "outputs": [
        {
          "internalType": "uint64",
          "name": "",
          "type": "uint64"
        }
      ],
      "stateMutability": "view",
      "type": "function"
    },
    {
      "inputs": [],
      "name": "globalIssuanceCouncil",
      "outputs": [
        {
          "internalType": "uint256",
          "name": "totalWeight",
          "type": "uint256"
        },
        {
          "internalType": "uint256",
          "name": "memberCount",
          "type": "uint256"
        },
        {
          "internalType": "bytes32",
          "name": "councilHash",
          "type": "bytes32"
        },
        {
          "internalType": "uint128",
          "name": "epochMicrogonsPerArgonot",
          "type": "uint128"
        }
      ],
      "stateMutability": "view",
      "type": "function"
    },
    {
      "inputs": [],
      "name": "guardian",
      "outputs": [
        {
          "internalType": "address",
          "name": "",
          "type": "address"
        }
      ],
      "stateMutability": "view",
      "type": "function"
    },
    {
      "inputs": [
        {
          "internalType": "address",
          "name": "adminSafe",
          "type": "address"
        },
        {
          "internalType": "address",
          "name": "guardianAddress",
          "type": "address"
        },
        {
          "internalType": "bytes32",
          "name": "councilHash",
          "type": "bytes32"
        },
        {
          "internalType": "uint256",
          "name": "councilMemberCount",
          "type": "uint256"
        },
        {
          "internalType": "uint256",
          "name": "councilTotalWeight",
          "type": "uint256"
        },
        {
          "internalType": "uint128",
          "name": "initialMicrogonsPerArgonot",
          "type": "uint128"
        }
      ],
      "name": "initialize",
      "outputs": [],
      "stateMutability": "nonpayable",
      "type": "function"
    },
    {
      "inputs": [],
      "name": "latestActivityBlockLocatorIndex",
      "outputs": [
        {
          "internalType": "uint64",
          "name": "",
          "type": "uint64"
        }
      ],
      "stateMutability": "view",
      "type": "function"
    },
    {
      "inputs": [],
      "name": "maxTransferOutMicrogonsPerArgonot",
      "outputs": [
        {
          "internalType": "uint128",
          "name": "",
          "type": "uint128"
        }
      ],
      "stateMutability": "view",
      "type": "function"
    },
    {
      "inputs": [
        {
          "components": [
            {
              "internalType": "address[]",
              "name": "recipients",
              "type": "address[]"
            },
            {
              "internalType": "uint256[]",
              "name": "amounts",
              "type": "uint256[]"
            }
          ],
          "internalType": "struct MintingGateway.MigrationAssetDistribution",
          "name": "argonMigration",
          "type": "tuple"
        },
        {
          "components": [
            {
              "internalType": "address[]",
              "name": "recipients",
              "type": "address[]"
            },
            {
              "internalType": "uint256[]",
              "name": "amounts",
              "type": "uint256[]"
            }
          ],
          "internalType": "struct MintingGateway.MigrationAssetDistribution",
          "name": "argonotMigration",
          "type": "tuple"
        }
      ],
      "name": "migrate",
      "outputs": [],
      "stateMutability": "nonpayable",
      "type": "function"
    },
    {
      "inputs": [],
      "name": "migrationCompleted",
      "outputs": [
        {
          "internalType": "bool",
          "name": "",
          "type": "bool"
        }
      ],
      "stateMutability": "view",
      "type": "function"
    },
    {
      "inputs": [
        {
          "internalType": "address",
          "name": "signingKey",
          "type": "address"
        }
      ],
      "name": "mintingAuthorityCollateralRemaining",
      "outputs": [
        {
          "internalType": "uint128",
          "name": "microgonCollateral",
          "type": "uint128"
        },
        {
          "internalType": "uint128",
          "name": "micronotCollateral",
          "type": "uint128"
        }
      ],
      "stateMutability": "view",
      "type": "function"
    },
    {
      "inputs": [],
      "name": "owner",
      "outputs": [
        {
          "internalType": "address",
          "name": "",
          "type": "address"
        }
      ],
      "stateMutability": "view",
      "type": "function"
    },
    {
      "inputs": [],
      "name": "pause",
      "outputs": [],
      "stateMutability": "nonpayable",
      "type": "function"
    },
    {
      "inputs": [],
      "name": "paused",
      "outputs": [
        {
          "internalType": "bool",
          "name": "",
          "type": "bool"
        }
      ],
      "stateMutability": "view",
      "type": "function"
    },
    {
      "inputs": [],
      "name": "renounceOwnership",
      "outputs": [],
      "stateMutability": "nonpayable",
      "type": "function"
    },
    {
      "inputs": [
        {
          "internalType": "address",
          "name": "guardianAddress",
          "type": "address"
        }
      ],
      "name": "setGuardian",
      "outputs": [],
      "stateMutability": "nonpayable",
      "type": "function"
    },
    {
      "inputs": [
        {
          "internalType": "address",
          "name": "token",
          "type": "address"
        },
        {
          "internalType": "uint128",
          "name": "amount",
          "type": "uint128"
        },
        {
          "internalType": "bytes32",
          "name": "argonAccountId",
          "type": "bytes32"
        },
        {
          "internalType": "uint256",
          "name": "deadline",
          "type": "uint256"
        },
        {
          "internalType": "uint8",
          "name": "v",
          "type": "uint8"
        },
        {
          "internalType": "bytes32",
          "name": "r",
          "type": "bytes32"
        },
        {
          "internalType": "bytes32",
          "name": "s",
          "type": "bytes32"
        }
      ],
      "name": "startTransferToArgon",
      "outputs": [],
      "stateMutability": "nonpayable",
      "type": "function"
    },
    {
      "inputs": [
        {
          "internalType": "uint128",
          "name": "amount",
          "type": "uint128"
        }
      ],
      "name": "toTokenAmount",
      "outputs": [
        {
          "internalType": "uint256",
          "name": "",
          "type": "uint256"
        }
      ],
      "stateMutability": "pure",
      "type": "function"
    },
    {
      "inputs": [
        {
          "internalType": "address",
          "name": "newOwner",
          "type": "address"
        }
      ],
      "name": "transferOwnership",
      "outputs": [],
      "stateMutability": "nonpayable",
      "type": "function"
    },
    {
      "inputs": [],
      "name": "unpause",
      "outputs": [],
      "stateMutability": "nonpayable",
      "type": "function"
    }
  ],
  "bytecode": "0x60c060405234801561000f575f5ffd5b50604051614c61380380614c6183398101604081905261002e9161011d565b6001600160a01b03808316608052811660a052610049610050565b505061014e565b7ff0c57e16840df040f15088dc2f81fe391c3923bec73e23a9662efc9c229c6a00805468010000000000000000900460ff16156100a05760405163f92ee8a960e01b815260040160405180910390fd5b80546001600160401b03908116146100ff5780546001600160401b0319166001600160401b0390811782556040519081527fc7f505b2f371ae2175ee4913f4499e1f2633a7b5936321eed1cdaeb6115181d29060200160405180910390a15b50565b80516001600160a01b0381168114610118575f5ffd5b919050565b5f5f6040838503121561012e575f5ffd5b61013783610102565b915061014560208401610102565b90509250929050565b60805160a051614ab36101ae5f395f8181610325015281816113bd0152818161147f01528181611d6d0152611dff01525f818161046d01528181610c30015281816110f90152818161137a01528181611d3c0152611dc20152614ab35ff3fe608060405234801561000f575f5ffd5b506004361061021e575f3560e01c80636e2c77691161012a5780638da5cb5b116100b4578063d68d631111610079578063d68d631114610529578063e52580a61461053c578063ecec10a4146105b9578063f1982c67146105cc578063f2fde38b146105d3575f5ffd5b80638da5cb5b146104aa578063905d031f146104b2578063a3eb896114610505578063beabb5911461050e578063c017c90214610516575f5ffd5b80637c9afa67116100fa5780637c9afa671461043e57806380a126211461046057806383a4d591146104685780638456cb591461048f5780638a0dac4a14610497575f5ffd5b80636e2c7769146104085780636e888c461461041b578063715018a61461042e57806378d350e014610436575f5ffd5b80632ef29f3b116101ab578063452a93201161017b578063452a9320146103c757806359b23872146103d95780635b7f415c146103e15780635c975abb146103e95780635cadf6e814610400575f5ffd5b80632ef29f3b1461036757806331677980146103885780633f4ba83a146103ac578063422ad8f6146103b4575f5ffd5b806318a8f1f0116101f157806318a8f1f0146102945780631a5d93fd146102a75780631c1eeae1146102ef5780631e07f89e146103205780632ceeddf51461035f575f5ffd5b8063014c72f61461022257806309af0e3c14610237578063138f87811461026757806316dd172d1461027a575b5f5ffd5b610235610230366004613dea565b6105e6565b005b60085461024a906001600160801b031681565b6040516001600160801b0390911681526020015b60405180910390f35b610235610275366004613e45565b61071d565b610282600181565b60405160ff909116815260200161025e565b6102356102a2366004613eae565b610f41565b6004546005546006546007546102c6939291906001600160801b031684565b604080519485526020850193909352918301526001600160801b0316606082015260800161025e565b5f5461030890600160a01b90046001600160401b031681565b6040516001600160401b03909116815260200161025e565b6103477f000000000000000000000000000000000000000000000000000000000000000081565b6040516001600160a01b03909116815260200161025e565b61024a6110f3565b61037a610375366004613f1b565b611181565b60405190815260200161025e565b60035461039c90600160401b900460ff1681565b604051901515815260200161025e565b6102356111b2565b6102356103c2366004613f34565b6111c4565b5f54610347906001600160a01b031681565b61037a61131f565b610282601281565b5f516020614a5e5f395f51905f525460ff1661039c565b61037a601981565b600154610308906001600160401b031681565b610235610429366004613f4f565b611339565b610235611468565b61024a611479565b61039c61044c366004613fb2565b600a6020525f908152604090205460ff1681565b61037a606481565b6103477f000000000000000000000000000000000000000000000000000000000000000081565b6102356114d9565b6102356104a5366004613fc9565b611534565b6103476115b2565b6104e56104c0366004613fc9565b60096020525f90815260409020546001600160801b0380821691600160801b90041682565b604080516001600160801b0393841681529290911660208301520161025e565b61037a60025481565b610282600681565b610235610524366004613fe2565b6115e0565b600354610308906001600160401b031681565b61058461054a36600461403d565b600b6020525f9081526040902080546001909101546001600160401b0380831692600160401b8104821692600160801b9091049091169084565b60405161025e94939291906001600160401b039485168152928416602084015292166040820152606081019190915260800190565b6102356105c7366004614063565b6117fa565b600b61037a565b6102356105e1366004613fc9565b611a90565b6105ee611acd565b806001600160801b03165f0361061757604051632440a7dd60e01b815260040160405180910390fd5b5f808061069d6106278680614102565b808060200260200160405190810160405280939291908181526020018383602002808284375f92019190915250610665925050506020880188614102565b808060200260200160405190810160405280939291908181526020018383602002808284375f92019190915250899250611aff915050565b6040805160808101825260045481526005546020820152600654918101919091526007546001600160801b0316606082015292955090935091506106e384848488611c1d565b8381604001517f33e53e90d61fdc868629a6234670f92c4445196f3f98ebd71935bbc76c7d915360405160405180910390a3505050505050565b610725611c6e565b61072e82611c9e565b61074661074160e0840160c08501613fc9565b611d08565b610757610100830160e08401613f1b565b6001600160801b03165f0361077f57604051631f2a200560e01b815260040160405180910390fd5b601961078b8280614102565b905011156107c757601961079f8280614102565b60405163e126b42160e01b815260048101939093526024830152506044015b60405180910390fd5b6107d760c0830160a0840161403d565b6001600160401b031643111561082357436107f860c0840160a0850161403d565b604051635728c7dd60e11b815260048101929092526001600160401b031660248201526044016107be565b5f61082d83611e5d565b905061083881611f67565b6108486080840160608501613f1b565b6001600160801b03165f0361087057604051632440a7dd60e01b815260040160405180910390fd5b6008546001600160801b03168061088d6080860160608701613f1b565b6001600160801b031611156108d957806108ad6080860160608701613f1b565b6040516343082d3360e01b81526001600160801b039283166004820152911660248201526044016107be565b5f8080806108e78780614102565b90506001600160401b0381111561090057610900614147565b60405190808252806020026020018201604052801561094957816020015b604080516060810182525f80825260208083018290529282015282525f1990920191018161091e5790505b5090505f5b6109588880614102565b9050811015610c25573661096c8980614102565b8381811061097c5761097c61415b565b905060200281019061098e919061416f565b90505f610a016109ef6109bd8d6109a86020870187613f1b565b6109b86040880160208901613f1b565b611f99565b7f19457468657265756d205369676e6564204d6573736167653a0a3332000000005f908152601c91909152603c902090565b6109fc604085018561418d565b612026565b9050846001600160a01b0316816001600160a01b031611610a35576040516309cf9e4960e11b815260040160405180910390fd5b6001600160a01b0381165f90815260096020908152604090912090610a5c90840184613f1b565b81546001600160801b0391821691161080610a9c5750610a826040840160208501613f1b565b81546001600160801b03918216600160801b909104909116105b15610ac5576040516364fc3cd160e11b81526001600160a01b03831660048201526024016107be565b610ad26020840184613f1b565b815482905f90610aec9084906001600160801b03166141e3565b92506101000a8154816001600160801b0302191690836001600160801b03160217905550826020016020810190610b239190613f1b565b81548290601090610b45908490600160801b90046001600160801b03166141e3565b92506101000a8154816001600160801b0302191690836001600160801b03160217905550825f016020810190610b7b9190613f1b565b610b859089614202565b9750610b976040840160208501613f1b565b610ba19088614202565b96506040518060600160405280836001600160a01b03168152602001845f016020810190610bcf9190613f1b565b6001600160801b03168152602001846020016020810190610bf09190613f1b565b6001600160801b0316815250858581518110610c0e57610c0e61415b565b60209081029190910101525093505060010161094e565b506001600160a01b037f000000000000000000000000000000000000000000000000000000000000000016610c6060e08a0160c08b01613fc9565b6001600160a01b031603610d2e575f610c7b6006600a6142fc565b610c8b60808b0160608c01613f1b565b6001600160801b0316856001600160801b0316610ca8919061430a565b610cb29190614321565b90505f610cc8826001600160801b038816614340565b9050610cdb6101008b0160e08c01613f1b565b6001600160801b0316811015610d275780610cfd6101008c0160e08d01613f1b565b60405162f9825560e61b815260048101929092526001600160801b031660248201526044016107be565b5050610dbd565b6001600160801b03841615610d5657604051630994a0f360e11b815260040160405180910390fd5b610d67610100890160e08a01613f1b565b6001600160801b0316836001600160801b03161015610dbd5782610d926101008a0160e08b01613f1b565b60405162f9825560e61b81526001600160801b039283166004820152911660248201526044016107be565b610ddb865f908152600a60205260409020805460ff19166001179055565b610deb60e0890160c08a01613fc9565b6001600160a01b03166340c10f19610e0960a08b0160808c01613fc9565b610e1d6103756101008d0160e08e01613f1b565b6040516001600160e01b031960e085901b1681526001600160a01b03909216600483015260248201526044015f604051808303815f87803b158015610e60575f5ffd5b505af1158015610e72573d5f5f3e3d5ffd5b50505f8054909250610e9f9150610e9a90600160a01b90046001600160401b03166001614353565b612050565b9050610ed881610ed389610eb960e08e0160c08f01613fc9565b8d60e0016020810190610ecc9190613f1b565b87876120c5565b6121a0565b7f64d79900ed82270f744ae62db527f4e328e336d8b51e77bc72601391fe779d0687610f0a60e08c0160c08d01613fc9565b610f1b6101008d0160e08e01613f1b565b8585604051610f2e959493929190614424565b60405180910390a1505050505050505050565b610f49611c6e565b610f5287611d08565b856001600160801b03165f03610f7b57604051631f2a200560e01b815260040160405180910390fd5b5f610f8587611181565b60405163d505accf60e01b8152336004820152306024820152604481018290526064810187905260ff8616608482015260a4810185905260c481018490529091506001600160a01b0389169063d505accf9060e4015f604051808303815f87803b158015610ff1575f5ffd5b505af1158015611003573d5f5f3e3d5ffd5b505060405163079cc67960e41b8152336004820152602481018490526001600160a01b038b1692506379cc679091506044015f604051808303815f87803b15801561104c575f5ffd5b505af115801561105e573d5f5f3e3d5ffd5b50505f80549092506110869150610e9a90600160a01b90046001600160401b03166001614353565b905061109981610ed3338c8c8c87612461565b886001600160a01b0316336001600160a01b03167f3ab970a848f33363427e47cfbd7a627af0c6e72757f150137e38cef3cee24d938a8a856040516110e09392919061446c565b60405180910390a3505050505050505050565b5f61117c7f00000000000000000000000000000000000000000000000000000000000000006001600160a01b03166318160ddd6040518163ffffffff1660e01b8152600401602060405180830381865afa158015611153573d5f5f3e3d5ffd5b505050506040513d601f19601f820116820180604052508101906111779190614490565b6124f8565b905090565b5f61118e600660126144a7565b61119990600a6142fc565b6111ac906001600160801b03841661430a565b92915050565b6111ba611acd565b6111c2612548565b565b6111cc611c6e565b6111d581611c9e565b6111e861074160e0830160c08401613fc9565b6111f9610100820160e08301613f1b565b6001600160801b03165f0361122157604051631f2a200560e01b815260040160405180910390fd5b61123160c0820160a0830161403d565b6001600160401b0316431161127c574361125160c0830160a0840161403d565b6040516374276dcf60e11b815260048101929092526001600160401b031660248201526044016107be565b5f61128682611e5d565b905061129181611f67565b6112af815f908152600a60205260409020805460ff19166001179055565b5f80546112d190610e9a90600160a01b90046001600160401b03166001614353565b90506112e181610ed384846125a7565b7f3cb8789e9bf6f532eec2bc8ffee9b622fc0d6e6daefb7fb6bb2e2f7b2d62e45282826040516113129291906144c0565b60405180910390a1505050565b61132b600660126144a7565b61133690600a6142fc565b81565b611341611acd565b611349611c6e565b600354600160401b900460ff161561137457604051633dbff3b560e01b815260040160405180910390fd5b5f6113b57f00000000000000000000000000000000000000000000000000000000000000006113a38580614102565b6113b06020880188614102565b612631565b90505f6113e67f00000000000000000000000000000000000000000000000000000000000000006113a38580614102565b6003805460ff60401b1916600160401b17905590507fc255ddc45163282f24909556f7475ab4ec8eb1d51763b25a4560cee9f43d06456114268580614102565b9050836114338680614102565b60405161145a94939250869093845260208401929092526040830152606082015260800190565b60405180910390a150505050565b611470611acd565b6111c25f612770565b5f61117c7f00000000000000000000000000000000000000000000000000000000000000006001600160a01b03166318160ddd6040518163ffffffff1660e01b8152600401602060405180830381865afa158015611153573d5f5f3e3d5ffd5b5f546001600160a01b0316331480159061150c57506114f66115b2565b6001600160a01b0316336001600160a01b031614155b1561152c5760405163354de03160e21b81523360048201526024016107be565b6111c26127e0565b61153c611acd565b6001600160a01b0381166115635760405163a91f6a8960e01b815260040160405180910390fd5b5f80546001600160a01b038381166001600160a01b0319831681178455604051919092169283917f064d28d3d3071c5cbc271a261c10c2f0f0d9e319390397101aa0eb23c6bad9099190a35050565b7f9016d09d72d40fdae2fd8ceac6b6234c7706214fd39c1cd1e609a0528c199300546001600160a01b031690565b5f6115e9612828565b805490915060ff600160401b82041615906001600160401b03165f8115801561160f5750825b90505f826001600160401b0316600114801561162a5750303b155b905081158015611638575080155b156116565760405163f92ee8a960e01b815260040160405180910390fd5b845467ffffffffffffffff19166001178555831561168057845460ff60401b1916600160401b1785555b6001600160a01b038b166116a7576040516314030c0360e11b815260040160405180910390fd5b6001600160a01b038a166116ce5760405163a91f6a8960e01b815260040160405180910390fd5b8815806116d9575087155b806116e2575086155b156117025760405163665c282b60e01b81525f60048201526024016107be565b856001600160801b03165f0361172b57604051632440a7dd60e01b815260040160405180910390fd5b6117348b612850565b61173c612861565b5f80546001600160a01b0319166001600160a01b038c1617905561176289888a89611c1d565b600880546001600160801b0319166001600160801b03881617905560405189907fac3566d46c25f65b48d269870da4b9349704c79de13ad49b115532834d7e7ed1905f90a283156117ed57845460ff60401b19168555604051600181527fc7f505b2f371ae2175ee4913f4499e1f2633a7b5936321eed1cdaeb6115181d29060200160405180910390a15b5050505050505050505050565b611802611c6e565b606482111561182e5760405163384b869360e21b815260646004820152602481018390526044016107be565b60065461184e57604051632c1dfd4f60e11b815260040160405180910390fd5b5f61185885612869565b6002549091505f8061186a8787612a2b565b90925090505f8615611886576118816001886144d4565b611888565b5f5b90505f5b87811015611a8457368989838181106118a7576118a761415b565b90506020028101906118b991906144e7565b60018054919250838514915f916118d9916001600160401b031690614353565b90506001600160401b0381166118f2602085018561403d565b6001600160401b03161461193a578061190e602085018561403d565b604051635efa452960e11b81526001600160401b039283166004820152911660248201526044016107be565b5f61194a848b604001518b612cd6565b905061195884828c86612e4c565b600261196a604086016020870161450f565b600281111561197b5761197b6144fb565b036119925761198b84828d612eb4565b9850611a75565b5f6119a3604086016020870161450f565b60028111156119b4576119b46144fb565b036119ce576119c484828d612ffb565b909a509850611a75565b60016119e0604086016020870161450f565b60028111156119f1576119f16144fb565b03611a355761198b84828a8881518110611a0d57611a0d61415b565b60200260200101518a8981518110611a2757611a2761415b565b60200260200101518f6131a9565b611a45604085016020860161450f565b6002811115611a5657611a566144fb565b60405163b99607f960e01b815260ff90911660048201526024016107be565b5050505080600101905061188c565b50505050505050505050565b611a98611acd565b6001600160a01b038116611ac157604051631e4fbdf760e01b81525f60048201526024016107be565b611aca81612770565b50565b33611ad66115b2565b6001600160a01b0316146111c25760405163118cdaa760e01b81523360048201526024016107be565b5f5f5f85515f03611b255760405163665c282b60e01b81525f60048201526024016107be565b8451865114611b475760405163512509d360e11b815260040160405180910390fd5b5f805b8751811015611c01575f888281518110611b6657611b6661415b565b602002602001015190505f888381518110611b8357611b8361415b565b602002602001015190505f6001600160a01b0316826001600160a01b03161480611bab575080155b80611bc85750836001600160a01b0316826001600160a01b031611155b15611be95760405163665c282b60e01b8152600481018490526024016107be565b611bf38187614340565b955090925050600101611b4a565b5086519150611c1187878761340c565b93505093509350939050565b60408051608081018252848152602081018490529081018590526001600160801b039091166060909101819052600492909255600555600691909155600780546001600160801b0319169091179055565b5f516020614a5e5f395f51905f525460ff16156111c25760405163d93c066560e01b815260040160405180910390fd5b466001600160401b038116611cb9606084016040850161403d565b6001600160401b031614611d045780611cd8606084016040850161403d565b6040516332e3634d60e21b81526001600160401b039283166004820152911660248201526044016107be565b5050565b6001600160a01b038116611d3a57604051635f8b555b60e11b81526001600160a01b03821660048201526024016107be565b7f00000000000000000000000000000000000000000000000000000000000000006001600160a01b03161580611d9757507f00000000000000000000000000000000000000000000000000000000000000006001600160a01b0316155b15611dc057604051635f8b555b60e11b81526001600160a01b03821660048201526024016107be565b7f00000000000000000000000000000000000000000000000000000000000000006001600160a01b0316816001600160a01b031614158015611e3457507f00000000000000000000000000000000000000000000000000000000000000006001600160a01b0316816001600160a01b031614155b15611aca57604051635f8b555b60e11b81526001600160a01b03821660048201526024016107be565b5f8135611e70604084016020850161403d565b611e80606085016040860161403d565b611e906080860160608701613f1b565b611ea060a0870160808801613fc9565b611eb060c0880160a0890161403d565b611ec060e0890160c08a01613fc9565b611ed16101008a0160e08b01613f1b565b611ee36101208b016101008c01613f1b565b60408051602081019a909a526001600160401b03988916908a015295871660608901526001600160801b0394851660808901526001600160a01b0393841660a08901529590911660c08701521660e085015291821661010084015216610120820152610140015b604051602081830303815290604052805190602001209050919050565b5f818152600a602052604090205460ff1615611aca57604051632910aca360e01b8152600481018290526024016107be565b5f7f28bf99522b0d2f26a76cdeda71578156383bbae91175ca503165cfdbbd1ff34a4630611fc687611e5d565b6040805160208101959095528401929092526001600160a01b0316606083015260808201526001600160801b0380851660a0830152831660c082015260e0015b6040516020818303038152906040528051906020012090505b9392505050565b5f5f5f5f612035878787613422565b9250925092506120458282613469565b509095945050505050565b604080516080810182525f808252602082018190529181018290526060810191909152604080516080810182526001600160401b03808516825260015416602082015290810161209e6110f3565b6001600160801b031681526020016120b4611479565b6001600160801b0316905292915050565b5f7f6bf7256f4c4f60df0bd918b509bf742c125b14ab72c967f949c0c3e504d4d62560014630898989896040516020016120ff919061452d565b6040516020818303038152906040528051906020012061211e8a613521565b60408051602081019a909a5260ff9098169789019790975260608801959095526001600160a01b03938416608088015260a08701929092529190911660c08501526001600160801b031660e0840152610100830152610120820152610140015b6040516020818303038152906040528051906020012090505b95945050505050565b81515f80546001600160401b03808416600160a01b0267ffffffffffffffff60a01b199092169190911782556003544392911690036122cf576003805467ffffffffffffffff19166001179055604080516080810182526001600160401b03838116825284166020820181905291810191909152606081016122225f86613533565b905260015f52600b602090815281517f72c6bfb7988af3a1efa6568f02a999bc52252641c659d85961ca3d372b57d5cf80549284015160408501516001600160401b03908116600160801b0267ffffffffffffffff60801b19928216600160401b026001600160801b031990961694909116939093179390931792909216179055606001517f72c6bfb7988af3a1efa6568f02a999bc52252641c659d85961ca3d372b57d5d05550505050565b6003546001600160401b039081165f908152600b602052604090208054909183811691160361233657805467ffffffffffffffff60801b1916600160801b6001600160401b03851602178155600181015461232a9085613533565b60019091015550505050565b6003545f9061234f906001600160401b03166001614353565b6003805467ffffffffffffffff19166001600160401b0383811691909117909155604080516080808201835287841682528884166020808401829052838501919091528351918201845287548086168352600160401b8104861691830191909152600160801b9004909316918301919091526001850154606080840191909152929350918201906123e9906123e390613555565b88613533565b90526001600160401b039182165f908152600b60209081526040918290208351815492850151938501518616600160801b0267ffffffffffffffff60801b19948716600160401b026001600160801b031990941691909616179190911791909116929092178255606001516001909101555050505050565b5f7ff1cdefdf363279c2a6d861bb708536f5c8470b6fb59f43e01f67bb3f168e7b1f60014630898989896124948a613521565b60408051602081019a909a5260ff9098169789019790975260608801959095526001600160a01b03938416608088015291831660a08701529190911660c08501526001600160801b031660e08401526101008301526101208201526101400161217e565b5f80612506600660126144a7565b61251190600a6142fc565b61251b9084614321565b90506001600160801b038111156111ac57604051639940a77560e01b8152600481018290526024016107be565b6125506135ad565b5f516020614a5e5f395f51905f52805460ff191681557f5db9ee0a495bf2e6ff9c91a7834c1ba4fdd244a5e8aa4e537bd38aeae4b073aa335b6040516001600160a01b03909116815260200160405180910390a150565b5f7febf24d41f9ef23280fd74eb80f9ce85e35b83fb7cf6aa2c52a07c20f981978c660014630866125d787613521565b60408051602081019790975260ff9095169486019490945260608501929092526001600160a01b0316608084015260a083015260c082015260e0015b60405160208183030381529060405280519060200120905092915050565b5f8382146126525760405163512509d360e11b815260040160405180910390fd5b5f5b84811015612766575f86868381811061266f5761266f61415b565b90506020020160208101906126849190613fc9565b90505f8585848181106126995761269961415b565b60200291909101359150506001600160a01b0382166126ce57604051633bca2f5160e21b8152600481018490526024016107be565b805f036126ee57604051631f2a200560e01b815260040160405180910390fd5b6040516340c10f1960e01b81526001600160a01b038381166004830152602482018390528a16906340c10f19906044015f604051808303815f87803b158015612735575f5ffd5b505af1158015612747573d5f5f3e3d5ffd5b5050505080846127579190614340565b93505050806001019050612654565b5095945050505050565b7f9016d09d72d40fdae2fd8ceac6b6234c7706214fd39c1cd1e609a0528c19930080546001600160a01b031981166001600160a01b03848116918217845560405192169182907f8be0079c531659141344cd1fd0a4f28419497f9722a3daafe3b4186f6b6457e0905f90a3505050565b6127e8611c6e565b5f516020614a5e5f395f51905f52805460ff191660011781557f62e78cea01bee320cd4e420270b5ea74000d11b0c9f74754ebdbfc544b05a25833612589565b5f807ff0c57e16840df040f15088dc2f81fe391c3923bec73e23a9662efc9c229c6a006111ac565b6128586135dc565b611aca81613601565b6111c26135dc565b6128986040518060a0016040528060608152602001606081526020015f81526020015f81526020015f81525090565b5f80806129296128a88680614102565b808060200260200160405190810160405280939291908181526020018383602002808284375f920191909152506128e6925050506020880188614102565b808060200260200160405190810160405280939291908181526020018383602002808284375f92019190915250506007546001600160801b03169150611aff9050565b9250925092506004600201548314158061294557506004548214155b8061295257506005548114155b1561297e57600654604051633b21437560e21b81526004810191909152602481018490526044016107be565b6040805160a08101909152806129948780614102565b808060200260200160405190810160405280939291908181526020018383602002808284375f920191909152505050908252506020908101906129d990880188614102565b808060200260200160405190810160405280939291908181526020018383602002808284375f920191909152505050908252506020810194909452604084019290925260609092019190915292915050565b606080826001600160401b03811115612a4657612a46614147565b604051908082528060200260200182016040528015612a6f578160200160208202803683370190505b509150826001600160401b03811115612a8a57612a8a614147565b604051908082528060200260200182016040528015612ab3578160200160208202803683370190505b5090508215612ccf575f836001600160401b03811115612ad557612ad5614147565b604051908082528060200260200182016040528015612afe578160200160208202803683370190505b5090505f8080612b0f6001886144d4565b90505f5b87811015612cc9575f898983818110612b2e57612b2e61415b565b9050602002810190612b4091906144e7565b612b5190604081019060200161450f565b90506001816002811115612b6757612b676144fb565b03612ba65781868663ffffffff1681518110612b8557612b8561415b565b63ffffffff90921660209283029190910190910152612ba38561453f565b94505b5f80826002811115612bba57612bba6144fb565b1480612bc557508383145b905080612bd3575050612cc1565b8a8a84818110612be557612be561415b565b9050602002810190612bf791906144e7565b612c05906060810190614102565b612c10915086614563565b94508563ffffffff165f03612c26575050612cc1565b5f5b8663ffffffff16811015612cb7575f888281518110612c4957612c4961415b565b602002602001015163ffffffff169050878b8281518110612c6c57612c6c61415b565b602002602001019063ffffffff16908163ffffffff1681525050868a8281518110612c9957612c9961415b565b63ffffffff9092166020928302919091019091015250600101612c28565b505f95505f945050505b600101612b13565b50505050505b9250929050565b5f6001612ce9604086016020870161450f565b6002811115612cfa57612cfa6144fb565b03612d49575f612d0d604086018661418d565b810190612d1a91906145d7565b9050612d41612d2c602087018761403d565b85835f01518460200151856040015188613609565b91505061201f565b6002612d5b604086016020870161450f565b6002811115612d6c57612d6c6144fb565b03612de1575f612d7f604086018661418d565b810190612d8c9190614642565b9050612d41612d9e602087018761403d565b825186906002906001600160a01b03168551604080516001600160a01b039092166020830152016040516020818303038152906040528051906020012088613639565b5f612df2604086016020870161450f565b6002811115612e0357612e036144fb565b03611a35575f612e16604086018661418d565b810190612e23919061470d565b9050612d41612e35602087018761403d565b8251805160209182015191850151889290886136ec565b5f612e5d604086016020870161450f565b6002811115612e6e57612e6e6144fb565b14158015612e7a575080155b612eae57612eae83612e8f6060870187614102565b612e9891614843565b845160208601516060870151608088015161371f565b50505050565b5f80612ec3604086018661418d565b810190612ed09190614642565b80519091506001600160a01b0316612efb5760405163611b32ab60e01b815260040160405180910390fd5b80516001600160a01b039081165f9081526009602090815260408083208054865190951684529083209290925590916001600160801b0380821692600160801b9092041690612f4c9089018961403d565b6001805467ffffffffffffffff19166001600160401b0392831617815560028990555f80549092612f8b92610e9a92600160a01b900490911690614353565b9050612fa281610ed3875f015186868d8d88613764565b845f01516001600160a01b03167f0b4ee788c9bfc3c405fb19e3f6137bf14a218c0dbc53c13a6ed07a225d360ebc84848b8b86604051612fe6959493929190614903565b60405180910390a25095979650505050505050565b61302a6040518060a0016040528060608152602001606081526020015f81526020015f81526020015f81525090565b5f80613039604087018761418d565b810190613046919061470d565b905080602001516001600160801b03165f0361307557604051632440a7dd60e01b815260040160405180910390fd5b5f5f5f613094845f01515f0151855f0151602001518660200151611aff565b8093508194508295505050506130b08383838760200151611c1d565b602084810151600880546001600160801b0319166001600160801b039092169190911790556130e1908a018a61403d565b6001805467ffffffffffffffff19166001600160401b0392831617815560028a90555f8054909261312092610e9a92600160a01b900490911690614353565b905061313281610ed3868c8c86613802565b7fee5f0b6612e124988e865e18a4c4b0ec70d2f263708bb1e17f6de867fb1fe1c2848a8a846040516131679493929190614937565b60405180910390a1506040805160a08101825285515181529451602090810151908601528401929092526060830152608082015291508390505b935093915050565b5f806131b8604088018861418d565b8101906131c591906145d7565b60408101519091506001600160a01b03166131f35760405163611b32ab60e01b815260040160405180910390fd5b80516001600160801b0316158015613216575060208101516001600160801b0316155b15613245576040808201519051632edcd91760e21b81526001600160a01b0390911660048201526024016107be565b63ffffffff8516158061325c575063ffffffff8416155b1561328b576040808201519051632edcd91760e21b81526001600160a01b0390911660048201526024016107be565b6040808201516001600160a01b03165f90815260096020522080546001600160801b03161515806132cc57508054600160801b90046001600160801b031615155b156132fb57604080830151905163cb96603760e01b81526001600160a01b0390911660048201526024016107be565b60408051808201825283516001600160801b0390811682526020808601518216818401908152868501516001600160a01b03165f9081526009835294909420925193518216600160801b029390911692909217905561335c9089018961403d565b6001805467ffffffffffffffff19166001600160401b0392831617815560028990555f8054909261339b92610e9a92600160a01b900490911690614353565b90506133bc81610ed38560400151865f015187602001518c8c8f8d8a61389e565b82604001516001600160a01b03167f9023f1e3e253ad361005d72868d790c37ca6f53a03d522ebc93dca42154e15bf845f015185602001518a8a8d8b88604051612fe69796959493929190614959565b5f838383604051602001612006939291906149a1565b5f80806041849003613456578435602086013560408701355f1a61344889828585613973565b955095509550505050613460565b505f915060029050825b93509350939050565b5f82600381111561347c5761347c6144fb565b03613485575050565b6001826003811115613499576134996144fb565b036134b75760405163f645eedf60e01b815260040160405180910390fd5b60028260038111156134cb576134cb6144fb565b036134ec5760405163fce698f760e01b8152600481018290526024016107be565b6003826003811115613500576135006144fb565b03611d04576040516335e2f38360e21b8152600481018290526024016107be565b5f81604051602001611f4a9190614a37565b6040805160016020820152908101839052606081018290525f90608001612613565b5f6001825f0151836020015184604001518560600151604051602001611f4a95949392919060ff9590951685526001600160401b03938416602086015291831660408501529091166060830152608082015260a00190565b5f516020614a5e5f395f51905f525460ff166111c257604051638dfc202b60e01b815260040160405180910390fd5b6135e4613a3b565b6111c257604051631afcd79f60e31b815260040160405180910390fd5b611a986135dc565b5f61362c878760016001600160a01b0387166136268a8a8a613a54565b87613639565b90505b9695505050505050565b5f7f41936771719a172aa959076ca6aafb826eaf332dd0c9e7860901c398ef42da0546308989896002811115613671576136716144fb565b6040805160208101979097528601949094526001600160a01b0390921660608501526001600160401b0316608084015260a083015260ff1660c082015260e0810185905261010081018490526101208101839052610140015b6040516020818303038152906040528051906020012090509695505050505050565b5f5f6136f986868661340c565b905061371388885f8461370d8b8b8b613ab0565b88613639565b98975050505050505050565b5f5f61372d88888888613b1b565b9150915061373d82828686613cb1565b61375a5760405163079842ab60e41b815260040160405180910390fd5b5050505050505050565b5f7f8b2b1e5653cf18a7cb85828eebc4ac1e6c7093911ffb66bda4277640f68267f6600146308a8a8a8a8a6137988b613521565b60408051602081019b909b5260ff909916988a019890985260608901969096526001600160a01b0394851660808901529390921660a08701526001600160801b0390811660c08701521660e0850152610100840152610120830152610140820152610160016136ca565b5f7fd6c5d8b75d4c96100cc12b870b8e28bb0b07402bf67c8141d16c2c673af8bb5e6001463088888861383489613521565b60408051602081019990995260ff9097169688019690965260608701949094526001600160a01b03909216608086015260a085015260c084015260e0830152610100820152610120016040516020818303038152906040528051906020012090505b949350505050565b5f7ff81bcebf1f8da13ff1db236962ed82c8762b74f56aeb5a1bd1677ef0db43dbbe600146308c8c8c8c8c8c8c6138d48d613521565b60408051602081019d909d5260ff909b169a8c019a909a5260608b01989098526001600160a01b0396871660808b01529590941660a08901526001600160801b0392831660c0890152911660e087015263ffffffff908116610100870152166101208501526101408401526101608301526101808201526101a00160405160208183030381529060405280519060200120905098975050505050505050565b5f80807f7fffffffffffffffffffffffffffffff5d576e7357a4501ddfe92f46681b20a08411156139ac57505f91506003905082613a31565b604080515f808252602082018084528a905260ff891692820192909252606081018790526080810186905260019060a0016020604051602081039080840390855afa1580156139fd573d5f5f3e3d5ffd5b5050604051601f1901519150506001600160a01b038116613a2857505f925060019150829050613a31565b92505f91508190505b9450945094915050565b5f613a44612828565b54600160401b900460ff16919050565b5f7f1cd7f89e34f6154d6f8387a08ffafc689e347b8d5809913b07c58a42995dff664630613a83878787613d12565b6040805160208101959095528401929092526001600160a01b03166060830152608082015260a001612006565b5f7f82ce6440aa5dde11f3613892819b630b62342bacf93e16a292d5c8783aafa4c34630613adf87878761340c565b6040805160208101959095528401929092526001600160a01b0316606083015260808201526001600160801b03831660a082015260c001612006565b7f19457468657265756d205369676e6564204d6573736167653a0a3332000000005f908152601c859052603c8120819081905f805b8851811015613ca4575f613b7d848b8481518110613b7057613b7061415b565b6020026020010151613d48565b9050846001600160a01b0316816001600160a01b031611613bb1576040516309cf9e4960e11b815260040160405180910390fd5b885183108015613beb5750806001600160a01b0316898481518110613bd857613bd861415b565b60200260200101516001600160a01b0316105b15613c0057613bf983614a45565b9250613bb1565b8851831480613c3a5750806001600160a01b0316898481518110613c2657613c2661415b565b60200260200101516001600160a01b031614155b15613c5b5760405163665c282b60e01b8152600481018390526024016107be565b613c6487614a45565b9650878381518110613c7857613c7861415b565b602002602001015186613c8b9190614340565b9550935083613c9983614a45565b925050600101613b50565b5050505094509492505050565b5f80613cbd86846144d4565b9050613cca84605a61430a565b613cd586606461430a565b10613ce4576001915050613896565b6002811115801561362f5750613cfb84605061430a565b613d0686606461430a565b10159695505050505050565b604080516001600160801b0380861660208301528416918101919091526001600160a01b03821660608201525f90608001612006565b5f5f5f5f613d568686613d70565b925092509250613d668282613469565b5090949350505050565b5f5f5f8351604103613da7576020840151604085015160608601515f1a613d9988828585613973565b955095509550505050613db2565b505081515f91506002905b9250925092565b5f60408284031215613dc9575f5ffd5b50919050565b80356001600160801b0381168114613de5575f5ffd5b919050565b5f5f60408385031215613dfb575f5ffd5b82356001600160401b03811115613e10575f5ffd5b613e1c85828601613db9565b925050613e2b60208401613dcf565b90509250929050565b5f6101208284031215613dc9575f5ffd5b5f5f6101408385031215613e57575f5ffd5b613e618484613e34565b91506101208301356001600160401b03811115613e7c575f5ffd5b830160208186031215613e8d575f5ffd5b809150509250929050565b80356001600160a01b0381168114613de5575f5ffd5b5f5f5f5f5f5f5f60e0888a031215613ec4575f5ffd5b613ecd88613e98565b9650613edb60208901613dcf565b95506040880135945060608801359350608088013560ff81168114613efe575f5ffd5b9699959850939692959460a0840135945060c09093013592915050565b5f60208284031215613f2b575f5ffd5b61201f82613dcf565b5f6101208284031215613f45575f5ffd5b61201f8383613e34565b5f5f60408385031215613f60575f5ffd5b82356001600160401b03811115613f75575f5ffd5b613f8185828601613db9565b92505060208301356001600160401b03811115613f9c575f5ffd5b613fa885828601613db9565b9150509250929050565b5f60208284031215613fc2575f5ffd5b5035919050565b5f60208284031215613fd9575f5ffd5b61201f82613e98565b5f5f5f5f5f5f60c08789031215613ff7575f5ffd5b61400087613e98565b955061400e60208801613e98565b945060408701359350606087013592506080870135915061403160a08801613dcf565b90509295509295509295565b5f6020828403121561404d575f5ffd5b81356001600160401b038116811461201f575f5ffd5b5f5f5f5f60608587031215614076575f5ffd5b84356001600160401b0381111561408b575f5ffd5b61409787828801613db9565b94505060208501356001600160401b038111156140b2575f5ffd5b8501601f810187136140c2575f5ffd5b80356001600160401b038111156140d7575f5ffd5b8760208260051b84010111156140eb575f5ffd5b949760209190910196509394604001359392505050565b5f5f8335601e19843603018112614117575f5ffd5b8301803591506001600160401b03821115614130575f5ffd5b6020019150600581901b3603821315612ccf575f5ffd5b634e487b7160e01b5f52604160045260245ffd5b634e487b7160e01b5f52603260045260245ffd5b5f8235605e19833603018112614183575f5ffd5b9190910192915050565b5f5f8335601e198436030181126141a2575f5ffd5b8301803591506001600160401b038211156141bb575f5ffd5b602001915036819003821315612ccf575f5ffd5b634e487b7160e01b5f52601160045260245ffd5b6001600160801b0382811682821603908111156111ac576111ac6141cf565b6001600160801b0381811683821601908111156111ac576111ac6141cf565b6001815b60018411156131a157808504811115614240576142406141cf565b600184161561424e57908102905b60019390931c928002614225565b5f8261426a575060016111ac565b8161427657505f6111ac565b816001811461428c5760028114614296576142b2565b60019150506111ac565b60ff8411156142a7576142a76141cf565b50506001821b6111ac565b5060208310610133831016604e8410600b84101617156142d5575081810a6111ac565b6142e15f198484614221565b805f19048211156142f4576142f46141cf565b029392505050565b5f61201f60ff84168361425c565b80820281158282048414176111ac576111ac6141cf565b5f8261433b57634e487b7160e01b5f52601260045260245ffd5b500490565b808201808211156111ac576111ac6141cf565b6001600160401b0381811683821601908111156111ac576111ac6141cf565b5f8151808452602084019350602083015f5b828110156143d057815180516001600160a01b031687526020808201516001600160801b03908116828a0152604092830151169188019190915260609096019590910190600101614384565b5093949350505050565b6001600160401b0381511682526001600160401b0360208201511660208301526001600160801b0360408201511660408301526001600160801b0360608201511660608301525050565b8581526001600160a01b03851660208201526001600160801b0384166040820152610100606082018190525f9061445d90830185614372565b905061362f60808301846143da565b6001600160801b03841681526020810183905260c0810161389660408301846143da565b5f602082840312156144a0575f5ffd5b5051919050565b60ff82811682821603908111156111ac576111ac6141cf565b82815260a0810161201f60208301846143da565b818103818111156111ac576111ac6141cf565b5f8235607e19833603018112614183575f5ffd5b634e487b7160e01b5f52602160045260245ffd5b5f6020828403121561451f575f5ffd5b81356003811061201f575f5ffd5b602081525f61201f6020830184614372565b5f63ffffffff821663ffffffff810361455a5761455a6141cf565b60010192915050565b63ffffffff81811683821601908111156111ac576111ac6141cf565b604080519081016001600160401b03811182821017156145a1576145a1614147565b60405290565b604051601f8201601f191681016001600160401b03811182821017156145cf576145cf614147565b604052919050565b5f60608284031280156145e8575f5ffd5b50604051606081016001600160401b038111828210171561460b5761460b614147565b60405261461783613dcf565b815261462560208401613dcf565b602082015261463660408401613e98565b60408201529392505050565b5f6020828403128015614653575f5ffd5b50604051602081016001600160401b038111828210171561467657614676614147565b60405261468283613e98565b81529392505050565b5f6001600160401b038211156146a3576146a3614147565b5060051b60200190565b5f82601f8301126146bc575f5ffd5b81356146cf6146ca8261468b565b6145a7565b8082825260208201915060208360051b8601019250858311156146f0575f5ffd5b602085015b838110156127665780358352602092830192016146f5565b5f6020828403121561471d575f5ffd5b81356001600160401b03811115614732575f5ffd5b820160408185031215614743575f5ffd5b61474b61457f565b81356001600160401b03811115614760575f5ffd5b820160408187031215614771575f5ffd5b61477961457f565b81356001600160401b0381111561478e575f5ffd5b8201601f8101881361479e575f5ffd5b80356147ac6146ca8261468b565b8082825260208201915060208360051b85010192508a8311156147cd575f5ffd5b6020840193505b828410156147f6576147e584613e98565b8252602093840193909101906147d4565b845250505060208201356001600160401b03811115614813575f5ffd5b61481f888285016146ad565b602083015250808352505061483660208301613dcf565b6020820152949350505050565b5f6148506146ca8461468b565b8381526020810190600585901b84013681111561486b575f5ffd5b845b818110156120455780356001600160401b0381111561488a575f5ffd5b860136601f82011261489a575f5ffd5b80356001600160401b038111156148b3576148b3614147565b6148c6601f8201601f19166020016145a7565b8181523660208385010111156148da575f5ffd5b816020840160208301375f6020838301015280875250505060208401935060208101905061486d565b6001600160801b038681168252851660208201526040810184905260608101839052610100810161362f60808301846143da565b848152602081018490526040810183905260e0810161219760608301846143da565b6001600160801b0388811682528716602082015263ffffffff8681166040830152851660608201526080810184905260a08101839052610140810161371360c08301846143da565b606080825284519082018190525f9060208601906080840190835b818110156149e35783516001600160a01b03168352602093840193909201916001016149bc565b5050838103602080860191909152865180835291810192508601905f5b81811015614a1e578251845260209384019390920191600101614a00565b5050506001600160801b03841660408401529050613896565b608081016111ac82846143da565b5f60018201614a5657614a566141cf565b506001019056fecd5ed15c6e187e77e9aee88184c21f4f2182ab5827cb3b7e07fbedcd63f03300a264697066735822122024a774fd8e8bc6d7f1582a18acbcf68e3fdb1554db5ab94ea537d713ba6d6b0664736f6c63430008230033",
  "linkReferences": {},
  "deployedLinkReferences": {},
  "immutableReferences": {
    "10452": [
      {
        "length": 32,
        "start": 1133
      },
      {
        "length": 32,
        "start": 3120
      },
      {
        "length": 32,
        "start": 4345
      },
      {
        "length": 32,
        "start": 4986
      },
      {
        "length": 32,
        "start": 7484
      },
      {
        "length": 32,
        "start": 7618
      }
    ],
    "10455": [
      {
        "length": 32,
        "start": 805
      },
      {
        "length": 32,
        "start": 5053
      },
      {
        "length": 32,
        "start": 5247
      },
      {
        "length": 32,
        "start": 7533
      },
      {
        "length": 32,
        "start": 7679
      }
    ]
  },
  "inputSourceName": "project/contracts/MintingGateway.sol",
  "buildInfoId": "solc-0_8_35-beb8df952405ec55b2bc54201ffcd6097ae4e14a"
}